:020000040800F2
:1000000020460020D1030008AF490008054500083C
:10001000AD4900080F1E0008215000080000000034
:1000200000000000000000000000000011030008B4
:100030006F200008000000006D030008F94B000865
:10004000EB030008EB030008EB030008EB030008D8
:10005000EB030008EB030008EB030008EB030008C8
:10006000EB030008EB030008EB030008EB030008B8
:10007000EB030008EB030008951F0008EB030008E2
:10008000EB030008EB030008EB030008EB03000898
:10009000EB030008EB030008EB030008EB03000888
:1000A000EB030008EB030008EB030008EB03000878
:1000B000EB030008EB030008EB030008EB03000868
:1000C000EB030008EB030008EB030008EB03000858
:1000D000EB030008EB030008EB03000815500008D1
:1000E000EB030008EB030008EB030008EB03000838
:1000F000EB030008EB030008EB030008EB03000828
:10010000EB030008EB030008EB030008EB03000817
:10011000EB030008EB030008EB030008EB03000807
:10012000EB030008A11F0008EB030008EB03000825
:10013000EB0300080000000000000000EB030008D3
:10014000EB030008EB030008EB030008EB030008D7
:10015000EB030008EB030008EB030008EB030008C7
:10016000EB030008EB030008EB030008EB030008B7
:10017000EB030008EB030008891F000800000000E3
:1001800000000000EB030008000000000000000079
:10019000EB0300080000000000000000EB03000873
:1001A000000000000000000000000000EB03000859
:1001B000EB030008EB030008EB030008EB03000867
:1001C000EB03000800F002F800F092F80AA090E8B3
:1001D000000C82448344AAF10107DA4501D100F002
:1001E00087F8AFF2090EBAE80F0013F0010F18BF3D
:1001F000FB1A43F0010318474458000064580000FC
:10020000103A24BF78C878C1FAD8520724BF30C842
:1002100030C144BF04680C60704700000023002414
:1002200000250026103A28BF78C1FBD8520728BF06
:1002300030C148BF0B6070476E2900F05B827029A7
:1002400000F09D83662905F0E480652905F0E180D2
:10025000672905F0DE80612905F0DD8003681B0A4F
:1002600028BF41F08001692900F00882642900F06C
:100270000582752900F002826F2900F02A8378290F
:1002800000F06983E92900F0C582E42900F0C28208
:10029000F52900F0BF82EF2900F02783F82900F04C
:1002A00068830368DB0928BF41F08001632901F0FE
:1002B0006B80732901F07080E32901F07B80F329C2
:1002C00001F08080002070471FB505F09DF801F017
:1002D000CBF804000020002105F080F8401C60608D
:1002E0000020002105F064F8E0601FBD10B510BDCE
:1002F00001F08CF81146FFF7E7FF04F0C1FE01F0B2
:1003000069F903B4FFF7F2FF03BC01F0B1F9000093
:100310002C4B19680868B0E8F04F80F30988BFF3E8
:100320006F8F4FF0000080F31188704700000000CD
:1003300008480068006880F308884FF0000080F3E8
:10034000148862B661B6BFF34F8FBFF36F8F00DFC3
:1003500000BF00BF08ED00E0DFF80C00016841F4C9
:1003600070010160704700BF88ED00E0EFF3098085
:10037000BFF36F8F134B1A681EF0100F08BF20EDEC
:10038000108A20E9F04F106009B44FF0500080F35C
:100390001188BFF34F8FBFF36F8F04F039FF4FF019
:1003A000000080F3118809BC19680868B0E8F04FB4
:1003B0001EF0100F08BFB0EC108A80F30988BFF35D
:1003C0006F8F704724000020EFF305807047000016
:1003D0000948804709480047FEE7FEE7FEE7FEE7D9
:1003E000FEE7FEE7FEE7FEE7FEE7FEE70448054915
:1003F000054A064B70470000B14C0008C5010008D3
:1004000020400020204600202042002020420020E2
:1004100053EA020C00F069802DE9F04B4FF0000622
:10042000002B1FBFB3FA83F503FA05F424FA05F68F
:100430005E4012BF1643B2FA82F502FA05F4C5F126
:1004400020051EBF22FA05FC44EA0C04203556EABA
:10045000044C4FEA144418BF641C4FF000084FF0DE
:100460000009904271EB030C39D3002919BFB1FA8E
:1004700081F701FA07F6B0FA80F700FA07F6C7F13C
:1004800020071EBF20FA07FC46EA0C062037B6FB01
:10049000F4FCA7EB0507103F07F01F0BCBF120067C
:1004A0000CFA0BFB2CFA06F644BFB3460026202FAD
:1004B000A4BF5E464FF0000B5BEA060C08BF4FF08E
:1004C000010B19EB0B09ABFB027C48EB0608C01BC8
:1004D00006FB02CC0BFB03CC71EB0C01C1E70B4616
:1004E000024641464846BDE8F08B13B54FF0000088
:1004F0004FF00001AFF30080BDE81C4070470000E2
:100500001CB50C46064B7B4469460090204600F023
:100510000AF904460020694600F018F920461CBD7F
:100520004302000010B5431C02E010F8011B71B13A
:100530008107FAD14FF0013202C88C1A8C4314EAB9
:10054000C211F9D0C01A0A0603D0C01E10BDC01ACD
:1005500010BD0A0401D0801E10BD0902FCD0401E4F
:1005600010BD4FF0000200B5134694469646203960
:1005700022BFA0E80C50A0E80C50B1F12001BFF45C
:10058000F7AF090728BFA0E80C5048BF0CC05DF8C2
:1005900004EB890028BF40F8042B08BF704748BF10
:1005A00020F8022B11F0804F18BF00F8012B704784
:1005B00070477047704770B5044685690068C1068A
:1005C00001D5302600E02026C00707D070BDD4E951
:1005D000012130469047206A401C20626D1EF6D5EE
:1005E00070BD70B5044685690078C00707D170BD3D
:1005F000D4E9012120209047206A401C20626D1E12
:10060000F6D570BD09684A0501D540B27047C905E5
:10061000FCD500B2704709684A0501D5C0B27047E1
:10062000C905FCD580B2704770B50C460546012A55
:1006300005D02878800600D5EA69002302E001236E
:1006400005E05B1C934202D2E05C0028F9D1A86966
:10065000E618C01AA861286A184428622846FFF7DD
:10066000AAFF04E0D5E9012114F8010B9047B44238
:10067000F8D32846FFF7B5FF70BD00002DE9F04123
:100680000646002410687529314616A510D0FFF7DC
:10069000B9FF002802DA404213A507E031688A0753
:1006A00001D512A502E0490704D511A5012401E0F6
:1006B000FFF7B1FF00210A2206F1240709E0B0FB91
:1006C000F2FCB0FBF2F302FB1C0030307854184609
:1006D000491C0028F3D123462A463046BDE8F041A4
:1006E00000F061BA000000002D0000002B000000A7
:1006F0002000000011680268006A530501D50870E7
:100700000AE0D30501D5088006E0130603D5C21719
:10071000C1E9000200E008600120704701694A1C3D
:1007200002610878704700B58FB0CDE90131002132
:10073000059105497944CDE903101146684600F05A
:1007400029F90FB000BD0000E5FFFFFF0A6802F8BD
:10075000010B0A60704700002DE9FF5F15468A46CD
:100760000446DFF8AC80F8440027D8E900103E4684
:10077000CDE9001010E03AF816106A4602A800F021
:1007800025FE411C07D02178890603D5E269391876
:1007900091420DD80744761C2078800602D5E06986
:1007A000B84205DDAE42E6DB3AF816000028E2D199
:1007B000A069C01BA0612046FFF7FDFED8E900102C
:1007C000CDE90010002017E03AF818106A4602A898
:1007D00000F0FCFDB0F1FF3F81460BD000250DF18C
:1007E000080B05E0D4E901211BF8050090476D1CBA
:1007F0004D45F7D308F10100B0428046E4DB206AA2
:10080000384420622046FFF7ECFEBDE8FF9F000061
:10081000D65100002DE9F0418046D21D22F007029A
:100820000025D2E90002F52915A614D0011E72F1A7
:10083000000106DA0023D0EB030063EB020211A6ED
:1008400008E0D8F800108B0701D50FA602E0490791
:1008500001D50EA601251146002408F1240704E065
:1008600000F05CF930323A55641C50EA0102F7D1CD
:100870002B46324621464046BDE8F04100F093B990
:10088000000000002D0000002B00000020000000F0
:1008900030B4002100F1240408E002F00705D2087A
:1008A000303542EA4372DB086554491C52EA0305BD
:1008B000F3D10468002310A2250707D5A40600D4AD
:1008C00021B1C46901230DA2641EC46130BC00F0D3
:1008D0006AB910B5044621461068FFF79CFE02462F
:1008E0002046BDE810400023D2E7D21D22F00701C8
:1008F000D1E90023CCE70000000000003000000038
:10090000F0B40D460188090502D5214C7C4402E073
:100910001F4C7C440E34002100F1240608E002F054
:100920000F071209E75D42EA03721B097754491C5D
:1009300052EA0307F3D102780023120704D5702D81
:1009400006D009B1022311342246F0BC00F02BB9C5
:1009500001231034F8E770B504460D4621461068AF
:10096000FFF759FE024629462046BDE870400023A5
:10097000C6E7D21D22F00703D3E90023C0E70368CE
:10098000126843F0200303600823C3610023B7E724
:10099000385000002DE9F05F894604464FF0000A08
:1009A000DFF874B1FB44C0F820A02046E168884716
:1009B000002874D0252806D0D4E901219047206A68
:1009C000401C2062F1E700265F462046E168884728
:1009D0002028054607DB312D05D2781910F8200CA8
:1009E00008B10643F1E7B00701D526F00406C4F8C4
:1009F0001CA00027C4F818A02A2D09D0284604F00E
:100A000038FB38B304EB8708303DC8F8185019E0BC
:100A100059F8041B204604EB87029161E16888477E
:100A2000012F054618D1E069002820DA26F02006BB
:100A30001DE0D8F8180000EB800005EB40003038CE
:100A4000C8F818002046E1688847054604F011FB05
:100A50000028EED1012F0AD02E2D08D12046E168C2
:100A600088477F1C0546022F46F02006C4DBA0699C
:100A7000002803DA404246F00106A061F00701D0E9
:100A800026F010066C2D0BD0682D09D04C2D39D0D6
:100A90006A2D35D0742D35D07A2D33D016E038E05C
:100AA000E1682F4620468847B842054609D16C2F99
:100AB00026D04FF48060E16806432046884705460B
:100AC00004E06C2F1AD04FF4807006430DB3A5F1EB
:100AD0004100192802D8203546F400664A462946C6
:100AE000204626604E46FFF7A7FB80B101280BD0B9
:100AF000F61D26F0070000F1080956E74020E4E75C
:100B00008020D8E70020D6E706F104094DE7284603
:100B100052E7206ABDE8F09FC84F000030B5B0F141
:100B20000A024FEA900E71F100034EEA817EB0EBAB
:100B30000E0061EB91014FEA101E4EEA017E10EBB0
:100B40000E0041EB11114FEA102E4EEA016E10EB30
:100B50000E0041EB11214FEA104E4EEA014E10EB10
:100B60000E0041EB1141401841F100014FEAD00065
:100B700040EA41704FEAD10110EB80054FEA810451
:100B800044EA907444EB01046D1944EB0404521BD5
:100B9000A3414FF0000348BF0A3200D530BD401CCE
:100BA00041F1000130BD2DE9F0470D4699469246CE
:100BB000044600F124080168880604D5E06921F0A4
:100BC0001001216000E00120A84201DD471B00E088
:100BD0000027A1697A1902EB0900081AA0612078A0
:100BE000C00602D42046FFF7E6FC002608E0D4E960
:100BF00001211AF806009047206A401C761C2062EA
:100C00004E45F4DB2078C0060AD52046FFF7D3FC1A
:100C100006E0D4E9012130209047206A401C206280
:100C2000381EA7F10107F4DC07E0D4E9012118F828
:100C300005009047206A401C2062281EA5F101058E
:100C4000F3DC2046FFF7CDFC2078000602D5022019
:100C5000BDE8F0870120FBE770472DE9FF4F0C4608
:100C60001E464FF0FF378BB0D2E90001DDF86080FF
:100C70000A908A46C1F30A5505B93D460021084647
:100C80004FF00000BAF1000F00F4400005DA00EB6D
:100C900080004FF4400101EA50004FEA9059B9F149
:100CA000010F00DDB9460A9850EA4A000ED044F61A
:100CB0001050A5F2FF3545432F14B8F1000F1ED098
:100CC0007542291E1EDDC9F100021CE0B8F1010FBA
:100CD0004FF0000001D0302103E0F24305E0215441
:100CE000401CB042FBDB30460022002121540B990E
:100CF000C1F80880C1E900200FB0BDE8F08FBD1B2E
:100D00006D1CDEE74A4600DA694206A800F0F0FBF7
:100D100006AB93E8070003AB83E8070050460A9947
:100D200000F0ADFC8DE80700A0F500501F380090E2
:100D30000398002D0ADD42F21F014A4608440023B1
:100D400003A90390684600F016FF09E0A0F50050E3
:100D50004A461F38002303A90390684600F020FF8D
:100D60008DE807000004000C03D04FF0FF3041086D
:100D700000E01046B8F1000F03D0002200921546A3
:100D80001EE0751E05D4FFF7C9FE303262556D1E98
:100D9000F9D5B3460122084302D000227F1C04E0AB
:100DA0002078302801D100227F1E002A099784D0A4
:100DB0001DE0112D07DAFFF7B1FE303262556D1CD0
:100DC00050EA0102F5D1084302D00098C8B10EE004
:100DD0000021681E05E0235C625C63542254401EBF
:100DE000491C8142F7DBAB46A81B401E099000203E
:100DF00004F80B000B98099AC0F80880C0E9002B92
:100E00007AE711264FF0000857E72DE9F04F8846A2
:100E10000446D21D22F0070191B0D1E90001CDE9CD
:100E20000A0104F0FEF802460B98C00F01D02D20F5
:100E300007E02068810701D52B2002E0202101EA8C
:100E4000C000032A099001D0072A05DB034641466A
:100E5000204600F00DFB0BE12078800601D5E0690B
:100E600000E00620B8F1650F814606D0B8F1660FA4
:100E700018D0B8F1670F70D131E00020B9F1110F2F
:100E8000009001DB112301E009F101030AAA01A985
:100E90000CA8FFF7E2FEDDE90C70002609F1010560
:100EA000834647E001204B4600904FF000470AAAD6
:100EB00001A90CA8FFF7D1FEDDE90DB00C995D4644
:100EC000002610B909F101000D18B9EB050003D493
:100ED000C0F1FF3609F10105A5EB09002BE0B9F1DE
:100EE000010F01DA4FF001090020B9F1110F009054
:100EF000484601DD112300E003460AAA01A90CA817
:100F0000FFF7ABFEDDE90C704D46002683462078E6
:100F100000070AD4AB4500DA5D4601A8012D04DDC7
:100F2000411911F8011C302907D04F4502DA17F199
:100F3000040F04DA012082460FE06D1EEEE7002F59
:100F400002DCED1B3E4403E0781CA84200DD7D1C62
:100F5000B81B00F1010A4FF000472078000703D4C6
:100F6000AA4501DB4FF0FF3A0021B7F1004F0DF128
:100F700043088DF8431024D002202B23002F01DAE0
:100F80007F422D230A21021EA0F1010000DC5FB187
:100F900097FBF1FC97FBF1F201FB1C7C17460CF16F
:100FA000300C08F801CDEEE7A8F1010003702188AC
:100FB000090501D5452100E06521A0F1010800F8EF
:100FC000011C09980FA9A1EB0807FF1D00B1012022
:100FD000411901EBEA70A1693844081A401EA0616A
:100FE0002078C00602D42046FFF7E5FA099828B118
:100FF000D4E901219047206A401C20622078C00675
:1010000022D52046FFF7D7FA1EE0002E04DBB345B9
:1010100002DD01A8805D00E03020D4E90121904785
:10102000206A401C2062761CAAF101005FEA000AD7
:101030000AD100F019FAC0680168405CD4E90121C6
:101040009047206A401C2062281EA5F10105DCDCC7
:1010500007E0D4E9012118F8010B9047206A401CF1
:101060002062381EA7F10107F3DC2046FFF7B9FA2A
:10107000032011B041E600002DE9F04F04460D4673
:10108000D21D22F0070089B0D0E9009748463946C2
:1010900003F0C7FF0246F80F01D02D2307E02068B8
:1010A000810701D52B2302E0202101EAC0038DF83E
:1010B00020300BB1012000E00020032A824601D03D
:1010C000072A04DB2946204600F0D2F93FE12078C8
:1010D000800601D40D2500E0E569C7F30A560D2D01
:1010E00049DA00214FEA175B08464FF00000002F55
:1010F00000F4400007DA00EB80004FF4400100EB01
:10110000D07001EA60008115012901DD4FF0FF3147
:1011100000224FEA850CBCF1180F06D31346ACF140
:1011200018004FF08052C24003E04FF4801323FABE
:101130000CF30CF10C0CBCF1200F04D3ACF1200C1F
:1011400009FA0CF001E007FA0CF000294FF0004812
:1011500001DD18B90FE00ED140450CD319EB02099F
:101160005F4121B9404502D19F4329EA0209BBEB07
:10117000175F00D0761C2088000502D57B48784494
:1011800002E07A487844193808AA302302F80A3075
:10119000037C0AF10101002E0AF1020A53546A4647
:1011A00002DC4FF0300101E04FF031014FF0010857
:1011B0008DF8001002D0A6F2FF3603E059EA47018D
:1011C00000D06B4E002D02DC2178090704D54FF0CA
:1011D00002082E218DF80110C44600210BE0C7F350
:1011E00003433F01C35C491C6D1E02F8083005290A
:1011F00008F1010801DA002DF1DC00210CE000EB20
:101200001973491C1B786D1E082902F808304FEA33
:10121000091908F1010801DA002DF0DC21688B06BC
:1012200002D516E0A8F10108E04505DD02EB080350
:1012300013F8013C302BF5D0B8F1000F09DD02EBBB
:10124000080313F8013C2E2B03D1090701D4A8F1A0
:101250000108002D05DD3E2102F808106D1E08F181
:101260000108407C002E02F8080008F1010804DAA9
:101270002D20764202F8080002E02B2002F8080038
:101280000A214FF47A70864208F101080BDB96FBC5
:10129000F0F3303302F8083096FBF0F308F1010860
:1012A00000FB136601E0642E0CDB642096FBF0F378
:1012B000303302F8083096FBF0F308F1010800FB28
:1012C000136601E00A2E06DB96FBF1F0303002F8DF
:1012D000080008F1010896FBF1F001FB10603030C6
:1012E00002F80800A16908F1010808EB050202EB09
:1012F0000A00081AA0612078C00602D42046FFF731
:101300005AF9216A08AE01EB0A00206204E0D4E930
:10131000012116F8010B9047BAF1010AF7D22078A3
:10132000C00602D52046FFF746F96E4609E016F8DA
:10133000010B3E280FD0D4E901219047206A401CC0
:101340002062B8F10108F2D22046FFF74AF909B04D
:101350000320BDE8F08F206A2844206203E0D4E92E
:101360000121302090476D1EEBD3F8E712480000B2
:1013700002FCFFFF10B5436913B1AFF3008001E039
:10138000FFF752F9012010BD127800F124010A7014
:1013900000224A700122EDE711684FF0FF32E9E7C1
:1013A00010B5436913B1AFF3008001E0FFF7D4F942
:1013B000012010BD128800F1240182840022C28421
:1013C0000122EDE711684FF0FF32E9E770B51646EC
:1013D0000C46054600F040F8036893F80101012827
:1013E00006D0FF2C0FD8185D68B101202C7070BD9D
:1013F000D3F807013246214603F207130344284677
:10140000BDE8704018474FF0FF3070BD754600F0E2
:10141000EBF8AE4605006946534620F007008546C6
:1014200018B020B5FEF7E2FFBDE820404FF00006FF
:101430004FF000074FF000084FF0000B21F00701BC
:10144000AC46ACE8C009ACE8C009ACE8C009ACE8FF
:10145000C0098D467047000010B500F005F8001D6A
:1014600010BD00BF793F000000487047DC3F0020FE
:101470002DE9F0411F46044603260168072A01F4BE
:10148000006004DB08B116A505E016A503E008B16D
:1014900015A500E015A521F010002060A069C01E70
:1014A000A0610FB1401EA0612046FFF784F84FB144
:1014B000D4E9012138469047206A401C2062C01CB4
:1014C000206206E0206AFAE7D4E9012115F8010B51
:1014D0009047761EF8D22046FFF783F8BDE8F081EA
:1014E0004E414E006E616E00494E4600696E6600C8
:1014F0002DE9F047814616468AB0354878440DC834
:101500008DE80D0032487844801C03AC0DC884E897
:101510000D0041F69B300844372190FBF1F290FB1F
:10152000F1F5A5F1800501FB12041B3C02D56442D4
:10153000012000E00020DFF898A080460027FA4450
:10154000AAF1BE0A0EE0E0070AD03246684607EB71
:10155000470101230AEB810100F022FB8DE807001F
:1015600064107F1C002CEED1194F7F44AE3F19E070
:10157000E80715D007EB04100DF1180A90E80E00EB
:101580008AE80E00C068F04201D1981908903246EE
:10159000012306A903A800F003FB03AB83E80700BF
:1015A0006D10641C002DE3D14FF0010332466946F3
:1015B000B8F1000F03A802D000F0DDFA01E000F05E
:1015C000EFFAC9E90001C9F808200AB0BDE8F087C0
:1015D0002445000010B50446AFF300802046BDE866
:1015E0001040FEF78EBE000000487047BC3F002050
:1015F0004FF0013C50F8042B51F8043B9A4221D1A2
:10160000A2EB0C03934313EACC1317D150F8042B2D
:1016100051F8043B9A4215D1A2EB0C03934313EA11
:10162000CC130BD150F8042B51F8043B9A4209D14A
:10163000A2EB0C03934313EACC13DBD04FF0000072
:10164000704700BFD01A01BAB1FA81F101F0180158
:1016500022FA01F0CB40C1F12001DBB2C0B2C01AC6
:101660002CFA01F3D11A914311EAC311E6D1704764
:1016700001491820ABBEFEE72600020070475FEA72
:10168000400C08BF91F0000F4FEA8C234FEAC122B3
:1016900043EA51514FEA1C5018BF00F5F0404FEAA1
:1016A000300018BF41F000415FEA6C5C00F0298017
:1016B000BCF1FF3F08BF40F080407047130C06BFED
:1016C00012044FF0100C4FF0000C130E04BF120266
:1016D0000CF1080C130F04BF12010CF1040C930F52
:1016E00004BF92000CF1020CD30F04BF52000CF1A6
:1016F000010C11464FF00002A0F11F00A0EB0C00FE
:10170000704711F0004F08BF704731F000413FF4BF
:10171000D5AF0B0C06BF09044FF0100C4FF0000CB6
:101720000B0E04BF09020CF1080C0B0F04BF0901DA
:101730000CF1040C8B0F04BF89000CF1020CCB0FD1
:1017400004BF49000CF1010CCCF12003A0EB0C000C
:1017500022FA03F302FA0CF241EA030100F101005C
:10176000704720F07F4C80EA030023F07F47ACEB0A
:10177000070303F57C5300F0004003F1FF032DE95C
:1017800080494FEA154B09B44FEA144325EA0B4E42
:1017900024EA03480FF2042606EB132749083E7893
:1017A0005FEA320203FB0667C7F5000707FB06F690
:1017B0004FEA54374FEAD64606F1020607FB066C9D
:1017C000CCF1005C4FEA1C472CEA074C07FB06F4FF
:1017D0000CFB06F504EB15464FEA961634BF0020C5
:1017E0004FF000404FEAD13706FB07FC4FEA1C4C94
:1017F0000CFB0BF7D21B03FB0CF761EB07010CFB97
:101800000EF7B0EB074072EB17420CFB08F734BF42
:10181000A2EB0742B2EB074261EB17414FEA0C44DF
:101820004FEA910706FB07FC4FEA1C4C0CFB0BF739
:10183000B0EBC74072EB573203FB0CF734BFA2EB9F
:10184000C742B2EBC74261EB57310CFB0EF7B0EB6E
:10185000C70072EB57720CFB08F734BFA2EBC7024C
:10186000B2EBC70261EB5771039F4FEA816141EA16
:10187000921104EBCC044FEAD1374FEA826206FBA7
:1018800007FC42EA90124FEA80604FEA1C4C0CFBC6
:101890000BF7D21B03FB0CF761EB07010CFB0EF7F8
:1018A000B0EB074072EB17420CFB08F734BFA2EB1A
:1018B0000742B2EB074261EB17414FEA8C554FEA02
:1018C000910704EB9C2406FB07FC4FEA1C4C0CFB25
:1018D0000BF7B0EBC74072EB573203FB0CF734BF8A
:1018E000A2EBC742B2EBC74261EB57310CFB0EF7DC
:1018F000B0EBC70072EB57720CFB08F734BFA2EBDA
:10190000C702B2EBC70261EB577115EB4C254FEAEA
:10191000816141EA92114FEA82624FEAD13742EA8D
:10192000901206FB07FC44F100044FEA80604FEA86
:101930001C4C0CFB0BF7D21B03FB0CF761EB0701F4
:101940000CFB0EF7B0EB074072EB17420CFB08F7ED
:1019500034BFA2EB0742B2EB074261EB174115EB34
:101960001C154FEA813141EA92414FEA823242EA44
:1019700090424FEA80304FEA0C7644F1000448EA86
:1019800003434EEA0B484FF0000EB2EB080C71EB2C
:10199000030724BF624639464EEB0E0E4FF0000B94
:1019A0000018524149414BEB0B0BB2EB080C71EBA9
:1019B00003077BF1000B24BF624639464EEB0E0E47
:1019C0004FF0000B0018524149414BEB0B0BB2EBAF
:1019D000080C71EB03077BF1000B24BF624639460C
:1019E0004EEB0E0E51EA020718BF46F0010616EB49
:1019F0000E7655F1000254F1000103D5BDE88901CE
:101A0000BDE80088BDE88901BDE80048B61952412B
:101A100041EB0101A3F10103704780807F7E7D7C53
:101A20007B7A7978777676757473727171706F6E70
:101A30006E6D6C6C6B6A6A6968686766666564641B
:101A4000636362616160605F5F5E5E5D5D5C5C5BA5
:101A50005B5A5A5959585857575656555555545414
:101A6000535352525251515050504F4F4F4E4E4D72
:101A70004D4D4C4C4C4B4B4B4A4A4A4949494848BE
:101A800048474747474646464545454444444443FE
:101A900043434342424242414141002B9C4630D4A1
:101AA00077002BD01CB54FEA370703B44FF0100076
:101AB0004FF01001BAF1000F06D0BCF1000FDCBFEF
:101AC00040F0080040F008014FF000000FBCBDE8F6
:101AD00010400BF1010BBBF1010F08BF5FEA1707C4
:101AE00022BF12F1010211F101014FF0004143F157
:101AF000000300F0004043EA00007047F9D35708A4
:101B0000D0E746EA064613F1400F4FEA16461FDDBE
:101B100013F1200FDFBF16430A46002120335B423A
:101B2000BED0C3F1200746EA064602FA07F74FEA9D
:101B3000164646EA0706C3F1200722FA03F201FA25
:101B400007F721FA03F14FF0000342EA0702A7E783
:101B500046EA020646EA06464FEA164646EA010605
:101B6000BCBF46EA0646360C4FF000034FF00002B9
:101B70004FF0000194E72DE9804C9A46934670B4EB
:101B800091E8380007C831EA400C48BF34EA430CFA
:101B900003D5FFF7E6FDFFF780FFF0BCBDE8008C42
:101BA0002DE9804C9A46934670B491E8380007C8F6
:101BB00010F0804F08BF13F0804F03D100F005F8FC
:101BC000FFF76BFFF0BCBDE8008C20F07F4780EA98
:101BD000030023F07F4C07EB0C03A3F57C5300F0CC
:101BE0000040A3F1FE0392F0000F00F0B38095F0E7
:101BF000000F00F077802DE901494FEA11404FEACC
:101C0000144621EA004800FB06FC24EA064708FBCC
:101C100006F607FB08F800FB07F718EB06484CEB45
:101C2000164C4FEA124B18EB07484FEA15464CEB9F
:101C3000174022EA0B4E0BFB06FC25EA06470EFB7B
:101C400006F607FB0EFE0BFB07F71EEB064E4CEBF2
:101C5000164C4FF000061EEB074E4CEB174B18EBE3
:101C60000B0840F1000018EB0E0B58EB000840F198
:101C700000008F1A4FF000013CBFC943661B14BF20
:101C8000B5EB040C00213CBFC943F61B4FEA1744D7
:101C90004EEA8E0E27EA04454FEA1C4704FB076212
:101CA0002CEA074C05FB07F70CFB05F604FB0CFCC4
:101CB00016EB074642EB174216EB0C4642EB1C4272
:101CC0001BEB060658EB0202414146EA9E0601D58F
:101CD000BDE80189B619524141EB0101A3F10103AD
:101CE000BDE801894FEA14454FEA114724EA054649
:101CF00021EA074C05FB07F406FB07F70CFB06F18E
:101D000005FB0CFC11EB074144EB17444FEA12476B
:101D100011EB0C4144EB1C4422EA074C05FB07F293
:101D200006FB07F70CFB06F605FB0CFC16EB07465B
:101D300042EB174216EB0C4642EB1C456A1854F175
:101D4000000148BF7047B619524141EB0101A3F1B0
:101D50000103704795F0000F37D04FEA11424FEA68
:101D6000144721EA024624EA074C02FB07F106FB6E
:101D700007F70CFB06F402FB0CFC14EB074441EBE9
:101D800017414FEA154714EB0C4441EB1C4125EA7F
:101D9000074C02FB07F506FB07F70CFB06F602FBF8
:101DA0000CFC16EB074645EB174516EB0C4645EBCE
:101DB0001C42121951F1000148BF7047B619524137
:101DC00041EB0101A3F1010370474FEA14454FEACB
:101DD000114724EA054621EA074C05FB07F106FBFB
:101DE00007F70CFB06F24FF0000605FB0CFC12EBAC
:101DF000074241EB174112EB0C4251EB1C4148BF2B
:101E00007047921841EB0101A3F101037047FEE70F
:101E100070B54FF400512A4801F0AAFA0100294890
:101E2000294C4FF0010505D00022202101F0A5FA30
:101E3000657070BD0122202101F09FFA60780128B1
:101E4000F7D143F6AE412148FEF78BFBA1881F482E
:101E500002F0AEFD1D4800264FF6FF72A17811B1C9
:101E600001290BD012E0E188435CFF2B0ED1014425
:101E70004978D8290AD1A570257007E0E188435C2C
:101E8000FF2B03D101444978D92908D0E188914238
:101E900013D3032020700EA003F080F905E0E08842
:101EA000801CE08002202070A670E28807490E485E
:101EB00002F0E0FAE680667070BD491CE180CDE773
:101EC00000080240000002400C00002060000020DA
:101ED0004661696C206361707475726520696D611B
:101EE0006765200D0A000000C83D002010B5806B1A
:101EF000816C496D022902D0012180F8351000F073
:101F0000B9F810BD10B5846BA26BA06C0168CAB1A2
:101F10000A68A36B02F40022DB0706D12AB1C96864
:101F2000E26B01EBC201002207E00A68120319D438
:101F30000969E26B01EBC201012200F084FAA06B97
:101F4000401E0EE00868000302D5606CC86009E01E
:101F50000868000306D4E26B606C00EB8200086145
:101F6000206CA063A06B216C88420BD12068C168F3
:101F700041F00101C16020680068800702D501209E
:101F800084F8350010BD0000014800F075B800006D
:101F9000103D0020014800F079BF00006C3E002099
:101FA000014800F073BF00000C3E002001681823B8
:101FB000CAB2103AB2FBF3F2054B6FF30901032AE0
:101FC0009B5CC36500D9091D816508467047000008
:101FD0002059000810B5014600208B698A6A4FF02D
:101FE000C07453B1B3F5005F15D072B1012A0CD0A3
:101FF000022A0AD0032A09D104E01AB1012A06D024
:10200000022A03D1C96AC90100D5012010BDC96ADD
:10201000A142FAD010BD002AF7D0012AF2D0022A3C
:10202000F3D0032AF3D010BD10B504686360836851
:10203000402B036803D099600068C26010BD9A60AD
:102040000068C16010BD30B50468256825F480259E
:102050002560046863608368402B036803D099603F
:102060000068C26030BD9A600068C16030BD7047D2
:1020700072B6FEE7704770472DE9F04104460068EC
:102080000569224F69074FF004060BD54661E06CE5
:1020900040F00200E06484F83560A06C0765A06C35
:1020A00000F0E1FEA8070DD5216802204861E06C30
:1020B00040F00100E06484F83560A06C0765A06C16
:1020C00000F0D1FEE80605D52168102048612046C1
:1020D00000F06AF8280705D52168082048612046E5
:1020E00000F0B0F9E8070FD020680168890703D530
:1020F000C16821F01E01C1602068C16821F00101A2
:10210000C1602046FFF7B7FFBDE8F081ED1E000873
:1021100070B5040004D094F83500002510B109E032
:10212000012070BD84F83450204600F03FF820466E
:1021300000F03CF8022084F8350020680168194A54
:1021400011400160616960680843D4E903121143DA
:102150000843A1680843A1690843216A0843616AEA
:102160000843A16A0843E16A0843216B08432168D8
:102170000A68104308606068102808D1A17FA08B0E
:1021800061F31F40E17F40EA0160216888612068B7
:10219000C16841F01E01C160E564012084F835008A
:1021A000002070BD07F0E0FF70470000F0B587B079
:1021B000064614216846FEF7D4F93549306888424E
:1021C00064D134480025016841F0010101600068D4
:1021D000304900F00100091F0590086840F0010037
:1021E0000860086800F001000590086840F00400ED
:1021F0000860086800F004000590086840F00200DC
:1022000008600868022400F00200059050208DE864
:1022100031000D27CDE9035769461F4800F0BAFF8A
:102220004FF43C608DE83100CDE9035769461B4807
:1022300000F0B0FF4FF470708DE83100CDE9035726
:102240006946174800F0A6FF174C164820604FF06B
:102250000070C4E90105C013C4E903508000606147
:102260008000A0618011C4E907052046656200F086
:10227000DDFE08B1FFF7FCFEB464002205214E200C
:10228000A66301F085FB4E2001F074FB07B0F0BDA2
:1022900000000550343802400000024000080240AF
:1022A00000040240286402400C3E0020F8B50446B9
:1022B00090F83400012827D0012084F8340002254A
:1022C00084F8355025682E6846F480462E602568CF
:1022D0002E6826F002062E6025682E680E432E60BA
:1022E000A56C1E49E963A66C1D4DF564A66C00251E
:1022F0003565A56306042564B34207D22168A06C46
:10230000283100F0FDFE1FE00220F8BDA76C7964C3
:10231000A063E363626405E0E06B4008E063A06BE8
:102320004000A063E06BB042F6D2A06B801EA063B9
:10233000A06B2064E06B02EB8003E06B00902168EF
:10234000A06C283100F086F82068016841F0010196
:10235000016084F834500020F8BD0000051F00081B
:10236000ED1E0008F8B504461A480E210025006845
:10237000B0FBF1F0009094F83400012827D001263A
:1023800084F83460022084F835002068016821F068
:1023900001010160206800994A1E009205D2E16C9B
:1023A00041F02001E164032502E00168C907F2D190
:1023B000016821F480410160A06C343400F00AFD12
:1023C000A069A0616670002020702846F8BD022038
:1023D000F8BD00002000002018B519490E22096838
:1023E000B1FBF2F1009190F834100022012907D0DE
:1023F000012380F8343090F83510022902D019E01A
:10240000022018BD052180F8351001680C6824F001
:1024100001040C6000994C1E009407D2C16C41F07D
:102420002001C16480F83530032203E001680968A7
:10243000C907EFD1002180F83410104618BD000004
:10244000200000207047006812B101610020704731
:10245000C160FBE72DE9F84F044600200A9D00907B
:10246000A0684FF4807A802817D0E06BB8B1606C18
:10247000A8B1E06C98B194F83400012813D0012081
:1024800084F8340094F835600020012E0DD084F8D3
:10249000340002200090BDE8F88F504600E0402054
:1024A00060650120F7E70220F5E7022684F8356031
:1024B00060652068066846F480260660206803612F
:1024C0002B462046FFF7B0FDDFF800844FF4006B89
:1024D0004FF4001EFE48FD4AFD4BFC4DFC4EFB4FE9
:1024E000DFF8ECC3DFF8E4932168483A603318352D
:1024F0001836303F0CF1780C09F13009414534D9D8
:10250000814205D0914203D0994201D0A94201D124
:10251000202125E0B14205D0B94203D0614501D068
:10252000494501D159461BE0DFF8A48308F1300882
:10253000414511D0DFF89483A8F1180841450BD02C
:10254000DFF88C8308F19008414505D0DFF87C83E3
:1025500008F14808414501D1714601E04FF00061A2
:10256000DFF86883A8F14C0839E0DFF8648308F1EC
:10257000A808414536D9814205D0914203D09942FD
:1025800001D0A94201D1202125E0B14205D0B942B4
:1025900003D0614501D0494501D159461BE0DFF820
:1025A000308308F13008414511D0DFF82083A8F1CD
:1025B000180841450BD0DFF8188308F19008414511
:1025C00005D0DFF8088308F14808414501D171467C
:1025D00001E04FF00061DFF8F482A8F15008C8F87C
:1025E000001072E0DFF8E88208F14808414536D96A
:1025F000814205D0914203D0994201D0A94201D134
:10260000202125E0B14205D0B94203D0614501D077
:10261000494501D159461BE0DFF8B48208F1300882
:10262000414511D0DFF8A482A8F1180841450BD02C
:10263000DFF89C8208F19008414505D0DFF88C82D4
:1026400008F14808414501D1714601E04FF00061B1
:10265000DFF87C82A8F11008C8F80C1035E0814240
:1026600005D0914203D0994201D0A94201D1202145
:1026700025E0B14205D0B94203D0614501D04945BA
:1026800001D159461BE0DFF8488208F13008414586
:1026900011D0DFF83882A8F1180841450BD0DFF8D7
:1026A000308208F19008414505D0DFF8208208F11A
:1026B0004808414501D1714601E04FF00061DFF863
:1026C0001082A8F11008C8F80810DFF8008221680D
:1026D0004FF4806B4FF4801E414534D9814205D0C0
:1026E000914203D0994201D0A94201D1102125E0A5
:1026F000B14205D0B94203D0614501D0494501D16D
:1027000059461BE0DFF8C88108F13008414511D077
:10271000DFF8B881A8F1180841450BD0DFF8B08187
:1027200008F19008414505D0DFF8A08108F148087C
:10273000414501D1714601E04FF08061DFF88C81A5
:10274000A8F14C0839E0DFF8888108F1A808414574
:1027500036D9814205D0914203D0994201D0A94295
:1027600001D1102125E0B14205D0B94203D0614525
:1027700001D0494501D159461BE0DFF8548108F1E9
:102780003008414511D0DFF84481A8F118084145CF
:102790000BD0DFF83C8108F19008414505D0DFF807
:1027A0002C8108F14808414501D1714601E04FF004
:1027B0008061DFF81881A8F15008C8F8001072E0B5
:1027C000DFF80C8108F14808414536D9814205D02F
:1027D000914203D0994201D0A94201D1102125E0B4
:1027E000B14205D0B94203D0614501D0494501D17C
:1027F00059461BE0DFF8D88008F13008414511D078
:10280000DFF8C880A8F1180841450BD0DFF8C08078
:1028100008F19008414505D0DFF8B08008F148087C
:10282000414501D1714601E04FF08061DFF8A080A1
:10283000A8F11008C8F80C1035E0814205D091428B
:1028400003D0994201D0A94201D1102125E0B14223
:1028500005D0B94203D0614501D0494501D159465F
:102860001BE0DFF86C8008F13008414511D0DFF83B
:102870005C80A8F1180841450BD0DFF8548008F1BE
:102880009008414505D0DFF8448008F148084145EB
:1028900001D1714601E04FF08061DFF83480A8F18A
:1028A0001008C8F80810DFF8248021684FF4007B76
:1028B0004FF4002E414534D9814205D0914203D0D6
:1028C000994201D0A94205D1082125E0586402406F
:1028D00010600240B14205D0B94203D0614501D039
:1028E000494501D1594617E0DFF8E08441450FD052
:1028F000DFF8DC8441450BD0DFF8D08408F16008B4
:10290000414505D0DFF8C88408F16008414501D190
:10291000714601E04FF00071DFF8B484A8F134088B
:1029200035E0DFF8A88408F17808414532D98142C2
:1029300005D0914203D0994201D0A94201D108218A
:1029400021E0B14205D0B94203D0614501D04945EB
:1029500001D1594617E0DFF8748441450FD0DFF804
:10296000708441450BD0DFF8648408F1600841456C
:1029700005D0DFF85C8408F16008414501D171465B
:1029800001E04FF00071DFF84884A8F13808C8F87A
:1029900000106AE0DFF8348408F11808414532D9A4
:1029A000814205D0914203D0994201D0A94201D180
:1029B000082121E0B14205D0B94203D0614501D0E0
:1029C000494501D1594617E0DFF8008441450FD051
:1029D000DFF8FC8341450BD0DFF8F08308F1600895
:1029E000414505D0DFF8E88308F16008414501D191
:1029F000714601E04FF00071DFF8D083A8F1400884
:102A0000C8F80C1031E0814205D0914203D09942C0
:102A100001D0A94201D1082121E0B14205D0B9423B
:102A200003D0614501D0494501D1594617E0DFF88F
:102A30009C8341450FD0DFF8988341450BD0DFF8E8
:102A40008C8308F16008414505D0DFF8848308F1E4
:102A50006008414501D1714601E04FF00071DFF897
:102A60006C83A8F14008C8F80810DFF86483216877
:102A700008F118084FF4802B4FF0807E41452FD984
:102A8000814205D0914203D0994201D0A94201D19F
:102A9000042120E0B14205D0B94203D0614501D004
:102AA000494501D1514616E0DFF8208341450FD05A
:102AB000DFF81C8341450BD0DFF8108308F1600874
:102AC000414505D0DFF8088308F16008414501D190
:102AD000594600E07146DFF8F882A8F1340834E086
:102AE000DFF8E88208F17808414531D9814205D004
:102AF000914203D0994201D0A94201D1042120E0A2
:102B0000B14205D0B94203D0614501D0494501D158
:102B1000514616E0DFF8B48241450FD0DFF8B082AD
:102B200041450BD0DFF8A48208F16008414505D08B
:102B3000DFF89C8208F16008414501D1594600E068
:102B40007146DFF88C82A8F13808C8F8001068E0F8
:102B5000DFF8788208F11808414531D9814205D063
:102B6000914203D0994201D0A94201D1042120E031
:102B7000B14205D0B94203D0614501D0494501D1E8
:102B8000514616E0DFF8448241450FD0DFF840821D
:102B900041450BD0DFF8348208F16008414505D08B
:102BA000DFF82C8208F16008414501D1594600E068
:102BB0007146DFF81882A8F14008C8F80C1030E020
:102BC000814205D0914203D0994201D0A94201D15E
:102BD000042120E0B14205D0B94203D0614501D0C3
:102BE000494501D1514616E0DFF8E08141450FD05B
:102BF000DFF8DC8141450BD0DFF8D08108F16008B7
:102C0000414505D0DFF8C88108F16008414501D190
:102C1000594600E07146DFF8B481A8F14008C8F8D1
:102C20000810DFF8AC81216808F118084FF4803AE9
:102C30004FF4800B414527D9814205D0914203D002
:102C4000994201D0A94201D101201AE0B14205D038
:102C5000B94203D0614501D0494501D1402010E07F
:102C60005A4881420AD05A48814207D057486030BA
:102C7000814203D056486030814201D1504600E085
:102C80005846534934392CE0DFF8408108F1780880
:102C9000414528D9814205D0914203D0994201D0C3
:102CA000A94201D101201AE0B14205D0B94203D0B6
:102CB000614501D0494501D1402010E0434881429F
:102CC0000AD04348814207D040486030814203D057
:102CD0003F486030814201D1504600E058463C49AF
:102CE0003839086056E0DFF8E48008F118084145FB
:102CF00028D9814205D0914203D0994201D0A942FE
:102D000001D101201AE0B14205D0B94203D061459A
:102D100001D0494501D1402010E02C4881420AD021
:102D20002B48814207D029486030814203D028488F
:102D30006030814201D1504600E058462349403975
:102D4000C86027E0814205D0914203D0994201D06A
:102D5000A94201D101201AE0B14205D0B94203D005
:102D6000614501D0494501D1402010E0174881421A
:102D70000AD01748814207D014486030814203D0FE
:102D800013486030814201D1504600E058460F4957
:102D9000403988602068016841F0160101602068B0
:102DA000416941F080014161206C08B9A06C20B1FB
:102DB0002068016841F0080101602068016841F065
:102DC000010101600098BDE8F88F000040600240FA
:102DD000406402402DE9F0410446876D00F0D2FACC
:102DE000064694F835000025022806D0802060654C
:102DF00084F834500120BDE8F0812068016821F09A
:102E0000160101602068416921F080014161206C58
:102E100008B9A06C20B12068016821F008010160A8
:102E20002068016821F0010101600CE000F0AAFABD
:102E3000801B052807D920206065032084F8350011
:102E400084F83450D7E720680068C007EED194F8C2
:102E50005C103F208840B860012084F8350084F879
:102E600034500020C7E790F83510022903D08021A4
:102E7000416501207047052180F835100068016820
:102E800021F0010101600020704700002DE9F843A6
:102E900004464FF00009CDF8009063484FF41651F6
:102EA000A56D0068B0FBF1F72E6894F85C1008205F
:102EB00000FA01F131420FD021680A6852070BD5A0
:102EC0000A6822F004020A6094F85C108840A86046
:102ED000606D40F00100606594F85C104FF00108EF
:102EE00008FA01F0304208D021684969090604D582
:102EF000A860606D40F00200606594F85C100420EA
:102F00008840304208D021680968890704D5A86044
:102F1000606D40F00400606594F85C1010208840FB
:102F2000304218D021680968090714D5A8602068C4
:102F30000168490304D50068000308D5A16C07E0C7
:102F40000168C90503D4016821F008010160216C02
:102F500009B12046884794F85C1020208840304210
:102F600031D021680968C9062DD5A86094F83500CC
:102F700005282068016806D0490347D5006800038A
:102F80001DD4616C1CE021F01601016020684169CC
:102F900021F080014161206C08B9A06C20B120684B
:102FA000016821F00801016094F85C103F2088401E
:102FB000A86084F8358084F83490216D1FE0E16BBF
:102FC00009B120468847606D00282BD0606DC0078E
:102FD00014D0052084F835002068016821F0010133
:102FE00001600098401C0090B84203D82068006837
:102FF000C007F6D184F8358084F83490E16C00295C
:1030000010D001B02046BDE8F04308470168C9056B
:10301000D5D4016821F01001016084F8358084F86E
:103020003490CCE7BDE8F883200000202DE9F04182
:10303000044600F0A7F906465CB1022084F835008A
:10304000002584F834502068016821F001010160F6
:103050000DE00120BDE8F08100F094F9801B052807
:1030600005D920206065032084F83500F2E7206848
:103070000068C007F0D12268116820480140D4E9F7
:1030800001031843D4E903363343184363691843F3
:10309000A3691843E3691843236A18430843616A24
:1030A000042903D1D4E90B131943084310602068A5
:1030B0004069666A20F0070130460E430127042864
:1030C0000CD1A06A0643E06A40B12046FEF782FFB9
:1030D00020B14020606584F83570BAE72068466109
:1030E0002046FEF763FF94F85C203F219140816009
:1030F000656584F835700020ACE700003F8010F073
:103100002DE9F0410446866D90F834000025012831
:103110000DD0012084F8340094F835700020012F80
:1031200007D084F8340002252846BDE8F08102204B
:10313000FBE7022784F8357060652046FEF783FFC1
:1031400094F85C103F208840B0602068016841F02E
:1031500016010160206C20B12068016841F008016F
:1031600001602068016841F001010160DCE70000B6
:1031700070B5044600F006F90546601C02D004480C
:103180000078044400F0FEF8401BA042FAD370BD62
:10319000140000202DE9F84FDFF8ACA10022012433
:1031A00003254FF00F090AF1040BAAF1040E00BF2A
:1031B0000B6804FA02F63340B3426ED10F7907F080
:1031C0000307012F01D0022F16D187684FEA42086A
:1031D00005FA08FC27EA0C07D1F80CC00CFA08FC29
:1031E0004CEA070CC0F808C04768B7430E79C6F32D
:1031F000001696403E4346600E79F643B6070AD065
:10320000C6684FEA420C05FA0CF7BE438F6807FA0E
:103210000CF73743C7600E7906F00306022E10D173
:10322000D60800EB8608D8F8206057074FEAD76C1D
:1032300009FA0CF7BE430F6907FA0CF73743C8F8D1
:10324000207006684FEA420C05FA0CF7BE430F796E
:1032500007F0030707FA0CF7374307604E6816F4C8
:10326000403F6BD0394E376847F480473760366847
:1032700022F0030706F480460096354E07EB060C55
:10328000DCF8086897074FEA177809FA08F7BE4391
:10329000304FB84202D100271FE04FE02E4FB84216
:1032A00001D1012719E02D4FB84201D1022714E0C6
:1032B0002B4FB84201D103270FE02A4FB84201D16A
:1032C00004270AE0284FB84201D1052705E0274F1F
:1032D000B84201D1062700E0072707FA08F737436D
:1032E000CCF80878DAF800605746D1F804C09E435D
:1032F0005FEACC2C00D51E433E60DBF800605F46E1
:10330000D1F804C09E435FEA8C2C00D51E433E607A
:10331000DEF800607746D1F804C09E435FEA8C3C3B
:1033200000D51E433E60084F083F3E68D1F804C0F8
:103330009E435FEACC3C00D51E433E60521C102ADF
:10334000FFF436AFBDE8F88F083C01404438024036
:10335000003001400000024000040240000802402A
:10336000000C02400010024000140240001802400D
:103370000069084000D0012070470AB181617047A0
:103380000904FBE701488068704700001400002032
:1033900070B5040025D094F83D00002520B984F8CC
:1033A0003C50204600F03EFA242084F83D0020687E
:1033B000016821F0010101602068016841F40041C9
:1033C00001602068016821F40041016000F0E4FB25
:1033D0004D4A6168914201D84C4900E04C4988420D
:1033E00001D2012070BD4B492368B0FBF1F15E684A
:1033F00026F03F060E435E606368934206D94FF4A1
:10340000967359434FF47A73B1FBF3F12368491C67
:103410001E6A26F03F06314319626168914210D856
:103420004900401EB0FBF1F2521CC2F30B02042A09
:1034300001D2042022E0B0FBF1F0401CC0F30B00ED
:103440001CE0A268F2B301EBC10303EB0116431EBB
:10345000B3FBF6F35B1C43F480431B0549D092B3E6
:1034600001EBC10202EB0111401EB0FBF1F0401C68
:10347000C0F30B0040F4804040F400402168CA696A
:103480004CF6FF739A431043C861D4E90710014317
:103490002068026822F0C00211430160D4E90301F0
:1034A00001432068826848F2FF339A4311438160E8
:1034B000D4E9050108432168CA6822F0FF021043DD
:1034C000C86001E00EE016E02068016841F00101EB
:1034D00001602564202084F83D00256384F83E5077
:1034E000002070BD01EB4106431EB3FBF6F35B1CED
:1034F000B3E70120C2E701EB4101401EB0FBF1F050
:10350000401CC0F30B00B7E7A086010080841E00BA
:1035100000093D0040420F002DE9F84F1F4690463C
:103520008A460446DDF82890FFF72CFF054694F8FC
:103530003D00202875D1192301226C4920460095B1
:1035400001F0E2F80028F5D194F83C00012868D099
:10355000012084F83C0020680168C90703D1016894
:1035600041F0010101602068016821F400610160FF
:10357000222084F83D00102084F83E0000262664B6
:10358000C4F824806785608D20855948E0622B4609
:103590004A465146204600F0CDFF002878D1208DC4
:1035A000544F68B1012814D002282068016816D051
:1035B00041F480610160206841698069009087E082
:1035C0002068416981690091016841F400710160DE
:1035D0007EE02068016821F480610160F0E721F459
:1035E000806101602068016841F40061E2E703281E
:1035F00048D801280AD0022814D04B460022394668
:103600002046009501F080F8D8BB27E02A464946BD
:10361000204601F0F8F8A0BB20680069616A0870D4
:103620004DE061E04B46002239462046009501F00E
:103630006BF830BB2068016841F4007101602068BC
:103640000069616A0870606A401C6062218D491ED1
:103650002185618D491E618521682EE02068016801
:1036600021F48061016020680069616A0870606A05
:10367000401C6062208D401E2085608D401E60854C
:10368000D0E705E02A464946204601F0BCF810B1D3
:103690000120BDE8F88F20680069616A0870606ADF
:1036A000401C6062218D491E2185618D491E618506
:1036B00021684A69D24352070AD409690170606AD5
:1036C000401C6062208D401E2085608D401E6085FC
:1036D000208D00288BD1202084F83D0084F83E60A6
:1036E00084F83C600020D4E70220D2E702001000FA
:1036F0000000FFFF040001002DE9F84F1F4690462F
:103700008A460446DDF82890FFF73CFE054694F80B
:103710003D0020287FD119230122404920460095F1
:1037200000F0F2FF002876D194F83C00012872D016
:10373000012084F83C0020680168C90703D10168B2
:1037400041F0010101602068016821F4006101601D
:10375000212084F83D00102084F83E0000262664D5
:10376000C4F824806785608D20852D48E0622B4653
:103770004A465146204600F053FF90B920684169FF
:103780008069009036E02A464946204601F06EF8EE
:1037900050B1206C042804D12068016841F4007104
:1037A00001600120BDE8F88F606A21680078086137
:1037B000606A401C6062618D491E6185218D491ED1
:1037C00089B2218522685369DB435B070BD451B171
:1037D00000781061606A401C6062608D401E6085E8
:1037E000208D401E20852A464946204600F066FF6F
:1037F0000028CED1208D0028C5D154F83D0B01689A
:1038000041F400710160202004F81E09E677667714
:103810000020C7E7FFE70220C4E700000200100015
:103820000000FFFFF0B587B0044614216846FCF79E
:1038300098FE1D492068884233D11C480024016845
:1038400041F002010160016801F002010591016887
:1038500041F0040101600068122500F004000590A9
:103860004FF48060CDE9000502AA0326042782E810
:10387000D00069460E48FFF78DFCB802CDE900057F
:1038800002AA694682E8D0000A48FFF783FC07488D
:103890001030016841F480010160006800F480008C
:1038A000059007B0F0BD00000058004030380240DD
:1038B0000004024000080240024881680278114476
:1038C00081607047140000200B4810B5016841F476
:1038D00000710160016841F480610160016841F498
:1038E00080710160032000F073F80F2000F006F8EB
:1038F00000F024F8002010BD003C024070B50D4DD2
:1039000004464FF47A712878B1FBF0F00A4909684F
:10391000B1FBF0F000F078FB48B9102C07D2002280
:103920002146501E00F034F800206C6070BD01206C
:1039300070BD000014000020200000200C4882B060
:10394000016841F480410160006800F4804000900B
:103950000748001F016841F08051016000680022A3
:1039600000F0805000900F21901E02B000F010B8BF
:1039700044380240002809DB00F01F020121914079
:103980004009800000F1E020C0F8001170470000FD
:10399000F0B40E4B1B680C46C3F30223C3F10705BA
:1039A000042D00D90425191D072901D2002300E0A8
:1039B000DB1E012606FA05F1491E214099409E4072
:1039C000761E16403143F0BC01F043BB0CED00E025
:1039D000064900F0070208684FF6FF03184040EA66
:1039E0000220034A10430860704700000CED00E01D
:1039F0000000FA052DE9F8431748016841F08051AD
:103A000001600068154F00F08050012600903E6470
:103A1000FFF7B8FC05464FF47A78114C05E000BF7B
:103A2000FFF7B0FC401B40450DD86068C003F7D5D8
:103A30007E64FFF7A7FC0546464607E0FFF7A2FCB9
:103A4000401BB04202D90320BDE8F88360688003C0
:103A5000F4D50020F8E700004038024000000E4294
:103A6000007000402DE9F0470E46050065D0DFF8F4
:103A70001481D8F80000F7B200F00F00B04207D26E
:103A800088F80070D8F8000000F00F00B04254D160
:103A900028683D4C810712D5400703D5206840F4C3
:103AA000E05020602878000703D5206840F460408B
:103AB00020602068A96820F0F00008432060287882
:103AC000C0072DD0304968680839012812D0022873
:103AD00013D0032811D00968890700292DDA21683D
:103AE00021F0030101432160FFF74CFC814641F2C4
:103AF000883A0EE009688903EFE709688901ECE775
:103B0000FFF740FCA0EB0901514502D90320BDE8B5
:103B1000F0872068696800F00C00B0EB810FEFD1EE
:103B2000D8F80010404601F00F01B14207D90770E4
:103B3000006800F00F00B04201D00120E7E72878CC
:103B4000400705D52068E96820F4E050084320606C
:103B50002878000706D52068296920F4604040EAEB
:103B6000C100206000F038F82168084AC1F3031151
:103B7000515CC8400649086006480068FFF7BEFE71
:103B80000020C4E7003C02400838024028590008E1
:103B9000200000201800002004480549006809683A
:103BA000044AC1F38221515CC840704720000020C4
:103BB0000838024038590008044805490068096877
:103BC000044AC1F34231515CC840704720000020D4
:103BD0000838024038590008224810B5006810F033
:103BE0000C02214815D02149042A11D01D4C241F54
:103BF000082A0FD00C2A0CD12268236802F03F0259
:103C00005B0221D52068C0F38810A0FB010120E0F1
:103C1000084610BD2268236802F03F025B0205D50A
:103C20002068C0F38810A0FB010104E02168C1F303
:103C30008811A1FB00010023FCF7EAFB2168C1F316
:103C40000141491C49000AE02168C1F38811A1FB28
:103C500000010023FCF7DCFB2168C1F30271B0FB1B
:103C6000F1F010BD083802400024F40040787D01D6
:103C70002DE9F84F04007DD0DFF878B32078ABF160
:103C80000407C007A7F1040550D0DBF80010584620
:103C9000C1F3810101290FD00168C1F3810102291B
:103CA00002D13968490207D40068C0F381000328B3
:103CB00009D13868400206D52868800336D5606887
:103CC0000028D8D032E06068B0F5803F10D0B0F561
:103CD000A02F286810D020F480302860286820F4B5
:103CE000802028606068A0B1FFF74CFB06460CE01E
:103CF000286840F48030F4E740F480202860F7E73B
:103D0000FFF740FB801B642876D828688003F7D52E
:103D10000CE0FFF737FB064605E000BFFFF732FB7C
:103D2000801B6428F0D828688003F7D42078DFF857
:103D3000C89280074FF0000A44D5DBF800105846BF
:103D400011F00C0F0FD00168C1F38101022902D1DB
:103D50003968490207D50068C0F3810003280AD1F9
:103D60003868400207D42868800715D5E068012824
:103D700000D111E03AE1E068B0B10120C9F80000DB
:103D8000FFF700FB064604E0FFF7FCFA801B022861
:103D9000BAD828688007F7D52868216920F0F8008C
:103DA00040EAC10028600DE0C9F800A0FFF7EAFA78
:103DB000064604E0FFF7E6FA801B02281CD82868B4
:103DC0008007F7D42078000727D5DFF828828B48B2
:103DD000616908F16C0881B101210160FFF7D2FA35
:103DE000064604E0FFF7CEFA801B022804D8D8F874
:103DF00000008007F6D510E089E0C0F800A0FFF7CA
:103E0000C1FA064605E000BFFFF7BCFA801B022896
:103E10007DD8D8F800008007F6D42078400769D50F
:103E200074484FF0000838300068C0000BD4714867
:103E30003830016841F08051016000684FF001089E
:103E400000F0805000906E4E3068C00511D430688C
:103E500040F480703060FFF795FA009006E000BFF4
:103E6000FFF790FA0099401A022850D83068C00530
:103E7000F6D5604EA068683601280FD00528306856
:103E800010D020F001003060306820F00400306075
:103E9000A068B8B1FFF776FA00900FE0306840F004
:103EA0000100F4E740F004003060F7E7FFF76AFA3A
:103EB0000099411A41F28830814264D83068800705
:103EC000F4D50EE0FFF75EFA009007E0FFF75AFA2C
:103ED0000099411A41F28830814254D830688007F5
:103EE000F4D4B8F1000F05D042483830016821F011
:103EF00080510160A069A8B3DBF80010C1F3810113
:103F0000022947D00228C9F860A005D000E03AE0B5
:103F1000FFF738FA044639E0FFF734FA064604E0C2
:103F2000FFF730FA801B02282DD828688001F7D4CB
:103F3000F4E907010843E168324A490802EB01410C
:103F4000A26841EA82110843217C40EA0160217D98
:103F500040EA017038600120C9F86000FFF712FAEA
:103F6000044606E044E000BFFFF70CFA001B0228FD
:103F700009D828688001F7D53AE000BFFFF702FAB8
:103F8000001B022802D90320BDE8F88F28688001B1
:103F9000F4D42DE00128F7D03868E26900F48001FC
:103FA000914223D1226A00F03F0191421ED147F68F
:103FB000C071626A0140B1EB821F17D1A26A4FF053
:103FC000FF3300F4403103EB5202B1EB024F0DD14D
:103FD00094F82C2000F07061B1EB026F06D194F8D8
:103FE000301000F0E040B0EB017F01D00120CBE7C2
:103FF0000020C9E70838024000004742800E4742CF
:10400000007000400000FFFF10B5401EB0F1807F3F
:1040100001D3012010BD4FF0E02460610F21601733
:1040200001F017F80020A06107202061002010BDDA
:1040300070477047F8B5016804460868CA684B695C
:1040400010F00F0F4FF0000559D003F0010602F4F5
:104050009077374365D0C10705D0D10503D5216CD2
:1040600041F001012164410705D5D90703D0216C36
:1040700041F002012164810705D5D90703D0216CE5
:1040800041F004012164010707D502F0200131430A
:1040900003D0216C41F008012164216C00293AD041
:1040A000800604D5900602D5204600F091FE2068D7
:1040B0004069216CC0F38010090700D460B320462A
:1040C00000F051FE20684069400621D52068143078
:1040D00050E8001F21F0400140E80012002AF5D10D
:1040E000A06BA8B16C490165A06BFEF7BCFE00286F
:1040F00011D0A06B016D01B0BDE8F0400847830608
:104100000FD593060DD52046BDE8F84000F060BEFF
:104110002046FFF78EFFF8BD2046FFF78AFF256493
:10412000F8BD266B2023012E79D1C60677D5D60699
:1041300075D50868486800904869400640D5A16B6D
:10414000086840680004000CEAD0A28D8242E7D9DA
:10415000E085C869B0F5807F2DD020680C3050E82C
:10416000001F21F4807140E80012002AF5D1206878
:10417000143050E8001F21F0010140E80012002A2D
:10418000F5D12068143050E8001F21F0400140E8CC
:104190000012002AF5D184F83E30256320680C30E7
:1041A00050E8001F21F0100140E80012002AF5D16C
:1041B000A06BFEF70FFEA08DE18D401A81B229E0C1
:1041C000A08DE18D401A81B2E08D0028A8D0002991
:1041D000A6D020680C3050E8002F22F4907240E8FE
:1041E0000026002EF5D12068143050E8002F22F070
:1041F000010240E80026002EF5D184F83E30256308
:1042000020680C3050E8002F22F0100240E8002314
:10421000002BF5D12046FFF70BFFF8BDFFE70506A1
:104220002BD5150629D594F83D002128F5D1A06895
:10423000B0F5805F01D12069B0B1206A411C2162D4
:10424000216800784860E08C401E0004000CE08487
:10425000E3D12068C16821F08001C1602068C16895
:1042600041F04001C160D8E7206A0088C0F308002F
:104270004860206A801C2062E5E74006CDD55006E4
:10428000CBD5CA68204622F04002CA6084F83D308F
:1042900000F036F9C1E70000C14C000870B5040019
:1042A00004D094F83D00002510B106E0012070BD57
:1042B00084F83C50204600F023F8242084F83D0088
:1042C0002068C16821F40051C160204600F0E0FD83
:1042D0002068016921F4904101612068416921F061
:1042E0002A0141612068C16841F40051C160256420
:1042F000202084F83D0084F83E00002070BD0000BE
:10430000F0B587B0064614216846FCF72AF926491D
:104310003068884245D125480025016841F4802154
:104320000160006800F48020059020481038016882
:1043300041F004010160006801A900F0040005904B
:104340004FF4846000900220032781E8A100072039
:10435000049069461648FEF71DFF174C154820606B
:104360004FF0006060604020C4E902050001C4E92C
:104370000405A5610420E561C4E90850C4E90A7593
:1043800020462563FEF752FE08B1FDF771FE746307
:10439000002205212720A663FFF7FAFA2720FFF75E
:1043A000E9FA07B0F0BD0000004800404038024084
:1043B00000080240586002406C3E00207047000038
:1043C0002DE9F843044690F83D001F4616460D4679
:1043D00020284CD1C5B1BEB194F83C00012846D08C
:1043E000012084F83C004FF00008C4F840802120F0
:1043F00084F83D00FEF7C6FFA6848146E684A068E7
:10440000B0F5805F03D004E00120BDE8F8832069A7
:1044100028B12E465FF0000584F83C800EE00026AF
:10442000FAE78021204600F0B9FDA0B9AEB116F838
:10443000010B21684860E08C401EE084E08C4B4614
:104440004FF0000200970028EBD14FF040012046CA
:1044500000F0A4FD30B10320D7E735F8020BC0F31C
:104460000800E6E7202084F83D000020CDE7022088
:10447000CBE7000070B5044690F83D00202836D107
:1044800091B38AB394F83C00012830D0012084F81D
:104490003C002162A284E28400252564212084F866
:1044A0003D00636B1348D863636B13481864636BF8
:1044B0001248D864606B134605652668606B321D30
:1044C000FEF71EFE21686FF04000086084F83C5043
:1044D0002068143050E8001F41F0800140E80012CD
:1044E000002AF5D1002070BDFFE70120FBE7022084
:1044F000F9E700001B4D00085D4D0008D14C000895
:1045000070477047FEE701684A69D24352050FD4ED
:104510006FF480624A61002140F8301F202242730C
:104520008173026942F00402026101730120704745
:10453000002070472DE9F84F0446C06A1E46934696
:104540000D4621680A6842F480620A60082807D094
:10455000012805D010F5803F02D0206B112804D12E
:104560002068016841F4807101604FF001195B46D9
:10457000002249462046009600F0C6F84FF4007825
:1045800040B120680068C00501D5C4F84080032010
:10459000BDE8F88F2069DFF884A0B0F5804F0FD018
:1045A0000620216800EAD51747F0F000086133467D
:1045B0005A460AF10601204600F0DAF858BB03E03B
:1045C000E8B240F001001CE02168E8B2086133461F
:1045D0005A465146204600F0CBF8E0B920684169C0
:1045E00081690091016841F4807101605B4600229D
:1045F00049462046009600F087F80028C1D147F0D0
:10460000F1002168086133465A465146204600F0C1
:10461000AFF80028BCD00120BAE70000020001007A
:10462000F8B50446C06A1E460D461746082807D04E
:10463000012805D010F5803F02D0206B122804D14C
:104640002068016841F480710160134600224FF038
:1046500001112046009600F057F840B1206800682C
:10466000C00502D54FF4007020640320F8BD206916
:10467000B0F5804F0ED00620216800EAD51040F03A
:10468000F000086133463A460B49204600F070F8C6
:1046900078B902E005F0FE0000E0E8B221680861A8
:1046A000054933463A46891F204600F061F8002844
:1046B000DCD00120F8BD00000800010070B51646EE
:1046C0000D4604460DE02046FFF71DFF08B101200E
:1046D00070BD681C05D0FEF755FE801BA84207D8A8
:1046E00035B120684069C0434007ECD4002070BD5C
:1046F000002044F8300F20216173A073216941F03C
:10470000200121612073E2E72DE9F0471E46904623
:104710000D460446C1F30747DDF8209008E0701C01
:1047200006D0FEF72FFEA0EB0900B0420FD876B1FD
:104730002068012F18D0806925EA00000004000CD1
:1047400014D000214145EAD00020BDE8F0870020C8
:1047500044F8300F20216173A073216941F02001DA
:10476000216120730120F0E74069E5E70121E9E7D5
:104770002DE9F0479A4691460E46044600254FF033
:104780002008C1F3074725E020684069C043400581
:1047900014D42068016841F40071016021686FF44D
:1047A00080604861256384F83D8084F83E50206C29
:1047B00040F00400206484F83C501FE0B9F1FF3F52
:1047C00008D0FEF7DFFDA0EB0A0149450CD8B9F18E
:1047D000000F09D02068012F13D0806926EA00005D
:1047E0000004000C0BD0CFE744F8305F84F80D8054
:1047F000A573206940F02000206125730120BDE8E9
:10480000F0874069EAE72DE9F041002590460E4621
:104810000446202717E04069C043C0060CD454F872
:10482000301B6FF01000486144F810596777A57786
:10483000206A2062257717E0FEF7A4FDA0EB0800B0
:10484000B04208D83EB120684169C9434906E2D464
:104850000020BDE8F08144F8305F6773A5732069DC
:1048600040F02000206125730120F2E770B5164664
:104870000D4604460DE02046FFF745FE08B1012035
:1048800070BD681C05D0FEF77DFD801BA84207D8CF
:1048900035B120684069C0430006ECD4002070BDEB
:1048A000002044F8300F20216173A073216941F08A
:1048B000200121612073E2E70D4810B50B4901602A
:1048C00000212022C0E90112C1600161416108227A
:1048D0008161C0E908218162C1620163FDF718FCB2
:1048E000002801D072B6FEE710BD000000000550A0
:1048F000103D00202DE9F84328480025016841F0CB
:1049000001010160016801F001010091016841F0BD
:1049100004010160016801F004010091016841F0A7
:104920000201016000681E4C00F00200009020208F
:1049300020600127C4E90175DFF8689021464846E8
:10494000E560FEF727FC0820C4E900050226DFF831
:104950005880C4E9025621464046FEF71BFC04205D
:104960002060C4E9017521464046E560FEF712FC6F
:10497000300384E8610021464046E660FEF70AFC09
:104980004020C4E900060320C4E9025021464846FD
:104990002561BDE8F843FEF7FDBB0000303802405A
:1049A000603D00200000024000080240FEE7FEE7F4
:1049B00010B5094C0B4602460221A068FDF776FCB3
:1049C0004FF4FA60FEF7D4FBA068FDF705FDA06880
:1049D000BDE81040FDF7C6BC000000202DE9F843FB
:1049E000DFF858800746002407EB440017F81460EE
:1049F0004578FF2E01D1FF2D1ED06946304600F0CC
:104A0000BFF82946304600F0DBF80120FEF7B0FB86
:104A10006946304600F0B4F89DF80020954208D071
:104A200098F8001006A0491C88F80010314600F0E4
:104A3000B5FB641CA4B2D7E7BDE8F8830F000020E3
:104A400053434342207772697465206661696C75CF
:104A500072653A203078257820307825780D0A0064
:104A600010B5114A114CC2E901010022082120466B
:104A7000FEF783FC6420FEF77BFB01220821204621
:104A8000FEF77BFC6420FEF773FB0121FF2000F0A2
:104A900097F88021122000F093F86420FEF768FB5D
:104AA000BDE8104000F060B800000020000802409F
:104AB00010B504460121FF2000F082F88021122069
:104AC00000F07EF8C820FEF753FB1248FFF786FF80
:104AD0001148FFF783FF10481230FFF77FFF062CC5
:104AE00007D2DFE804F00306090C0E110A48223051
:104AF0000CE00948723009E00748C03006E007487A
:104B000004E00648523001E00448A030BDE81040FF
:104B1000FFF764BF1A54000896550008A85600080D
:104B200046F2BF32811A904216D009DC00F25330AF
:104B3000B0F5804015D001280CD002280AD110E031
:104B4000A1F56261B1F5804108D0A1F56261B1F5CE
:104B5000804F05D0012004E0032002E0042000E0A3
:104B60000520FFF7A5BF0000044810B58068FDF7D9
:104B7000F9FBBDE810400A20FEF7FABA0000002059
:104B8000F3B581B00F46002472B664250B4E009534
:104B9000012301AA60217068FEF7AEFD18B102245E
:104BA00062B62046FEBD009501233A466121706839
:104BB000FEF7B2FC0028F3D00124F1E7000000204A
:104BC0007CB5002501958DF804002E468DF8051062
:104BD00072B66420074C0090022301AA602160682D
:104BE000FEF78AFD18B1267062B628467CBD012505
:104BF0002570F9E70000002010B5FEF75DFE00F01B
:104C000063FB012803D0BDE8104000F047BB10BD96
:104C100030B593B034216846FBF7A3FC14210DA8EE
:104C2000FBF79FFC20480025016841F0805101609E
:104C3000006800F0805012901C48016841F4404127
:104C400001600068022400F44040129001200390AB
:104C500010200490009406940820CDE90750B42059
:104C6000CDE909040B9468460C94FFF701F808B1EC
:104C700072B6FEE7FEF7BEFE08B172B6FEE70DA9FA
:104C80000F2081E831004FF4A05010904FF4805075
:104C9000119005210DA8FEF7E5FE002801D072B69F
:104CA000FEE713B030BD0000403802400070004005
:104CB0000248016841F470010160704788ED00E02E
:104CC00010B5806B0021C185C184FFF7B2F910BD1A
:104CD00070B5846B2068406994F83D10C0F3C01033
:104CE0000025212904D118B1E584204600F062F89E
:104CF0002068406994F83E10C0F38010222904D146
:104D000018B1E585204600F02EF8206C40F0100028
:104D100020642046FFF78DF970BD10B50146806B09
:104D200009680968C90516D40021C18401681431D5
:104D300051E8002F22F0800241E80023002BF5D13A
:104D400001680C3151E8002F42F0400241E8002395
:104D5000002BF5D110BDFFF7D3FB10BD10B5806B54
:104D6000FFF7CFFB10BD01680C3151E8002F22F492
:104D7000907241E80023002BF5D10168143151E80D
:104D8000002F22F0010241E80023002BF5D1016B36
:104D9000012909D101680C3151E8002F22F01002DD
:104DA00041E80023002BF5D1202180F83E1000219E
:104DB0000163704701680C3151E8002F22F0C002F6
:104DC00041E80023002BF5D1202180F83D107047E9
:104DD00008B590F83E10222901D0022008BD826853
:104DE0004FF480539A4201D1016921B1816A9A42FC
:104DF0001BD04AB10AE00268816A5268C2F3080215
:104E00000A80816A891C08E0026972B102685268EE
:104E100002F07F020A70816A491C8162C18D491EBD
:104E20000904090CC18503D019E002685268F1E752
:104E30000168CA6822F02002CA600168CA6822F4C8
:104E40008072CA6001684A6922F001024A61202129
:104E500080F83E10016B012903D0FFF7AFFA002064
:104E600008BD0021016301680C3151E8002F22F0D8
:104E7000100241E80023002BF5D101680A68D20630
:104E800002D50A6849680091818DFFF7D1F8E6E7FD
:104E900070B5044600680169E26821F4405111438D
:104EA00001612169A068E26908436169114308430F
:104EB0002168CA6849F20C639A430243CA602068B9
:104EC0004169A26921F4407111434161314920686F
:104ED000884202D03049884202D1FEF76DFE01E0DF
:104EE000FEF75AFEE2690023192164253226B2F545
:104EF000004F626828D0A0FB0101930F9200FBF7DE
:104F000087FA0146B0FBF5F06FF01802504301EB51
:104F1000800006EB0010B0FBF5F000F0F002B1FBF2
:104F2000F5F002EB0012B1FBF5F06FF018035843F7
:104F300001EB800006EB0010B0FBF5F000F00F0075
:104F400021681044886070BDA0FB010192185B418C
:104F5000FBF75EFA0146B0FBF5F00201B1FBF5F09C
:104F60006FF01803584301EB800006EBC000B0FB64
:104F7000F5F000F0F80002EB4002B1FBF5F0584309
:104F800001EB800006EBC000B0FBF5F000F007007D
:104F9000D6E7000000100140001401402DE9F04167
:104FA000984617460E460446069D27E0681C25D005
:104FB0002DB1FEF7E7F9A0EB0800A8421ED9206842
:104FC0000C3050E8001F21F4D07140E80012002A94
:104FD000F5D12068143050E8001F21F0010140E8AD
:104FE0000012002AF5D1202084F83D0084F83E000C
:104FF000002084F83C000320BDE8F08120680068B0
:1050000036EA000004D00020B842CFD00020F3E7F9
:105010000120F9E70148FFF70DB80000C83D002066
:10502000FEE703B401984100009850EAC12018BF80
:1050300004204A0D18BF40F0010040F2FF72B2EBAD
:10504000515F08BF40F00200012808BF052002B0F0
:1050500070470907090E002804DB00F1E02080F802
:105060000014704700F00F0000F1E02080F8141DDC
:10507000704730380A2801D201207047002070475D
:1050800008B5FEF721FC364D364800246C700470DC
:10509000EC70FFF7BDFDFFF72DFC3348016841F4CC
:1050A00080010160016801F480010091016841F410
:1050B000001101600068002200F40010009005213A
:1050C0000E20FEF765FC0E20FEF754FC00220521A1
:1050D0003920FEF75DFC3920FEF74CFCFFF7ECFBB6
:1050E0002348224901602349C0E901144FF480415B
:1050F000C0E9034144618461C4610462FEF748F978
:1051000008B172B6FEE71A481B49543001604FF4EB
:10511000E131C0E901140C21C460C0E9044184619B
:10512000C461FFF7BBF808B172B6FEE7104910483A
:105130006439FFF795FC0A20FEF71AF8A888FFF7F4
:10514000EFFC0A20FEF714F8E978012905D90BA035
:1051500000F024F8A888FFF7E3FCFCF759FEFCE711
:105160000C000020000000203038024000580040B1
:10517000743D0020A0860100004800405343434294
:10518000207772697465206661696C206E756D6246
:105190006572733A2025780D0A0000000FB410B52F
:1051A00003A9029800F062F810BC5DF814FB00003F
:1051B0000648416B096829B1416BC968C9684968EB
:1051C000816270474FF0FF31FAE7000024000020B1
:1051D000D0E9013201699A60D0E901235A604A6836
:1051E000824201D182684A60002202610868401E42
:1051F00008600868704742684A6093688B609368EB
:105200005960916008610168491C016070470000A5
:105210001448016B11B10121C16170470021C161C6
:105220000169B1FA81F1C1F11F0101EB81020E495F
:1052300051F822306BB101EB820101F108034A6899
:1052400052684A609A4201D152684A60D16801604E
:105250007047502080F31188BFF34F8FBFF36F8FDB
:10526000FEE7000024000020CC3E002000B50A46E6
:10527000B3B001466846FBF743F9002809DD6846EC
:10528000FBF750F982B26FF07F4369460248FFF79F
:1052900097F833B000BD0000C83D002010B5502085
:1052A00080F31188BFF34F8FBFF36F8F00F01AF8B0
:1052B00018B104494FF080500860002080F3118835
:1052C00010BD000004ED00E00548416919B1006B14
:1052D00018B100207047012070470220704700007D
:1052E000240000202DE9F0412F4C0026206B28B12E
:1052F000A069401CA0613046BDE8F081E5686D1CE6
:10530000E56013D1606B006838B1502080F31188DC
:10531000BFF34F8FBFF36F8FFEE7606BA16B6163CD
:10532000A063206A401C2062FFF742FFA06ADFF8FA
:105330007C80854209D3606B0068A0B1606BC06857
:10534000C7687868854211D2A0622068C06A00EB05
:10535000800158F82100012800D90126E0690028C1
:10536000C9D00126C7E74FF0FF30EDE7381DFFF742
:105370002FFFB86A18B107F11800FFF729FFF96A83
:105380000120226988401043206101EB810108EB74
:105390008100391DFFF72FFFF86A2168C96A88422A
:1053A000C9D30126C7E7000024000020CC3E00201E
:1053B00010B500290AD00878002807D0054878449D
:1053C000FCF716F9002801D0002010BD02487844EF
:1053D00010BD00009E0600009606000010B50029D2
:1053E0000AD00878002807D005487844FCF700F96F
:1053F000002801D0002010BD0248784410BD0000F4
:105400008E060000860600004FF04070E1EE100AA4
:105410007047FBF7FABCFBF72FBEFF002CFF2EDF17
:10542000FF013C3211000902042813E514482C0C3A
:1054300033783A333BFB3E0043111610399235DA8C
:10544000221A37C3230034C0361A068807C00D87D6
:105450000E414C0048005B0042034A8121992440E0
:10546000253826825C006300617062807C052080A4
:1054700028306C006D806E007002719473C1124010
:105480001711184319001A4B320937C04F6050A842
:105490006D003D38463F4F600C3CFF00E57FF9C092
:1054A0004124E01476FF33A0422043184C0087D5F6
:1054B000883FD703D910D382C808C9807C007D00FB
:1054C0007C037D487D487C087D207D107D0E90000A
:1054D000910E911A9131915A91699175917E9188AD
:1054E000918F919691A391AF91C491D791E891201A
:1054F0009200930693E3930593059300930493001E
:1055000093009300930093009300930096009708F4
:1055100097199702970C9724973097289726970208
:105520009798978097009700C3EDA400A800C51135
:10553000C651BF80C710B666B8A5B764B97CB3AF13
:10554000B497B5FFB0C5B194B20FC45CC064C14B91
:105550008C00863D500051C85296530054005500AF
:105560005AC85B965C00D300C3ED7F00DA00E51FEC
:10557000E167E000DD7F05001240D304C016C112D0
:105580008C00863D5000512C52245300540055008D
:105590005A2C5B245C00FF000500DA10D703DF0003
:1055A00033803C40E1770000E014E177E51FD7034A
:1055B000DA10E000FF0104F8FF0112401711184350
:1055C00019001A4B32094FCA50A85A236D003912DC
:1055D00035DA221A37C3230034C0361A068807C0CA
:1055E0000D870E414C00FF00E004C064C14B8635BE
:1055F000509251C8529653005400550057005A2CEF
:105600005B245C00E000FFFFFF011240171118430C
:1056100019001A4B32094FCA50A85A236D0039128B
:1056200035DA221A37C3230034C0361A068807C079
:105630000D870E414C00FF00E004C064C14B86356D
:10564000508951C8529653005400550057005A5083
:105650005B3C5C00E000FF0111011200171118759E
:10566000323619011A97030F37404FBB509C5A57D7
:105670006D803D3439023588220A374034A0060255
:105680000DB70E01FF00E004C0C8C196863D5089E9
:105690005190522C53005400558857005AA05B7803
:1056A0005C00D304E000FFFFFF011101120017119D
:1056B0001875323619011A97030F37404FBB509CAB
:1056C0005A576D803D3439023588220A374034A05C
:1056D00006020DB70E01FF00E004C0C8C196863572
:1056E00050895190522C53005400558857005AC885
:1056F0005B965C00D302E000FFFFFF011101120086
:1057000017111875323619011A97030F37404FBB1E
:10571000509C5A576D803D3439023588220A3740F3
:1057200034A006020DB70E01FF00C0C8C1968C0060
:10573000863D50005190522C5300540055885A0019
:105740005BC05C01D302FFFFFF01110112001711C2
:105750001875323619011A97030F37404FBB509C0A
:105760005A576D803D3439023588220A374034A0BB
:1057700006020DB70E01FF00E004C0C8C196863DC9
:1057800050005190522C53005400558857005A40F5
:105790005BF05C01D302E000FFFFFF007C007D04B2
:1057A0007C077D207D287D0C7D06FFFFFF007C00AF
:1057B0007D047C077D207D247D167D06FFFFFF0094
:1057C0007C007D047C077D207D207D207D06FFFF01
:1057D000FF007C007D047C077D207D1C7D2A7D06EA
:1057E000FFFFFF007C007D047C077D207D187D3459
:1057F0007D06FFFFFF007C007D027C037D687D68E5
:10580000FFFFFF007C007D027C037D587D68FFFF69
:10581000FF007C007D027C037D487D48FFFFFF0088
:105820007C007D027C037D387D38FFFFFF007C001B
:105830007D027C037D287D28FFFFFF007C007D0426
:105840007C097D407D00FFFFFF007C007D047C091A
:105850007D307D00FFFFFF007C007D047C097D2002
:105860007D00FFFFFF007C007D047C097D107D0032
:10587000FFFFFF007C007D047C097D007D00FFFFB1
:10588000FF007C007D007C057D807D80FFFFFF00A8
:105890007C007D187C057D407DA6FFFFFF007C001D
:1058A0007D587C057D807D80FFFFFF007C007D189A
:1058B0007C057DA07D40FFFFFF007C007D187C05FE
:1058C0007D807D80FFFFFF007C007D407C057D802A
:1058D0007D80FFFFFF007C007D187C057D407D40C2
:1058E000FFFFFF007C007D187C057D407DC0FFFF31
:1058F000FF00C740CC5ECD41CE54FFFFFF00C74044
:10590000CC65CD41CE4FFFFFFF00C740CC52CD410B
:10591000CE66FFFFFF00C740CC42CD3FCE71FFFFF8
:10592000000610160006101600000000000000001F
:105930000102030406070809000000000102030435
:1059400000000000000000003031323334353637BB
:1059500038394142434445464030580030313233B3
:1059600034353637383961626364656640307800B3
:105970000400000800000000000000020001000018
:10598000103031323334353637383961626364650B
:105990006678700030313233343536373839414229
:1059A000434445465850000002400000000000A05B
:1059B0000000000005400000000000C800000000DA
:1059C0000C4000000000409C000000001940000056
:1059D0000020BCBE0000000034400000BFC91B8E88
:1059E00000000004B5400000504BCFD06607E2CF66
:1059F000010000006C4100003E8251AADFEEA73496
:105A000001000000D9420000DCB5A0E23A301F9747
:105A1000FFFFFFFFB4450000FD25A0C8E9A3C14F6B
:105A2000FFFFFFFFFF3F00000000008000000000BC
:105A3000FF3F00000000008000000000885B0008BD
:105A4000000000206000000000020008E85B000881
:105A500060000020C04500001C0200081C0000007F
:105A600043000000F8FFFFFF0C0000000E000000E4
:105A70000F0000002E000000100100004300000095
:105A8000F8FFFFFF0040404040404040404041415F
:105A90004141414040404040404040404040404003
:105AA000404040404005020202020202020202029D
:105AB000020202020220202020202020202020029A
:105AC000020202020202909090909090101010102A
:105AD00010101010101010101010101010101010C6
