:020000040800F2
:1000000040470020250300082B160008791500083A
:10001000291600087F05000871170008000000007D
:100020000000000000000000000000006502000861
:100030000906000800000000C1020008A916000817
:100040003F0300083F0300083F0300083F03000888
:100050003F0300083F0300083F0300083F03000878
:100060003F0300083F0300083F0300083F03000868
:100070003F0300083F0300083F0300083F03000858
:100080003F0300083F0300083F0300083F03000848
:100090003F0300083F0300083F0300083F03000838
:1000A0003F0300083F0300083F0300083F03000828
:1000B0003F0300083F0300083F0300083F03000818
:1000C0003F0300083F0300083F0300083F03000808
:1000D0003F0300083F0300083F0300083F030008F8
:1000E0003F0300083F0300083F0300083F030008E8
:1000F0003F0300083F0300083F0300083F030008D8
:100100003F0300083F0300083F0300083F030008C7
:100110003F0300083F0300083F0300083F030008B7
:100120003F030008810500083F0300083F03000863
:100130003F03000800000000000000003F0300082B
:100140003F0300083F0300083F0300083F03000887
:100150003F0300083F0300083F0300083F03000877
:100160003F0300083F0300083F0300083F03000867
:100170003F0300083F0300083F03000800000000A1
:10018000000000003F030008000000000000000025
:100190003F03000800000000000000003F030008CB
:1001A0000000000000000000000000003F03000805
:1001B0003F0300083F0300083F0300083F03000817
:1001C0003F03000800F002F800F03CF80AA090E8B5
:1001D000000C82448344AAF10107DA4501D100F002
:1001E00031F8AFF2090EBAE80F0013F0010F18BF93
:1001F000FB1A43F001031847B4210000D42100008A
:10020000103A24BF78C878C1FAD8520724BF30C842
:1002100030C144BF04680C60704700000023002414
:1002200000250026103A28BF78C1FBD8520728BF06
:1002300030C148BF0B6070471FB502F065F81FBDA5
:1002400010B510BD00F061F91146FFF7F5FF01F0A0
:10025000A1FA00F07FF903B4FFF7F2FF03BC00F04E
:1002600087F900002C4B19680868B0E8F04F80F35C
:100270000988BFF36F8F4FF0000080F3118870473B
:100280000000000008480068006880F308884FF00C
:10029000000080F3148862B661B6BFF34F8FBFF3DE
:1002A0006F8F00DF00BF00BF08ED00E0DFF80C003B
:1002B000016841F470010160704700BF88ED00E003
:1002C000EFF30980BFF36F8F134B1A681EF0100F06
:1002D00008BF20ED108A20E9F04F106009B44FF0FC
:1002E000500080F31188BFF34F8FBFF36F8F01F081
:1002F0001FFE4FF0000080F3118809BC19680868E0
:10030000B0E8F04F1EF0100F08BFB0EC108A80F379
:100310000988BFF36F8F70471C000020EFF3058042
:10032000704700000948804709480047FEE7FEE79C
:10033000FEE7FEE7FEE7FEE7FEE7FEE7FEE7FEE795
:1003400004480549054A064B70470000611700083C
:10035000C5010008404100204047002040430020E4
:100360004043002053EA020C00F069802DE9F04B75
:100370004FF00006002B1FBFB3FA83F503FA05F414
:1003800024FA05F65E4012BF1643B2FA82F502FA6D
:1003900005F4C5F120051EBF22FA05FC44EA0C0451
:1003A000203556EA044C4FEA144418BF641C4FF041
:1003B00000084FF00009904271EB030C39D300297B
:1003C00019BFB1FA81F701FA07F6B0FA80F700FA1F
:1003D00007F6C7F120071EBF20FA07FC46EA0C0605
:1003E0002037B6FBF4FCA7EB0507103F07F01F0B07
:1003F000CBF120060CFA0BFB2CFA06F644BFB346F1
:100400000026202FA4BF5E464FF0000B5BEA060CCF
:1004100008BF4FF0010B19EB0B09ABFB027C48EB5B
:100420000608C01B06FB02CC0BFB03CC71EB0C01D6
:10043000C1E70B46024641464846BDE8F08B13B57E
:100440004FF000004FF00001AFF30080BDE81C400A
:10045000704710B5203AC0F00B80B1E81850203A30
:10046000A0E81850B1E81850A0E81850BFF4F5AF54
:100470005FEA027C24BFB1E81850A0E8185044BFDE
:1004800018C918C0BDE810405FEA827C24BF51F84B
:10049000043B40F8043B08BF7047D20728BF31F83F
:1004A000023B48BF11F8012B28BF20F8023B48BF90
:1004B00000F8012B70474FF0000200B51346944638
:1004C0009646203922BFA0E80C50A0E80C50B1F1AC
:1004D0002001BFF4F7AF090728BFA0E80C5048BFC0
:1004E0000CC05DF804EB890028BF40F8042B08BF5E
:1004F000704748BF20F8022B11F0804F18BF00F85A
:10050000012B7047704770477047754600F02CF814
:10051000AE4605006946534620F00700854618B0F0
:1005200020B5FFF70DFFBDE820404FF000064FF06B
:1005300000074FF000084FF0000B21F00701AC4618
:10054000ACE8C009ACE8C009ACE8C009ACE8C00937
:100550008D46704710B50446AFF300802046BDE8D5
:100560001040FFF778BE000000487047E0400020D0
:1005700001491820ABBEFEE7260002007047FEE7E7
:10058000014800F009B900003C010020016818236F
:10059000CAB2103AB2FBF3F2054B6FF30901032A1A
:1005A0009B5CC36500D9091D816508467047000042
:1005B0006823000810B5014600208B698A6A4FF055
:1005C000C07453B1B3F5005F15D072B1012A0CD0DD
:1005D000022A0AD0032A09D104E01AB1012A06D05E
:1005E000022A03D1C96AC90100D5012010BDC96A18
:1005F000A142FAD010BD002AF7D0012AF2D0022A77
:10060000F3D0032AF3D010BD704772B6FEE70000A6
:1006100070B5040004D094F83500002510B109E04D
:10062000012070BD84F83450204600F03DF820468B
:1006300000F03AF8022084F8350020680168194A71
:1006400011400160616960680843D4E903121143F5
:100650000843A1680843A1690843216A0843616A05
:100660000843A16A0843E16A0843216B08432168F3
:100670000A68104308606068102808D1A17FA08B29
:1006800061F31F40E17F40EA0160216888612068D2
:10069000C16841F01E01C160E564012084F83500A5
:1006A000002070BD07F0E0FFF0B587B006461421CA
:1006B0006846FFF700FF3149306888425CD1304816
:1006C0000025016841F00101016000682C4900F03B
:1006D0000100091F0590086840F0010008600868E3
:1006E00000F001000590086840F004000860086808
:1006F00000F004000590086840F0020008600868F7
:10070000022400F00200059050208DE831000D27F2
:10071000CDE9035769461B4800F078F94FF43C6077
:100720008DE83100CDE903576946174800F06EF9AE
:100730004FF470708DE83100CDE9035769461348D6
:1007400000F064F9134C124820604FF00070C4E9C7
:100750000105C013C4E90350800060618000A061FE
:100760008011C4E907052046656200F0E5F808B18C
:10077000FFF74BFFB464A66307B0F0BD000005505F
:1007800034380240000002400008024000040240E9
:10079000286402403C0100202DE9F84304464FF054
:1007A0000009CDF8009063484FF41651A56D00681C
:1007B000B0FBF1F72E6894F85C10082000FA01F104
:1007C00031420FD021680A6852070BD50A6822F01F
:1007D00004020A6094F85C108840A860606D40F0E4
:1007E0000100606594F85C104FF0010808FA01F010
:1007F000304208D021684969090604D5A860606DB7
:1008000040F00200606594F85C100420884030429B
:1008100008D021680968890704D5A860606D40F098
:100820000400606594F85C1010208840304218D0B5
:1008300021680968090714D5A86020680168490380
:1008400004D50068000308D5A16C07E00168C9055C
:1008500003D4016821F008010160216C09B1204630
:10086000884794F85C1020208840304231D02168BD
:100870000968C9062DD5A86094F8350005282068B8
:10088000016806D0490347D5006800031DD4616C98
:100890001CE021F0160101602068416921F080010F
:1008A0004161206C08B9A06C20B12068016821F07A
:1008B0000801016094F85C103F208840A86084F82B
:1008C000358084F83490216D1FE0E16B09B120463A
:1008D0008847606D00282BD0606DC00714D00520BC
:1008E00084F835002068016821F00101016000985A
:1008F000401C0090B84203D820680068C007F6D1B9
:1009000084F8358084F83490E16C002910D001B06F
:100910002046BDE8F04308470168C905D5D4016801
:1009200021F01001016084F8358084F83490CCE720
:10093000BDE8F883180000202DE9F041044600F0DE
:100940005BF906465CB1022084F83500002584F886
:1009500034502068016821F0010101600DE00120A0
:10096000BDE8F08100F048F9801B052805D920205A
:100970006065032084F83500F2E720680068C0074E
:10098000F0D12268116820480140D4E901031843DE
:10099000D4E903363343184363691843A369184302
:1009A000E3691843236A18430843616A042903D1A1
:1009B000D4E90B1319430843106020684069666A44
:1009C00020F0070130460E43012704280CD1A06A0D
:1009D0000643E06A40B12046FFF7ECFD20B140201D
:1009E000606584F83570BAE7206846612046FFF7F5
:1009F000CDFD94F85C203F2191408160656584F8CD
:100A000035700020ACE700003F8010F02DE9F84F72
:100A1000DFF8ACA10022012403254FF00F090AF1F1
:100A2000040BAAF1040E00BF0B6804FA02F633406F
:100A3000B3426ED10F7907F00307012F01D0022FC7
:100A400016D187684FEA420805FA08FC27EA0C0726
:100A5000D1F80CC00CFA08FC4CEA070CC0F808C02E
:100A60004768B7430E79C6F3001696403E4346608A
:100A70000E79F643B6070AD0C6684FEA420C05FA6B
:100A80000CF7BE438F6807FA0CF73743C7600E793F
:100A900006F00306022E10D1D60800EB8608D8F81F
:100AA000206057074FEAD76C09FA0CF7BE430F696D
:100AB00007FA0CF73743C8F8207006684FEA420C73
:100AC00005FA0CF7BE430F7907F0030707FA0CF796
:100AD000374307604E6816F4403F6BD0394E376895
:100AE00047F480473760366822F0030706F48046F3
:100AF0000096354E07EB060CDCF8086897074FEABE
:100B0000177809FA08F7BE43304FB84202D10027E0
:100B10001FE04FE02E4FB84201D1012719E02D4FC1
:100B2000B84201D1022714E02B4FB84201D103276C
:100B30000FE02A4FB84201D104270AE0284FB842FB
:100B400001D1052705E0274FB84201D1062700E073
:100B5000072707FA08F73743CCF80878DAF8006077
:100B60005746D1F804C09E435FEACC2C00D51E4303
:100B70003E60DBF800605F46D1F804C09E435FEA48
:100B80008C2C00D51E433E60DEF800607746D1F81D
:100B900004C09E435FEA8C3C00D51E433E60084F74
:100BA000083F3E68D1F804C09E435FEACC3C00D5C4
:100BB0001E433E60521C102AFFF436AFBDE8F88F8A
:100BC000083C01404438024000300140000002402F
:100BD0000004024000080240000C024000100240E5
:100BE0000014024000180240426921EA02030A4050
:100BF00043EA024181617047014880687047000004
:100C00000C00002070B5040025D094F83D000025AC
:100C100020B984F83C50204600F0B8F8242084F82D
:100C20003D002068016821F0010101602068016831
:100C300041F4004101602068016821F40041016035
:100C400000F05EFA4D4A6168914201D84C4900E0DB
:100C50004C49884201D2012070BD4B492368B0FB4A
:100C6000F1F15E6826F03F060E435E6063689342D2
:100C700006D94FF4967359434FF47A73B1FBF3F1ED
:100C80002368491C1E6A26F03F06314319626168D9
:100C9000914210D84900401EB0FBF1F2521CC2F341
:100CA0000B02042A01D2042022E0B0FBF1F0401C28
:100CB000C0F30B001CE0A268F2B301EBC10303EB2D
:100CC0000116431EB3FBF6F35B1C43F480431B0584
:100CD00049D092B301EBC10202EB0111401EB0FBFF
:100CE000F1F0401CC0F30B0040F4804040F40040A1
:100CF0002168CA694CF6FF739A431043C861D4E96E
:100D0000071001432068026822F0C002114301600D
:100D1000D4E9030101432068826848F2FF339A4313
:100D200011438160D4E9050108432168CA6822F0B3
:100D3000FF021043C86001E00EE016E02068016881
:100D400041F0010101602564202084F83D00256305
:100D500084F83E50002070BD01EB4106431EB3FBFA
:100D6000F6F35B1CB3E70120C2E701EB4101401E33
:100D7000B0FBF1F0401CC0F30B00B7E7A086010008
:100D800080841E0000093D0040420F00F0B587B08E
:100D9000044614216846FFF78EFB1D4920688842EF
:100DA00033D11C480024016841F002010160016850
:100DB00001F002010591016841F004010160006841
:100DC000122500F0040005904FF48060CDE9000585
:100DD00002AA0326042782E8D00069460E48FFF7DE
:100DE00015FEB802CDE9000502AA694682E8D000E6
:100DF0000A48FFF70BFE07481030016841F48001F4
:100E00000160006800F48000059007B0F0BD0000AC
:100E10000058004030380240000402400008024000
:100E20000248816802781144816070470C000020FC
:100E30000B4810B5016841F400710160016841F48C
:100E400080610160016841F480710160032000F05D
:100E500073F80F2000F006F800F024F8002010BD11
:100E6000003C024070B50D4D04464FF47A7128786D
:100E7000B1FBF0F00A490968B1FBF0F000F068FB43
:100E800048B9102C07D200222146501E00F034F839
:100E900000206C6070BD012070BD00000C000020BF
:100EA000180000200C4882B0016841F480410160C4
:100EB000006800F4804000900748001F016841F07E
:100EC000805101600068002200F0805000900F21E6
:100ED000901E02B000F010B844380240002809DB30
:100EE00000F01F02012191404009800000F1E02044
:100EF000C0F8001170470000F0B40E4B1B680C46A0
:100F0000C3F30223C3F10705042D00D90425191DDD
:100F1000072901D2002300E0DB1E012606FA05F1B5
:100F2000491E214099409E40761E16403143F0BC38
:100F300000F01FBC0CED00E0064900F00702086855
:100F40004FF6FF03184040EA0220034A10430860AE
:100F5000704700000CED00E00000FA052DE9F843B1
:100F60001748016841F0805101600068154F00F09A
:100F70008050012600903E64FFF73EFE05464FF488
:100F80007A78114C05E000BFFFF736FE401B404564
:100F90000DD86068C003F7D57E64FFF72DFE0546C7
:100FA000464607E0FFF728FE401BB04202D9032067
:100FB000BDE8F88360688003F4D50020F8E70000FE
:100FC0004038024000000E42007000402DE9F0471A
:100FD0000E46050065D0DFF81481D8F80000F7B29E
:100FE00000F00F00B04207D288F80070D8F8000077
:100FF00000F00F00B04254D128683D4C810712D553
:10100000400703D5206840F4E050206028780007AE
:1010100003D5206840F4604020602068A96820F073
:10102000F000084320602878C0072DD03049686858
:101030000839012812D0022813D0032811D00968DA
:10104000890700292DDA216821F00301014321607D
:10105000FFF7D2FD814641F2883A0EE00968890324
:10106000EFE709688901ECE7FFF7C6FDA0EB09018E
:10107000514502D90320BDE8F0872068696800F077
:101080000C00B0EB810FEFD1D8F80010404601F012
:101090000F01B14207D90770006800F00F00B0429D
:1010A00001D00120E7E72878400705D52068E968E6
:1010B00020F4E050084320602878000706D5206817
:1010C000296920F4604040EAC100206000F028F85F
:1010D0002168084AC1F30311515CC8400649086001
:1010E00006480068FFF7BEFE0020C4E7003C02404F
:1010F000083802407023000818000020100000206B
:101100000448054900680968044AC1F38221515C1A
:10111000C8407047180000200838024080230008AB
:10112000224810B5006810F00C02214815D0214962
:10113000042A11D01D4C241F082A0FD00C2A0CD1D0
:101140002268236802F03F025B0221D52068C0F3C9
:101150008810A0FB010120E0084610BD226823682A
:1011600002F03F025B0205D52068C0F38810A0FBA7
:10117000010104E02168C1F38811A1FB00010023F3
:10118000FFF7F0F82168C1F30141491C49000AE06A
:101190002168C1F38811A1FB00010023FFF7E2F8E9
:1011A0002168C1F30271B0FBF1F010BD08380240B4
:1011B0000024F40040787D012DE9F84F04007DD033
:1011C000DFF878B32078ABF10407C007A7F1040576
:1011D00050D0DBF800105846C1F3810101290FD02F
:1011E0000168C1F38101022902D13968490207D49B
:1011F0000068C0F38100032809D13868400206D591
:101200002868800336D560680028D8D032E060684E
:10121000B0F5803F10D0B0F5A02F286810D020F492
:1012200080302860286820F4802028606068A0B1A1
:10123000FFF7E2FC06460CE0286840F48030F4E753
:1012400040F480202860F7E7FFF7D6FC801B642875
:1012500076D828688003F7D50CE0FFF7CDFC06466A
:1012600005E000BFFFF7C8FC801B6428F0D82868A1
:101270008003F7D42078DFF8C89280074FF0000A87
:1012800044D5DBF80010584611F00C0F0FD0016860
:10129000C1F38101022902D13968490207D50068EA
:1012A000C0F3810003280AD13868400207D42868B7
:1012B000800715D5E068012800D111E03AE1E06827
:1012C000B0B10120C9F80000FFF796FC064604E023
:1012D000FFF792FC801B0228BAD828688007F7D550
:1012E0002868216920F0F80040EAC10028600DE07C
:1012F000C9F800A0FFF780FC064604E0FFF77CFC7D
:10130000801B02281CD828688007F7D420780007A3
:1013100027D5DFF828828B48616908F16C0881B114
:1013200001210160FFF768FC064604E0FFF764FC5A
:10133000801B022804D8D8F800008007F6D510E0FA
:1013400089E0C0F800A0FFF757FC064605E000BFA3
:10135000FFF752FC801B02287DD8D8F800008007D8
:10136000F6D42078400769D574484FF0000838302B
:101370000068C0000BD471483830016841F08051DA
:10138000016000684FF0010800F0805000906E4E40
:101390003068C00511D4306840F480703060FFF7C9
:1013A0002BFC009006E000BFFFF726FC0099401AD6
:1013B000022850D83068C005F6D5604EA06868365F
:1013C00001280FD00528306810D020F001003060CF
:1013D000306820F004003060A068B8B1FFF70CFC62
:1013E00000900FE0306840F00100F4E740F00400A6
:1013F0003060F7E7FFF700FC0099411A41F28830AE
:10140000814264D830688007F4D50EE0FFF7F4FB22
:10141000009007E0FFF7F0FB0099411A41F2883095
:10142000814254D830688007F4D4B8F1000F05D059
:1014300042483830016821F080510160A069A8B3AA
:10144000DBF80010C1F38101022947D00228C9F856
:1014500060A005D000E03AE0FFF7CEFB044639E09B
:10146000FFF7CAFB064604E0FFF7C6FB801B022815
:101470002DD828688001F7D4F4E907010843E16812
:10148000324A490802EB0141A26841EA821108434D
:10149000217C40EA0160217D40EA01703860012032
:1014A000C9F86000FFF7A8FB044606E044E000BF6F
:1014B000FFF7A2FB001B022809D828688001F7D596
:1014C0003AE000BFFFF798FB001B022802D9032077
:1014D000BDE8F88F28688001F4D42DE00128F7D00A
:1014E0003868E26900F48001914223D1226A00F059
:1014F0003F0191421ED147F6C071626A0140B1EBD3
:10150000821F17D1A26A4FF0FF3300F4403103EB82
:101510005202B1EB024F0DD194F82C2000F0706113
:10152000B1EB026F06D194F8301000F0E040B0EB60
:10153000017F01D00120CBE70020C9E70838024035
:1015400000004742800E4742007000400000FFFF4D
:1015500010B5401EB0F1807F01D3012010BD4FF0C7
:10156000E02460610F21601700F003F90020A06102
:1015700007202061002010BDFEE700000C4810B5D8
:101580000A490160002141608160C16001614161DF
:101590008161016241628162C1620163FFF738F8D3
:1015A000002801D072B6FEE710BD00000000055013
:1015B00084000020F8B519480021026842F00102B9
:1015C0000260026802F001020092026842F0020228
:1015D0000260026802F002020092026842F0040215
:1015E000026000680E4C00F0040000902020206093
:1015F0000125C4E901510B4EE16021463046FFF759
:1016000005FA0320C4E900050220C4E9025021467E
:101610003046BDE8F840FFF7F9B900003038024025
:10162000D400002000000240FEE7FEE710B596B0AF
:101630001C2211496846FEF70CFF0021684600F0A5
:10164000F7F80E4C0C491C2220601C3107A8FEF74D
:1016500000FF002107A800F0EBF8074960601C229A
:1016600038310EA8FEF7F5FE00210EA800F0E0F8D4
:10167000A06016B010BD0000142300080000002078
:10168000044C20212046FFF7AFFA642000F0C4F894
:10169000F7E7000000000240642000F0BDF8FBE71F
:1016A000642000F0B9F8FBE710B5FFF7B9FB00F0D4
:1016B00055FD012803D0BDE8104000F0E1BC10BD8D
:1016C00030B593B034216846FEF7F5FE14210DA81D
:1016D000FEF7F1FE20480025016841F080510160CD
:1016E000006800F0805012901C48016841F44041AD
:1016F00001600068022400F4404012900120039031
:1017000010200490009406940820CDE90750B420DE
:10171000CDE909040B9468460C94FFF74DFD08B120
:1017200072B6FEE7FFF71AFC08B172B6FEE70DA924
:101730000F2081E831004FF4A05010904FF48050FA
:10174000119005210DA8FFF741FC002801D072B6C9
:10175000FEE713B030BD000040380240007000408A
:101760000248016841F470010160704788ED00E0B3
:10177000FEE70907090E002804DB00F1E02080F8ED
:101780000014704700F00F0000F1E02080F8141DF5
:101790007047000008B5FFF74BFBFFF791FFFFF71D
:1017A00009FF16480024016841F4800101600068C7
:1017B000224600F48000009005213920FFF79CFBB1
:1017C0003920FFF78BFBFFF7D9FE0E480C4901606B
:1017D0000D49C0E901144FF48041C0E9034144615F
:1017E0008461C4610462FFF70DFA08B172B6FEE7C6
:1017F000FFF71CFF00F017F8FEE70000303802404A
:1018000000580040E8000020A086010001460020AA
:10181000842900D0C81C704710B500B9012000F021
:1018200023FB002010BD10B500F044FB002010BDCC
:101830007FB50D4604464169B0F9080081B1A16940
:1018400071B1FFF7E3FFD4E905128DE80700D4E991
:1018500000102B46226900F056FC039004B070BDC6
:10186000FFF7D4FF03A9CDE90001208A2B4682B2FD
:10187000D4E9001000F01AFC012801D00020EDE7A7
:101880000398EBE72DE9F041184C0F460546E66852
:101890002068001D00F020FA38B9206890F82C105C
:1018A00001208840216981432161681C07D137B13B
:1018B0002168BDE8F0410E48091D00F051BA2068CA
:1018C0003544B5424560216805D2A06BBDE8F041C2
:1018D000091D00F02DBA606B091D00F029FAA06AFD
:1018E000854200D2A562BDE8F08100001C00002006
:1018F000CC0400202DE9F041054600F03DFA2E4CC5
:10190000A068401CA06020682C4F10B1606940B3F3
:101910002DE02560A068012829D1002606EB86006D
:1019200007EB800000F0F6F9761C072EF6D323486B
:101930008C3000F0EFF92148A03000F0EBF91F489F
:10194000B43000F0E7F91D48C83000F0E3F91B4857
:10195000DC3000F0DFF919488C3060631430A0638C
:1019600005E02068E96AC06A884200D82560606A9C
:10197000401C6062E96A01202269884010432061AE
:1019800001EB810007EB8000291D00F0E9F900F070
:1019900013FA606900280CD02068E96AC06A88429E
:1019A00007D207494FF080500860BFF34F8FBFF355
:1019B0006F8FBDE8F08100001C000020F0030020C4
:1019C00004ED00E010B5044690F8510058B101282C
:1019D0000CD002280FD0502080F31188BFF34F8F16
:1019E000BFF36F8FFEE7206B00F0FAF92046BDE8E9
:1019F000104000F0F5B910BD10484FF47051420787
:101A000006D0C01D0D4920F00700411AC1F57051E4
:101A10000B4A00230144C2E900030839183A21F0B7
:101A2000070111604B600B600B1AC0E90013936053
:101A30004FF000405360506170470000E004002008
:101A400070000020144E154CA6F1C8074FF08058C6
:101A5000DFF84C9012E000BF00F08EF9F068C56826
:101A6000281D00F039F9A068401EA0606068401E83
:101A7000606000F0A1F92846FFF7A4FF6068002825
:101A8000EAD138680128F9D9C9F80080BFF34F8F2F
:101A9000BFF36F8FF2E70000B80400201C000020A5
:101AA00004ED00E02DE9F0479A46DDE9098481461E
:101AB0006FF00303206B03EB82021044089E20F0BA
:101AC0000707780707D0502080F31188BFF34F8FA6
:101AD000BFF36F8FFEE7002561B1002023180A5C79
:101AE00083F834200A5C12B1401C1028F6D384F825
:101AF000435001E084F83450072E00D30626E662F6
:101B0000C4E91165201D00F010F904F1180000F07F
:101B10000CF92461C6F107006462A061E56484F8F1
:101B2000505052464946384600F0C0F82060B8F19F
:101B3000000F01D0C8F80040BDE8F08730B511496A
:101B400000E011460A688242FBD34B685C1884426D
:101B500003D1406818444860084643681C18944202
:101B600009D1084C183C2468A24209D052681A4492
:101B700042600A6812680260814200D0086030BD8D
:101B80000460F9E7700000200648416B096829B13C
:101B9000416BC968C9684968816270474FF0FF317D
:101BA000FAE700001C00002008484068401C4FF085
:101BB000500080F3118804D0BFF34F8FBFF36F8FB5
:101BC000FEE7BFF34F8FBFF36F8FFEE77800002073
:101BD0002DE9F0410546002700F0A2F9324E3068A9
:101BE00008B9FFF709FF706905424ED1C5B3083542
:101BF00068070ED005F00700C0F10800054468072B
:101C000007D0502080F31188BFF34F8FBFF36F8F41
:101C1000FEE72DB37068854237D823481830014657
:101C20000C6801E020460C466168A94202D2216896
:101C30000029F7D131688C4227D0076821680160FC
:101C400060680837411B10290FD96019420708D076
:101C5000502080F31188BFF34F8FBFF36F8FFEE7E3
:101C600013E041606560FFF769FF61687068401AC2
:101C70007060B268904200D2B06070690143002089
:101C8000C4E90001F068401CF06000F0DBFA78075E
:101C900007D0502080F31188BFF34F8FBFF36F8FB1
:101CA000FEE73846BDE8F0815800002010B5031F5C
:101CB0004FF080741C601B1F21F001011960191F77
:101CC000044B0B6014390A60091F6FF0020244389C
:101CD0000A6010BDA91B0008D0E9013201699A60B1
:101CE000D0E901235A604A68824201D182684A6081
:101CF000002202610868401E086008687047000002
:101D0000034B036003F154000860802010607047AB
:101D10009C01002000F108014FF0FF32C0E90112E0
:101D2000C1600161002101607047002101617047BD
:101D300030B50B685A1C02D000F1080202E00269BB
:101D400004E02246546825689D42FAD953684B60E6
:101D500099608A60516008610168491C016030BD6A
:101D600042684A6093688B6093685960916008612B
:101D70000168491C01607047502080F31188BFF34F
:101D80004F8FBFF36F8F0A494868401C4860012895
:101D90000CD10848006810F0FF0F07D0502080F3E6
:101DA0001188BFF34F8FBFF36F8FFEE770470000BE
:101DB0007800002004ED00E00849486828B1401E82
:101DC000486001D180F311887047502080F311885A
:101DD000BFF34F8FBFF36F8FFEE700007800002046
:101DE00070B500282AD0164DA0F108046068696912
:101DF000084207D1502080F31188BFF34F8FBFF303
:101E00006F8FFEE722683AB1502080F31188BFF34C
:101E10004F8FBFF36F8FFEE78843606000F080F85C
:101E200060686968084468602046FFF787FE286993
:101E3000401C2861BDE8704000F004BA70BD00008D
:101E4000580000204FF0E020002101618161054928
:101E50004FF47A720968B1FBF2F1491E4161072122
:101E6000016170471800002010B5020014D00F481F
:101E7000006B38B1502080F31188BFF34F8FBFF350
:101E80006F8FFEE700F04CF800211046FFF7FAFCD8
:101E900000F0D8F9002807D105494FF080500860BC
:101EA000BFF34F8FBFF36F8F10BD00001C000020E9
:101EB00004ED00E010B586B00024039405AA04A93F
:101EC00003A80494FFF71CFFDDE903010094CDE9AA
:101ED000011000230EA11048059A00F014F90F49D3
:101EE0000028C86211D0502080F31188BFF34F8FB3
:101EF000BFF36F8F4FF0FF30886201204861CC60E4
:101F000006B0BDE8104000F041B806B010BD0000BA
:101F100049444C4500000000451A00081C00002000
:101F20000248016B491C0163704700001C0000203F
:101F30001448016B11B10121C16170470021C161D9
:101F40000169B1FA81F1C1F11F0101EB81020E4972
:101F500051F822306BB101EB820101F108034A68AC
:101F600052684A609A4201D152684A60D168016061
:101F70007047502080F31188BFF34F8FBFF36F8FEE
:101F8000FEE700001C000020F00300201CB53748CD
:101F90000168374A914207D1502080F31188BFF37E
:101FA0004F8FBFF36F8FFEE700683149491E8842AB
:101FB00007D1502080F31188BFF34F8FBFF36F8F8D
:101FC000FEE72C4908780190FF20087008788DF80A
:101FD00000009DF800009DF8002000F0F000904205
:101FE00007D0502080F31188BFF34F8FBFF36F8F5E
:101FF000FEE79DF80000204C00F050002070072004
:10200000A06005E09DF8002052008DF80020401EE1
:102010009DF800201206F5D4A060032807D05020B8
:1020200080F31188BFF34F8FBFF36F8FFEE74FF43C
:102030004070A060019808700C482030016841F49D
:1020400070010160016841F070410160FFF7FAFE24
:1020500000206060FEF72AF90848016841F040411D
:102060000160FEF70FF900201CBD000000ED00E04C
:1020700071C20F4100E400E07800002034EF00E07E
:1020800010B5502080F31188BFF34F8FBFF36F8FCF
:1020900000F072F818B104494FF080500860002039
:1020A00080F3118810BD000004ED00E02DE9FF5F12
:1020B0008346DDE90E87994616468A469000FFF76B
:1020C00087FD05001CD05420FFF782FD040014D0CA
:1020D0000020256384F85100CDE90240CDE9008756
:1020E0004B46324651465846FFF7DCFC2046FFF788
:1020F00001FC012004B0BDE8F09F2846FFF770FE08
:102100004FF0FF30F6E7F0B585B0DDE90B640A9DCE
:10211000A6B1DCB1542700972663022684F85160EB
:10212000002604AFCDE90246CDE90057FFF7BAFC1F
:102130002046FFF7DFFB049805B0F0BD502080F388
:102140001188BFF34F8FBFF36F8FFEE7502080F3EE
:102150001188BFF34F8FBFF36F8FFEE705484169CA
:1021600019B1006B18B100207047012070470220A0
:10217000704700001C0000202DE9F0412F4C002684
:10218000206B28B1A069401CA0613046BDE8F081F9
:10219000E5686D1CE56013D1606B006838B15020B4
:1021A00080F31188BFF34F8FBFF36F8FFEE7606B33
:1021B000A16B6163A063206A401C2062FFF7E4FC0E
:1021C000A06ADFF87C80854209D3606B0068A0B10B
:1021D000606BC068C7687868854211D2A0622068C9
:1021E000C06A00EB800158F82100012800D90126BF
:1021F000E0690028C9D00126C7E74FF0FF30EDE7BE
:10220000381DFFF769FDB86A18B107F11800FFF72C
:1022100063FDF96A0120226988401043206101EBC7
:10222000810108EB8100391DFFF79AFDF86A2168EA
:10223000C96A8842C9D30126C7E700001C000020F4
:10224000F00300202DE9F0472C4D00242746286B91
:1022500038B1FFF791FD286B401E2863286B40B111
:1022600046E0502080F31188BFF34F8FBFF36F8F8C
:10227000FEE7A968224E0120D1B3A6F1B409804639
:102280003068E8B1F068C46804F11800FFF724FD75
:10229000201DFFF721FDE06A2A6908FA00F11143C9
:1022A000296100EB800109EB8100211DFFF758FD3A
:1022B000E06A2968C96A8842E2D3C5F81C80DFE772
:1022C0000CB1FFF761FCAC6944B14646FFF754FF1F
:1022D00000B1EE61641EF9D10020A861E86938B14F
:1022E0000849012738070860BFF34F8FBFF36F8F8E
:1022F000FFF762FD3846BDE8F08700001C000020B3
:10230000A404002004ED00E04FF04070E1EE100A5C
:1023100070470000882300088116000800000000B4
:10232000000000008000000000000000000000002D
:102330009423000899160008FDFF0000000000002B
:10234000800000000000000000000000A023000842
:10235000A1160008FDFF0000000000008000000042
:102360000000000000000000000610160006101615
:102370000000000000000000010203040607080935
:1023800000000000010203046D795461736B303169
:10239000000000006D795461736B30320000000062
:1023A0006D795461736B303300000000CC2300085A
:1023B00000000020840000000002000850240008F3
:1023C00084000020BC4600001C0200080000000041
:1023D00000000000000000000100000010000000EC
:1023E000000000000024F4000000000000000000D5
:1023F00000000000000000000000000000000000DD
:1024000000000000000000000000000000000000CC
:1024100000000000000000000000000000000000BC
:1024200000000000000000000000000000000000AC
:10243000000000000000000000000000000000009C
:102440000000000000000000AAAAAAAA00000000E4
:04000005080001C529
:00000001FF
