:020000040800F2
:100000009047002025030008E3140008411400086D
:10001000E11400087F0500084D17000800000000EB
:100020000000000000000000000000006502000861
:10003000BD05000800000000C102000859150008B5
:100040003F0300083F0300083F0300083F03000888
:100050003F0300083F0300083F0300083F03000878
:100060003F0300083F0300083F0300083F03000868
:100070003F0300083F030008A50500083F030008F0
:100080003F0300083F0300083F0300083F03000848
:100090003F0300083F0300083F0300083F03000838
:1000A0003F0300083F0300083F0300083F03000828
:1000B0003F0300083F0300083F0300083F03000818
:1000C0003F0300083F0300083F0300083F03000808
:1000D0003F0300083F0300083F03000841170008E2
:1000E0003F0300083F0300083F0300083F030008E8
:1000F0003F0300083F0300083F0300083F030008D8
:100100003F0300083F0300083F0300083F030008C7
:100110003F0300083F0300083F0300083F030008B7
:100120003F030008B10500083F0300083F03000833
:100130003F03000800000000000000003F0300082B
:100140003F0300083F0300083F0300083F03000887
:100150003F0300083F0300083F0300083F03000877
:100160003F0300083F0300083F0300083F03000867
:100170003F0300083F030008990500080000000045
:10018000000000003F030008000000000000000025
:100190003F03000800000000000000003F030008CB
:1001A0000000000000000000000000003F03000805
:1001B0003F0300083F0300083F0300083F03000817
:1001C0003F03000800F002F800F03CF80AA090E8B5
:1001D000000C82448344AAF10107DA4501D100F002
:1001E00031F8AFF2090EBAE80F0013F0010F18BF93
:1001F000FB1A43F001031847CC200000EC2000005C
:10020000103A24BF78C878C1FAD8520724BF30C842
:1002100030C144BF04680C60704700000023002414
:1002200000250026103A28BF78C1FBD8520728BF06
:1002300030C148BF0B6070471FB502F021F81FBDE9
:1002400010B510BD00F061F91146FFF7F5FF01F0A0
:100250008EFA00F07FF903B4FFF7F2FF03BC00F061
:1002600087F900002C4B19680868B0E8F04F80F35C
:100270000988BFF36F8F4FF0000080F3118870473B
:100280000000000008480068006880F308884FF00C
:10029000000080F3148862B661B6BFF34F8FBFF3DE
:1002A0006F8F00DF00BF00BF08ED00E0DFF80C003B
:1002B000016841F470010160704700BF88ED00E003
:1002C000EFF30980BFF36F8F134B1A681EF0100F06
:1002D00008BF20ED108A20E9F04F106009B44FF0FC
:1002E000500080F31188BFF34F8FBFF36F8F01F081
:1002F000DBFD4FF0000080F3118809BC1968086825
:10030000B0E8F04F1EF0100F08BFB0EC108A80F379
:100310000988BFF36F8F704718000020EFF3058046
:10032000704700000948804709480047FEE7FEE79C
:10033000FEE7FEE7FEE7FEE7FEE7FEE7FEE7FEE795
:1003400004480549054A064B70470000111600088D
:10035000C5010008904100209047002090430020F4
:100360009043002053EA020C00F069802DE9F04B25
:100370004FF00006002B1FBFB3FA83F503FA05F414
:1003800024FA05F65E4012BF1643B2FA82F502FA6D
:1003900005F4C5F120051EBF22FA05FC44EA0C0451
:1003A000203556EA044C4FEA144418BF641C4FF041
:1003B00000084FF00009904271EB030C39D300297B
:1003C00019BFB1FA81F701FA07F6B0FA80F700FA1F
:1003D00007F6C7F120071EBF20FA07FC46EA0C0605
:1003E0002037B6FBF4FCA7EB0507103F07F01F0B07
:1003F000CBF120060CFA0BFB2CFA06F644BFB346F1
:100400000026202FA4BF5E464FF0000B5BEA060CCF
:1004100008BF4FF0010B19EB0B09ABFB027C48EB5B
:100420000608C01B06FB02CC0BFB03CC71EB0C01D6
:10043000C1E70B46024641464846BDE8F08B13B57E
:100440004FF000004FF00001AFF30080BDE81C400A
:10045000704710B5203AC0F00B80B1E81850203A30
:10046000A0E81850B1E81850A0E81850BFF4F5AF54
:100470005FEA027C24BFB1E81850A0E8185044BFDE
:1004800018C918C0BDE810405FEA827C24BF51F84B
:10049000043B40F8043B08BF7047D20728BF31F83F
:1004A000023B48BF11F8012B28BF20F8023B48BF90
:1004B00000F8012B70474FF0000200B51346944638
:1004C0009646203922BFA0E80C50A0E80C50B1F1AC
:1004D0002001BFF4F7AF090728BFA0E80C5048BFC0
:1004E0000CC05DF804EB890028BF40F8042B08BF5E
:1004F000704748BF20F8022B11F0804F18BF00F85A
:10050000012B7047704770477047754600F02CF814
:10051000AE4605006946534620F00700854618B0F0
:1005200020B5FFF70DFFBDE820404FF000064FF06B
:1005300000074FF000084FF0000B21F00701AC4618
:10054000ACE8C009ACE8C009ACE8C009ACE8C00937
:100550008D46704710B50446AFF300802046BDE8D5
:100560001040FFF778BE0000004870472C41002083
:1005700001491820ABBEFEE7260002007047FEE7E7
:1005800010B5806B816C496D022902D0012180F881
:10059000351000F014F810BD014800F013B8000049
:1005A00080000020014800F0B7B80000880100205A
:1005B000014800F0B1B80000D0000020704770473B
:1005C000704700002DE9F041044600680569224F9C
:1005D00069074FF004060BD54661E06C40F002005D
:1005E000E06484F83560A06C0765A06C00F081F8C9
:1005F000A8070DD5216802204861E06C40F0010099
:10060000E06484F83560A06C0765A06C00F071F8B8
:10061000E80605D5216810204861204600F01EF844
:10062000280705D5216808204861204600F017F802
:10063000E8070FD020680168890703D5C16821F059
:100640001E01C1602068C16821F00101C16020461F
:10065000FFF7B6FFBDE8F0818105000870477047DD
:100660002DE9F0410446876D00F01EFA064694F825
:1006700035000025022806D08020606584F83450BB
:100680000120BDE8F0812068016821F016010160B9
:100690002068416921F080014161206C08B9A06C9B
:1006A00020B12068016821F008010160206801681C
:1006B00021F0010101600CE000F0F6F9801B052833
:1006C00007D920206065032084F8350084F8345071
:1006D000D7E720680068C007EED194F85C103F208F
:1006E0008840B860012084F8350084F83450002038
:1006F000C7E790F83510022903D080214165012019
:100700007047052180F835100068016821F001016B
:1007100001600020704700002DE9F84304464FF0C7
:100720000009CDF8009063484FF41651A56D00689C
:10073000B0FBF1F72E6894F85C10082000FA01F184
:1007400031420FD021680A6852070BD50A6822F09F
:1007500004020A6094F85C108840A860606D40F064
:100760000100606594F85C104FF0010808FA01F090
:10077000304208D021684969090604D5A860606D37
:1007800040F00200606594F85C100420884030421C
:1007900008D021680968890704D5A860606D40F019
:1007A0000400606594F85C1010208840304218D036
:1007B00021680968090714D5A86020680168490301
:1007C00004D50068000308D5A16C07E00168C905DD
:1007D00003D4016821F008010160216C09B12046B1
:1007E000884794F85C1020208840304231D021683E
:1007F0000968C9062DD5A86094F835000528206839
:10080000016806D0490347D5006800031DD4616C18
:100810001CE021F0160101602068416921F080018F
:100820004161206C08B9A06C20B12068016821F0FA
:100830000801016094F85C103F208840A86084F8AB
:10084000358084F83490216D1FE0E16B09B12046BA
:100850008847606D00282BD0606DC00714D005203C
:1008600084F835002068016821F0010101600098DA
:10087000401C0090B84203D820680068C007F6D139
:1008800084F8358084F83490E16C002910D001B0F0
:100890002046BDE8F04308470168C905D5D4016882
:1008A00021F01001016084F8358084F83490CCE7A1
:1008B000BDE8F883140000202DE9F84FDFF8ACA163
:1008C0000022012403254FF00F090AF1040BAAF1BD
:1008D000040E00BF0B6804FA02F63340B3426ED137
:1008E0000F7907F00307012F01D0022F16D1876877
:1008F0004FEA420805FA08FC27EA0C07D1F80CC0B9
:100900000CFA08FC4CEA070CC0F808C04768B7436B
:100910000E79C6F3001696403E4346600E79F643C4
:10092000B6070AD0C6684FEA420C05FA0CF7BE4378
:100930008F6807FA0CF73743C7600E7906F0030695
:10094000022E10D1D60800EB8608D8F82060570791
:100950004FEAD76C09FA0CF7BE430F6907FA0CF798
:100960003743C8F8207006684FEA420C05FA0CF7C6
:10097000BE430F7907F0030707FA0CF73743076008
:100980004E6816F4403F6BD0394E376847F48047C5
:100990003760366822F0030706F480460096354E2D
:1009A00007EB060CDCF8086897074FEA177809FA96
:1009B00008F7BE43304FB84202D100271FE04FE096
:1009C0002E4FB84201D1012719E02D4FB84201D175
:1009D000022714E02B4FB84201D103270FE02A4F22
:1009E000B84201D104270AE0284FB84201D10527B7
:1009F00005E0274FB84201D1062700E0072707FA94
:100A000008F73743CCF80878DAF800605746D1F891
:100A100004C09E435FEACC2C00D51E433E60DBF849
:100A200000605F46D1F804C09E435FEA8C2C00D57D
:100A30001E433E60DEF800607746D1F804C09E4356
:100A40005FEA8C3C00D51E433E60084F083F3E687D
:100A5000D1F804C09E435FEACC3C00D51E433E6003
:100A6000521C102AFFF436AFBDE8F88F083C014055
:100A700044380240003001400000024000040240BF
:100A800000080240000C0240001002400014024026
:100A9000001802400069084000D0012070470AB1E8
:100AA000816170470904FBE70148806870470000D6
:100AB0000800002002488168027811448160704774
:100AC000080000200B4810B5016841F40071016076
:100AD000016841F480610160016841F48071016046
:100AE000032000F065F80F2000F006F800F024F86D
:100AF000002010BD003C024070B50D4D04464FF47F
:100B00007A712878B1FBF0F00A490968B1FBF0F07E
:100B100000F04AFB48B9102C07D200222146501E93
:100B200000F026F800206C6070BD012070BD000050
:100B300008000020140000200C4882B0016841F435
:100B400080410160006800F4804000900748001F69
:100B5000016841F0805101600068002200F080507F
:100B600000900F21901E02B000F002B844380240FD
:100B7000F0B40E4B1B680C46C3F30223C3F1070508
:100B8000042D00D90425191D072901D2002300E0F6
:100B9000DB1E012606FA05F1491E214099409E40C0
:100BA000761E16403143F0BC00F0D1BD0CED00E0E4
:100BB000064900F0070208684FF6FF03184040EAB4
:100BC0000220034A10430860704700000CED00E06B
:100BD0000000FA052DE9F8431748016841F08051FB
:100BE00001600068154F00F08050012600903E64BF
:100BF000FFF75AFF05464FF47A78114C05E000BF25
:100C0000FFF752FF401B40450DD86068C003F7D581
:100C10007E64FFF749FF0546464607E0FFF744FFBD
:100C2000401BB04202D90320BDE8F883606880030E
:100C3000F4D50020F8E700004038024000000E42E2
:100C4000007000402DE9F0470E46050065D0DFF842
:100C50001481D8F80000F7B200F00F00B04207D2BC
:100C600088F80070D8F8000000F00F00B04254D1AE
:100C700028683D4C810712D5400703D5206840F411
:100C8000E05020602878000703D5206840F46040D9
:100C900020602068A96820F0F000084320602878D0
:100CA000C0072DD0304968680839012812D00228C1
:100CB00013D0032811D00968890700292DDA21688B
:100CC00021F0030101432160FFF7EEFE814641F26E
:100CD000883A0EE009688903EFE709688901ECE7C3
:100CE000FFF7E2FEA0EB0901514502D90320BDE860
:100CF000F0872068696800F00C00B0EB810FEFD13D
:100D0000D8F80010404601F00F01B14207D9077032
:100D1000006800F00F00B04201D00120E7E728781A
:100D2000400705D52068E96820F4E05008432060BA
:100D30002878000706D52068296920F4604040EA39
:100D4000C100206000F018F82168084AC1F30311BF
:100D5000515CC8400649086006480068FFF7CCFEB1
:100D60000020C4E7003C024008380240A8220008E6
:100D7000140000200C000020224810B5006810F07C
:100D80000C02214815D02149042A11D01D4C241FE2
:100D9000082A0FD00C2A0CD12268236802F03F02E7
:100DA0005B0221D52068C0F38810A0FB010120E080
:100DB000084610BD2268236802F03F025B0205D599
:100DC0002068C0F38810A0FB010104E02168C1F392
:100DD0008811A1FB00010023FFF7C4FA2168C1F3C9
:100DE0000141491C49000AE02168C1F38811A1FBB7
:100DF00000010023FFF7B6FA2168C1F30271B0FBCE
:100E0000F1F010BD083802400024F40040787D0164
:100E10002DE9F84F04007DD0DFF878B32078ABF1EE
:100E20000407C007A7F1040550D0DBF800105846AE
:100E3000C1F3810101290FD00168C1F381010229A9
:100E400002D13968490207D40068C0F38100032841
:100E500009D13868400206D52868800336D5606815
:100E60000028D8D032E06068B0F5803F10D0B0F5EF
:100E7000A02F286810D020F480302860286820F443
:100E8000802028606068A0B1FFF70EFE06460CE0E7
:100E9000286840F48030F4E740F480202860F7E7C9
:100EA000FFF702FE801B642876D828688003F7D5F8
:100EB0000CE0FFF7F9FD064605E000BFFFF7F4FD83
:100EC000801B6428F0D828688003F7D42078DFF8E6
:100ED000C89280074FF0000A44D5DBF8001058464E
:100EE00011F00C0F0FD00168C1F38101022902D16A
:100EF0003968490207D50068C0F3810003280AD188
:100F00003868400207D42868800715D5E0680128B2
:100F100000D111E03AE1E068B0B10120C9F8000069
:100F2000FFF7C2FD064604E0FFF7BEFD801B022866
:100F3000BAD828688007F7D52868216920F0F8001A
:100F400040EAC10028600DE0C9F800A0FFF7ACFD41
:100F5000064604E0FFF7A8FD801B02281CD828687D
:100F60008007F7D42078000727D5DFF828828B4840
:100F7000616908F16C0881B101210160FFF794FDFE
:100F8000064604E0FFF790FD801B022804D8D8F83D
:100F900000008007F6D510E089E0C0F800A0FFF758
:100FA00083FD064605E000BFFFF77EFD801B02289B
:100FB0007DD8D8F800008007F6D42078400769D59E
:100FC00074484FF0000838300068C0000BD47148F6
:100FD0003830016841F08051016000684FF001082D
:100FE00000F0805000906E4E3068C00511D430681B
:100FF00040F480703060FFF757FD009006E000BFBE
:10100000FFF752FD0099401A022850D83068C005F9
:10101000F6D5604EA068683601280FD005283068E4
:1010200010D020F001003060306820F00400306003
:10103000A068B8B1FFF738FD00900FE0306840F0CD
:101040000100F4E740F004003060F7E7FFF72CFD03
:101050000099411A41F28830814264D83068800793
:10106000F4D50EE0FFF720FD009007E0FFF71CFD30
:101070000099411A41F28830814254D83068800783
:10108000F4D4B8F1000F05D042483830016821F09F
:1010900080510160A069A8B3DBF80010C1F38101A1
:1010A000022947D00228C9F860A005D000E03AE044
:1010B000FFF7FAFC044639E0FFF7F6FC064604E0C9
:1010C000FFF7F2FC801B02282DD828688001F7D496
:1010D000F4E907010843E168324A490802EB01419B
:1010E000A26841EA82110843217C40EA0160217D27
:1010F00040EA017038600120C9F86000FFF7D4FCB5
:10110000044606E044E000BFFFF7CEFC001B0228C7
:1011100009D828688001F7D53AE000BFFFF7C4FC82
:10112000001B022802D90320BDE8F88F286880013F
:10113000F4D42DE00128F7D03868E26900F480018A
:10114000914223D1226A00F03F0191421ED147F61D
:10115000C071626A0140B1EB821F17D1A26A4FF0E1
:10116000FF3300F4403103EB5202B1EB024F0DD1DB
:1011700094F82C2000F07061B1EB026F06D194F866
:10118000301000F0E040B0EB017F01D00120CBE750
:101190000020C9E70838024000004742800E47425D
:1011A000007000400000FFFF10B5401EB0F1807FCE
:1011B00001D3012010BD4FF0E02460610F216017C2
:1011C00000F0C5FA0020A06107202061002010BDBA
:1011D00070477047F8B5016804460868CA684B69EB
:1011E00010F00F0F4FF0000559D003F0010602F484
:1011F0009077374365D0C10705D0D10503D5216C61
:1012000041F001012164410705D5D90703D0216CC4
:1012100041F002012164810705D5D90703D0216C73
:1012200041F004012164010707D502F02001314398
:1012300003D0216C41F008012164216C00293AD0CF
:10124000800604D5900602D5204600F018FA2068E2
:101250004069216CC0F38010090700D460B32046B8
:1012600000F0E6F920684069400621D52068143076
:1012700050E8001F21F0400140E80012002AF5D19B
:10128000A06BA8B16C490165A06BFFF732FA00288A
:1012900011D0A06B016D01B0BDE8F0400847830696
:1012A0000FD593060DD52046BDE8F84000F0E7B90C
:1012B0002046FFF78EFFF8BD2046FFF78AFF256422
:1012C000F8BD266B2023012E79D1C60677D5D60628
:1012D00075D50868486800904869400640D5A16BFC
:1012E000086840680004000CEAD0A28D8242E7D969
:1012F000E085C869B0F5807F2DD020680C3050E8BB
:10130000001F21F4807140E80012002AF5D1206806
:10131000143050E8001F21F0010140E80012002ABB
:10132000F5D12068143050E8001F21F0400140E85A
:101330000012002AF5D184F83E30256320680C3075
:1013400050E8001F21F0100140E80012002AF5D1FA
:10135000A06BFFF785F9A08DE18D401A81B229E0DD
:10136000A08DE18D401A81B2E08D0028A8D000291F
:10137000A6D020680C3050E8002F22F4907240E88C
:101380000026002EF5D12068143050E8002F22F0FE
:10139000010240E80026002EF5D184F83E30256396
:1013A00020680C3050E8002F22F0100240E80023A3
:1013B000002BF5D12046FFF70BFFF8BDFFE7050630
:1013C0002BD5150629D594F83D002128F5D1A06824
:1013D000B0F5805F01D12069B0B1206A411C216263
:1013E000216800784860E08C401E0004000CE08416
:1013F000E3D12068C16821F08001C1602068C16824
:1014000041F04001C160D8E7206A0088C0F30800BD
:101410004860206A801C2062E5E74006CDD5500672
:10142000CBD5CA68204622F04002CA6084F83D301D
:1014300000F005F8C1E7000021160008704770476A
:10144000FEE700002DE9F84321480025016841F03E
:1014500001010160016801F001010091016841F0A2
:1014600004010160016801F004010091016841F08C
:10147000020101600068174C00F00200009020207B
:1014800020600127C4E9017521461348E560FFF794
:1014900013FA0820C4E900050226DFF84080C4E9F9
:1014A000025621464046FFF707FA04202060C4E9AF
:1014B000017521464046E560FFF7FEF9300384E8F8
:1014C000610021464046E660BDE8F843FFF7F4B905
:1014D0003038024030010020000002400008024085
:1014E000FEE7FEE700B587B01C2206496846FEF716
:1014F000B0FF0021684600F057F90349086007B0C3
:1015000000BD00008C22000804000020DFF83C80B1
:101510000025DFF83C900F4C4FF400570126394668
:101520004046FFF7B7FA30B1002220214846FFF7C6
:10153000B6FA257005E0012220214846FFF7AFFAF0
:101540002670642000F024F9E9E70000000802405A
:10155000000002400000002010B5FFF7ABFA00F0D9
:10156000B9FD012803D0BDE8104000F045BD10BD15
:1015700030B593B034216846FEF79DFF14210DA8C5
:10158000FEF799FF20480025016841F08051016075
:10159000006800F0805012901C48016841F44041FE
:1015A00001600068022400F4404012900120039082
:1015B00010200490009406940820CDE90750B42030
:1015C000CDE909040B9468460C94FFF721FC08B19F
:1015D00072B6FEE7FFF7FEFA08B172B6FEE70DA994
:1015E0000F2081E831004FF4A05010904FF480504C
:1015F000119005210DA8FFF725FB002801D072B638
:10160000FEE713B030BD00004038024000700040DB
:101610000248016841F470010160704788ED00E004
:1016200010B5806B0021C185C184FFF7D2FD10BDCC
:1016300001680C3151E8002F22F4907241E8002338
:10164000002BF5D10168143151E8002F22F001027E
:1016500041E80023002BF5D1016B012909D1016874
:101660000C3151E8002F22F0100241E80023002B3A
:10167000F5D1202180F83E1000210163704708B5A4
:1016800090F83E10222901D0022008BD82684FF454
:1016900080539A4201D1016921B1816A9A421BD0DB
:1016A0004AB10AE00268816A5268C2F308020A80FD
:1016B000816A891C08E0026972B10268526802F00E
:1016C0007F020A70816A491C8162C18D491E09042A
:1016D000090CC18503D019E002685268F1E701687E
:1016E000CA6822F02002CA600168CA6822F48072C7
:1016F000CA6001684A6922F001024A61202180F82B
:101700003E10016B012903D0FFF798FE002008BDB1
:101710000021016301680C3151E8002F22F0100212
:1017200041E80023002BF5D101680A68D20602D5F2
:101730000A6849680091818DFFF74AFDE6E70000DD
:101740000148FFF747BD000044010020FEE70907FC
:10175000090E002804DB00F1E02080F80014704737
:1017600000F00F0000F1E02080F8141D7047FFF733
:10177000A9F9FFF7FDFEFFF765FEFFF7B3FE00F0E6
:101780000EF8FEE701460020842900D0C81C7047EF
:1017900010B500B9012000F023FB002010BD10B5EA
:1017A00000F044FB002010BD7FB50D4604464169A2
:1017B000B0F9080081B1A16971B1FFF7E3FFD4E985
:1017C00005128DE80700D4E900102B46226900F0CD
:1017D00056FC039004B070BDFFF7D4FF03A9CDE918
:1017E0000001208A2B4682B2D4E9001000F01AFCD6
:1017F000012801D00020EDE70398EBE72DE9F04147
:10180000184C0F460546E6682068001D00F020FAD7
:1018100038B9206890F82C10012088402169814354
:101820002161681C07D137B12168BDE8F0410E483D
:10183000091D00F051BA20683544B5424560216861
:1018400005D2A06BBDE8F041091D00F02DBA606B18
:10185000091D00F029FAA06A854200D2A562BDE800
:10186000F081000018000020180500202DE9F0414B
:10187000054600F03DFA2E4CA068401CA060206890
:101880002C4F10B1606940B32DE02560A06801289D
:1018900029D1002606EB860007EB800000F0F6F960
:1018A000761C072EF6D323488C3000F0EFF9214840
:1018B000A03000F0EBF91F48B43000F0E7F91D4804
:1018C000C83000F0E3F91B48DC3000F0DFF91948BC
:1018D0008C3060631430A06305E02068E96AC06A58
:1018E000884200D82560606A401C6062E96A012075
:1018F000226988401043206101EB810007EB8000E2
:10190000291D00F0E9F900F013FA606900280CD0F5
:101910002068E96AC06A884207D207494FF08050C0
:101920000860BFF34F8FBFF36F8FBDE8F0810000F9
:10193000180000203C04002004ED00E010B504462F
:1019400090F8510058B101280CD002280FD0502037
:1019500080F31188BFF34F8FBFF36F8FFEE7206BCB
:1019600000F0FAF92046BDE8104000F0F5B910BDCE
:1019700010484FF47051420706D0C01D0D4920F0A9
:101980000700411AC1F570510B4A00230144C2E916
:1019900000030839183A21F0070111604B600B6011
:1019A0000B1AC0E9001393604FF000405360506180
:1019B000704700002C0500206C000020144E154CD0
:1019C000A6F1C8074FF08058DFF84C9012E000BF36
:1019D00000F08EF9F068C568281D00F039F9A0689C
:1019E000401EA0606068401E606000F0A1F92846BB
:1019F000FFF7A4FF60680028EAD138680128F9D908
:101A0000C9F80080BFF34F8FBFF36F8FF2E700007C
:101A1000040500201800002004ED00E02DE9F04747
:101A20009A46DDE9098481466FF00303206B03EBDE
:101A300082021044089E20F00707780707D0502044
:101A400080F31188BFF34F8FBFF36F8FFEE7002540
:101A500061B1002023180A5C83F834200A5C12B1BB
:101A6000401C1028F6D384F8435001E084F8345029
:101A7000072E00D30626E662C4E91165201D00F09A
:101A800010F904F1180000F00CF92461C6F1070008
:101A90006462A061E56484F8505052464946384675
:101AA00000F0C0F82060B8F1000F01D0C8F8004085
:101AB000BDE8F08730B5114900E011460A6882425E
:101AC000FBD34B685C18844203D1406818444860DB
:101AD000084643681C18944209D1084C183C2468F5
:101AE000A24209D052681A4442600A681268026031
:101AF000814200D0086030BD0460F9E76C0000202E
:101B00000648416B096829B1416BC968C9684968D1
:101B1000816270474FF0FF31FAE7000018000020A3
:101B200008484068401C4FF0500080F3118804D0F2
:101B3000BFF34F8FBFF36F8FFEE7BFF34F8FBFF33E
:101B40006F8FFEE7740000202DE9F0410546002765
:101B500000F0A2F9324E306808B9FFF709FF70694A
:101B600005424ED1C5B3083568070ED005F0070011
:101B7000C0F108000544680707D0502080F31188A1
:101B8000BFF34F8FBFF36F8FFEE72DB370688542B1
:101B900037D82348183001460C6801E020460C462F
:101BA0006168A94202D221680029F7D131688C42CC
:101BB00027D007682168016060680837411B102939
:101BC0000FD96019420708D0502080F31188BFF365
:101BD0004F8FBFF36F8FFEE713E041606560FFF743
:101BE00069FF61687068401A7060B268904200D204
:101BF000B060706901430020C4E90001F068401C36
:101C0000F06000F0DBFA780707D0502080F31188ED
:101C1000BFF34F8FBFF36F8FFEE73846BDE8F0810B
:101C20005400002010B5031F4FF080741C601B1F70
:101C300021F001011960191F044B0B6014390A606F
:101C4000091F6FF0020244380A6010BD211B000812
:101C5000D0E9013201699A60D0E901235A604A68EB
:101C6000824201D182684A60002202610868401EF7
:101C70000860086870470000034B036003F15400DC
:101C80000860802010607047E801002000F1080122
:101C90004FF0FF32C0E90112C16001610021016013
:101CA000704700210161704730B50B685A1C02D0A3
:101CB00000F1080202E0026904E022465468256847
:101CC0009D42FAD953684B6099608A6051600861FF
:101CD0000168491C016030BD42684A6093688B60AE
:101CE00093685960916008610168491C0160704700
:101CF000502080F31188BFF34F8FBFF36F8F0A49D5
:101D00004868401C486001280CD10848006810F061
:101D1000FF0F07D0502080F31188BFF34F8FBFF320
:101D20006F8FFEE7704700007400002004ED00E0B4
:101D30000849486828B1401E486001D180F31188E5
:101D40007047502080F31188BFF34F8FBFF36F8F20
:101D5000FEE700007400002070B500282AD0164D60
:101D6000A0F1080460686969084207D1502080F337
:101D70001188BFF34F8FBFF36F8FFEE722683AB130
:101D8000502080F31188BFF34F8FBFF36F8FFEE7B2
:101D90008843606000F080F86068696808446860A3
:101DA0002046FFF787FE2869401C2861BDE8704087
:101DB00000F004BA70BD0000540000204FF0E02095
:101DC00000210161816105494FF47A720968B1FB14
:101DD000F2F1491E416107210161704714000020A2
:101DE00010B5020014D00F48006B38B1502080F3BA
:101DF0001188BFF34F8FBFF36F8FFEE700F04CF8F1
:101E000000211046FFF7FAFC00F0D8F9002807D1AE
:101E100005494FF080500860BFF34F8FBFF36F8FBD
:101E200010BD00001800002004ED00E010B586B0E1
:101E30000024039405AA04A903A80494FFF71CFF37
:101E4000DDE903010094CDE9011000230EA1104843
:101E5000059A00F014F90F490028C86211D05020EB
:101E600080F31188BFF34F8FBFF36F8F4FF0FF30B8
:101E7000886201204861CC6006B0BDE8104000F0E7
:101E800041B806B010BD000049444C4500000000B8
:101E9000BD190008180000200248016B491C0163AD
:101EA00070470000180000201448016B11B1012197
:101EB000C16170470021C1610169B1FA81F1C1F1CD
:101EC0001F0101EB81020E4951F822306BB101EB89
:101ED000820101F108034A6852684A609A4201D1BE
:101EE00052684A60D16801607047502080F31188C1
:101EF000BFF34F8FBFF36F8FFEE700001800002085
:101F00003C0400201CB537480168374A914207D18C
:101F1000502080F31188BFF34F8FBFF36F8FFEE720
:101F200000683149491E884207D1502080F311884A
:101F3000BFF34F8FBFF36F8FFEE72C4908780190F6
:101F4000FF20087008788DF800009DF800009DF8CB
:101F5000002000F0F000904207D0502080F311885C
:101F6000BFF34F8FBFF36F8FFEE79DF80000204C4B
:101F700000F0500020700720A06005E09DF80020D0
:101F800052008DF80020401E9DF800201206F5D466
:101F9000A060032807D0502080F31188BFF34F8F33
:101FA000BFF36F8FFEE74FF44070A0600198087098
:101FB0000C482030016841F470010160016841F073
:101FC00070410160FFF7FAFE00206060FEF76EF9D5
:101FD0000848016841F040410160FEF753F90020D4
:101FE0001CBD000000ED00E071C20F4100E400E004
:101FF0007400002034EF00E010B5502080F3118809
:10200000BFF34F8FBFF36F8F00F072F818B1044920
:102010004FF080500860002080F3118810BD000050
:1020200004ED00E02DE9FF5F8346DDE90E87994668
:1020300016468A469000FFF787FD05001CD0542005
:10204000FFF782FD040014D00020256384F85100BE
:10205000CDE90240CDE900874B463246514658460D
:10206000FFF7DCFC2046FFF701FC012004B0BDE8CF
:10207000F09F2846FFF770FE4FF0FF30F6E7F0B50F
:1020800085B0DDE90B640A9DA6B1DCB15427009749
:102090002663022684F85160002604AFCDE902468B
:1020A000CDE90057FFF7BAFC2046FFF7DFFB0498A5
:1020B00005B0F0BD502080F31188BFF34F8FBFF300
:1020C0006F8FFEE7502080F31188BFF34F8FBFF36F
:1020D0006F8FFEE70548416919B1006B18B1002008
:1020E0007047012070470220704700001800002050
:1020F0002DE9F0412F4C0026206B28B1A069401C2F
:10210000A0613046BDE8F081E5686D1CE56013D143
:10211000606B006838B1502080F31188BFF34F8F97
:10212000BFF36F8FFEE7606BA16B6163A063206AF2
:10213000401C2062FFF7E4FCA06ADFF87C80854247
:1021400009D3606B0068A0B1606BC068C76878682D
:10215000854211D2A0622068C06A00EB800158F865
:102160002100012800D90126E0690028C9D00126F4
:10217000C7E74FF0FF30EDE7381DFFF769FDB86A9C
:1021800018B107F11800FFF763FDF96A0120226911
:1021900088401043206101EB810108EB8100391D6B
:1021A000FFF79AFDF86A2168C96A8842C9D30126F7
:1021B000C7E70000180000203C0400202DE9F0478C
:1021C0002C4D00242746286B38B1FFF791FD286B72
:1021D000401E2863286B40B146E0502080F31188F0
:1021E000BFF34F8FBFF36F8FFEE7A968224E012028
:1021F000D1B3A6F1B40980463068E8B1F068C4688C
:1022000004F11800FFF724FD201DFFF721FDE06A0F
:102210002A6908FA00F11143296100EB800109EBFA
:102220008100211DFFF758FDE06A2968C96A8842CC
:10223000E2D3C5F81C80DFE70CB1FFF761FCAC69A5
:1022400044B14646FFF754FF00B1EE61641EF9D178
:102250000020A861E86938B10849012738070860FB
:10226000BFF34F8FBFF36F8FFFF762FD3846BDE8B6
:10227000F087000018000020F004002004ED00E0CA
:102280004FF04070E1EE100A70470000B8220008DD
:102290000D15000800000000000000008000000094
:1022A000000000000000000000000000000000002E
:1022B00001020304060708096D795461736B30311C
:1022C00000000000E4220008000000208000000060
:1022D000000200086423000880000020104700006E
:1022E0001C020008000000000000000001000000C7
:1022F00010000000000000000024F40000000000B6
:1023000000000000000000000000000000000000CD
:1023100000000000000000000000000000000000BD
:1023200000000000000000000000000000000000AD
:10233000000000000000000000000000000000009D
:10234000000000000000000000000000000000008D
:10235000000000000000000000000000AAAAAAAAD5
:042360000000000079
:04000005080001C529
:00000001FF
