:020000040800F2
:10000000F847012025030008B32F0008392B00080A
:10001000B12F0008C3050008953600080000000055
:100020000000000000000000000000006502000861
:100030004707000800000000C1020008E532000880
:100040003F0300083F0300083F0300083F03000888
:100050003F0300083F0300083F0300083F03000878
:100060003F0300083F0300083F0300083F03000868
:100070003F0300083F0300086D0600083F03000827
:100080003F0300083F0300083F0300083F03000848
:100090003F0300083F0300083F0300083F03000838
:1000A0003F0300083F0300083F0300083F03000828
:1000B0003F0300083F0300083F0300083F03000818
:1000C0003F0300083F0300083F0300083F03000808
:1000D0003F0300083F0300083F030008893600087B
:1000E0003F0300083F0300083F0300083F030008E8
:1000F0003F0300083F0300083F0300083F030008D8
:100100003F0300083F0300083F0300083F030008C7
:100110003F0300083F0300083F0300083F030008B7
:100120003F030008790600083F0300083F0300086A
:100130003F03000800000000000000003F0300082B
:100140003F0300083F0300083F0300083F03000887
:100150003F0300083F0300083F0300083F03000877
:100160003F0300083F0300083F0300083F03000867
:100170003F0300083F03000861060008000000007C
:10018000000000003F030008000000000000000025
:100190003F03000800000000000000003F030008CB
:1001A0000000000000000000000000003F03000805
:1001B0003F0300083F0300083F0300083F03000817
:1001C0003F03000800F002F800F03CF80AA090E8B5
:1001D000000C82448344AAF10107DA4501D100F002
:1001E00031F8AFF2090EBAE80F0013F0010F18BF93
:1001F000FB1A43F001031847504600007046000008
:10020000103A24BF78C878C1FAD8520724BF30C842
:1002100030C144BF04680C60704700000023002414
:1002200000250026103A28BF78C1FBD8520728BF06
:1002300030C148BF0B6070471FB504F02DF81FBDDB
:1002400010B510BD00F083F91146FFF7F5FF03F07C
:1002500033FA00F0A1F903B4FFF7F2FF03BC00F09A
:10026000A9F900002C4B19680868B0E8F04F80F33A
:100270000988BFF36F8F4FF0000080F3118870473B
:100280000000000008480068006880F308884FF00C
:10029000000080F3148862B661B6BFF34F8FBFF3DE
:1002A0006F8F00DF00BF00BF08ED00E0DFF80C003B
:1002B000016841F470010160704700BF88ED00E003
:1002C000EFF30980BFF36F8F134B1A681EF0100F06
:1002D00008BF20ED108A20E9F04F106009B44FF0FC
:1002E000500080F31188BFF34F8FBFF36F8F03F07F
:1002F000E7FD4FF0000080F3118809BC1968086819
:10030000B0E8F04F1EF0100F08BFB0EC108A80F379
:100310000988BFF36F8F70472C000020EFF3058032
:10032000704700000948804709480047FEE7FEE79C
:10033000FEE7FEE7FEE7FEE7FEE7FEE7FEE7FEE795
:1003400004480549054A064B704700009D330008E4
:10035000C5010008F8410120F8470120F8430120B9
:10036000F843012053EA020C00F069802DE9F04BBC
:100370004FF00006002B1FBFB3FA83F503FA05F414
:1003800024FA05F65E4012BF1643B2FA82F502FA6D
:1003900005F4C5F120051EBF22FA05FC44EA0C0451
:1003A000203556EA044C4FEA144418BF641C4FF041
:1003B00000084FF00009904271EB030C39D300297B
:1003C00019BFB1FA81F701FA07F6B0FA80F700FA1F
:1003D00007F6C7F120071EBF20FA07FC46EA0C0605
:1003E0002037B6FBF4FCA7EB0507103F07F01F0B07
:1003F000CBF120060CFA0BFB2CFA06F644BFB346F1
:100400000026202FA4BF5E464FF0000B5BEA060CCF
:1004100008BF4FF0010B19EB0B09ABFB027C48EB5B
:100420000608C01B06FB02CC0BFB03CC71EB0C01D6
:10043000C1E70B46024641464846BDE8F08B13B57E
:100440004FF000004FF00001AFF30080BDE81C400A
:10045000704710B5203AC0F00B80B1E81850203A30
:10046000A0E81850B1E81850A0E81850BFF4F5AF54
:100470005FEA027C24BFB1E81850A0E8185044BFDE
:1004800018C918C0BDE810405FEA827C24BF51F84B
:10049000043B40F8043B08BF7047D20728BF31F83F
:1004A000023B48BF11F8012B28BF20F8023B48BF90
:1004B00000F8012B70474FF000020429C0F01280B1
:1004C00010F0030C00F01B80CCF1040CBCF1020F07
:1004D00018BF00F8012BA8BF20F8022BA1EB0C01DC
:1004E00000F00DB85FEAC17C24BF00F8012B00F8D2
:1004F000012B48BF00F8012B70474FF0000200B5F8
:10050000134694469646203922BFA0E80C50A0E836
:100510000C50B1F12001BFF4F7AF090728BFA0E8E4
:100520000C5048BF0CC05DF804EB890028BF40F8B0
:10053000042B08BF704748BF20F8022B11F0804FF2
:1005400018BF00F8012B7047704770477047754619
:1005500000F02CF8AE4605006946534620F007002F
:10056000854618B020B5FFF7EBFEBDE820404FF000
:1005700000064FF000074FF000084FF0000B21F08D
:100580000701AC46ACE8C009ACE8C009ACE8C0095A
:10059000ACE8C0098D46704710B50446AFF3008043
:1005A0002046BDE81040FFF756BE000000487047E7
:1005B0009441012001491820ABBEFEE7260002004D
:1005C0007047FEE710B5806B816C496D022902D03F
:1005D000012180F8351000F0B9F810BD10B5846B1A
:1005E000A26BA06C0168CAB10A68A36B02F4002276
:1005F000DB0706D12AB1C968E26B01EBC201002218
:1006000007E00A68120319D40969E26B01EBC20121
:10061000012200F084FAA06B401E0EE0086800037F
:1006200002D5606CC86009E00868000306D4E26B7C
:10063000606C00EB82000861206CA063A06B216CF1
:1006400088420BD12068C16841F00101C160206877
:100650000068800702D5012084F8350010BD000035
:10066000014800F075B8000094000120014800F036
:1006700079BF0000F0010120014800F073BF0000C5
:100680009001012001681823CAB2103AB2FBF3F2BC
:10069000054B6FF30901032A9B5CC36500D9091D53
:1006A00081650846704700000448000810B50146FF
:1006B00000208B698A6A4FF0C07453B1B3F5005FB4
:1006C00015D072B1012A0CD0022A0AD0032A09D10E
:1006D00004E01AB1012A06D0022A03D1C96AC9016D
:1006E00000D5012010BDC96AA142FAD010BD002A70
:1006F000F7D0012AF2D0022AF3D0032AF3D010BD9A
:1007000010B5046863608368402B036803D0996068
:100710000068C26010BD9A600068C16010BD30B54D
:100720000468256825F48025256004686360836873
:10073000402B036803D099600068C26030BD9A60A6
:100740000068C16030BD704772B6FEE77047704701
:100750002DE9F041044600680569224F69074FF012
:1007600004060BD54661E06C40F00200E06484F8BA
:100770003560A06C0765A06C00F0E1FEA8070DD500
:10078000216802204861E06C40F00100E06484F8D8
:100790003560A06C0765A06C00F0D1FEE80605D5B9
:1007A000216810204861204600F06AF8280705D526
:1007B000216808204861204600F0B0F9E8070FD012
:1007C00020680168890703D5C16821F01E01C16056
:1007D0002068C16821F00101C1602046FFF7B7FF22
:1007E000BDE8F081C505000870B5040004D094F898
:1007F0003500002510B109E0012070BD84F83450A7
:10080000204600F03FF8204600F03CF8022084F833
:10081000350020680168194A11400160616960680B
:100820000843D4E9031211430843A1680843A169AE
:100830000843216A0843616A0843A16A0843E16AE0
:100840000843216B084321680A6810430860606808
:10085000102808D1A17FA08B61F31F40E17F40EAFF
:100860000160216888612068C16841F01E01C16093
:10087000E564012084F83500002070BD07F0E0FF3A
:1008800070470000F0B587B0064614216846FFF7B0
:1008900034FE35493068884264D134480025016807
:1008A00041F0010101600068304900F00100091FBA
:1008B0000590086840F001000860086800F0010039
:1008C0000590086840F004000860086800F0040023
:1008D0000590086840F0020008600868022400F0F3
:1008E0000200059050208DE831000D27CDE9035717
:1008F00069461F4800F0BAFF4FF43C608DE83100B4
:10090000CDE9035769461B4800F0B0FF4FF4707003
:100910008DE83100CDE903576946174800F0A6FF7E
:10092000174C164820604FF00070C4E90105C01351
:10093000C4E90350800060618000A0618011C4E9B7
:1009400007052046656200F0DDFE08B1FFF7FCFEFA
:10095000B464002205214E20A66301F08DFB4E20D9
:1009600001F07CFB07B0F0BD0000055034380240B8
:1009700000000240000802400004024028640240D7
:1009800090010120F8B5044690F83400012827D0E2
:10099000012084F83400022584F8355025682E683B
:1009A00046F480462E6025682E6826F002062E60EA
:1009B00025682E680E432E60A56C1E49E963A66C5F
:1009C0001D4DF564A66C00253565A56306042564F8
:1009D000B34207D22168A06C283100F0FDFE1FE071
:1009E0000220F8BDA76C7964A063E363626405E04C
:1009F000E06B4008E063A06B4000A063E06BB04296
:100A0000F6D2A06B801EA063A06B2064E06B02EBAB
:100A10008003E06B00902168A06C283100F086F81C
:100A20002068016841F00101016084F83450002021
:100A3000F8BD0000DD050008C5050008F8B504464E
:100A40001A480E2100250068B0FBF1F0009094F8E0
:100A50003400012827D0012684F83460022084F86D
:100A600035002068016821F00101016020680099CB
:100A70004A1E009205D2E16C41F02001E164032599
:100A800002E00168C907F2D1016821F480410160E8
:100A9000A06C343400F00AFDA069A06166700020EB
:100AA00020702846F8BD0220F8BD00002800002074
:100AB00018B519490E220968B1FBF2F1009190F8BE
:100AC00034100022012907D0012380F8343090F837
:100AD0003510022902D019E0022018BD052180F846
:100AE000351001680C6824F001040C6000994C1E5C
:100AF000009407D2C16C41F02001C16480F8353008
:100B0000032203E001680968C907EFD1002180F8DA
:100B10003410104618BD00002800002070470068FF
:100B200012B1016100207047C160FBE72DE9F84F69
:100B3000044600200A9D0090A0684FF4807A802827
:100B400017D0E06BB8B1606CA8B1E06C98B194F8C4
:100B50003400012813D0012084F8340094F8356063
:100B60000020012E0DD084F8340002200090BDE852
:100B7000F88F504600E0402060650120F7E7022032
:100B8000F5E7022684F8356060652068066846F45B
:100B900080260660206803612B462046FFF7B0FDE3
:100BA000DFF800844FF4006B4FF4001EFE48FD4A4E
:100BB000FD4BFC4DFC4EFB4FDFF8ECC3DFF8E4933C
:100BC0002168483A603318351836303F0CF1780CFC
:100BD00009F13009414534D9814205D0914203D011
:100BE000994201D0A94201D1202125E0B14205D08E
:100BF000B94203D0614501D0494501D159461BE0B6
:100C0000DFF8A48308F13008414511D0DFF8948360
:100C1000A8F1180841450BD0DFF88C8308F1900843
:100C2000414505D0DFF87C8308F14808414501D1F2
:100C3000714601E04FF00061DFF86883A8F14C08CD
:100C400039E0DFF8648308F1A808414536D98142CC
:100C500005D0914203D0994201D0A94201D120216F
:100C600025E0B14205D0B94203D0614501D04945E4
:100C700001D159461BE0DFF8308308F130084145C7
:100C800011D0DFF82083A8F1180841450BD0DFF818
:100C9000188308F19008414505D0DFF8088308F172
:100CA0004808414501D1714601E04FF00061DFF88D
:100CB000F482A8F15008C8F8001072E0DFF8E8826A
:100CC00008F14808414536D9814205D0914203D008
:100CD000994201D0A94201D1202125E0B14205D09D
:100CE000B94203D0614501D0494501D159461BE0C5
:100CF000DFF8B48208F13008414511D0DFF8A48252
:100D0000A8F1180841450BD0DFF89C8208F1900843
:100D1000414505D0DFF88C8208F14808414501D1F2
:100D2000714601E04FF00061DFF87C82A8F1100805
:100D3000C8F80C1035E0814205D0914203D09942A9
:100D400001D0A94201D1202125E0B14205D0B9420C
:100D500003D0614501D0494501D159461BE0DFF878
:100D6000488208F13008414511D0DFF83882A8F1F7
:100D7000180841450BD0DFF8308208F19008414552
:100D800005D0DFF8208208F14808414501D17146BD
:100D900001E04FF00061DFF81082A8F11008C8F8F8
:100DA0000810DFF8008221684FF4806B4FF4801E3A
:100DB000414534D9814205D0914203D0994201D0B6
:100DC000A94201D1102125E0B14205D0B94203D09A
:100DD000614501D0494501D159461BE0DFF8C88182
:100DE00008F13008414511D0DFF8B881A8F11808A2
:100DF00041450BD0DFF8B08108F19008414505D09E
:100E0000DFF8A08108F14808414501D1714601E0B1
:100E10004FF08061DFF88C81A8F14C0839E0DFF8F1
:100E2000888108F1A808414536D9814205D0914210
:100E300003D0994201D0A94201D1102125E0B1424D
:100E400005D0B94203D0614501D0494501D1594689
:100E50001BE0DFF8548108F13008414511D0DFF87C
:100E60004481A8F1180841450BD0DFF83C8108F116
:100E70009008414505D0DFF82C8108F1480841452C
:100E800001D1714601E04FF08061DFF81881A8F1CF
:100E90005008C8F8001072E0DFF80C8108F148082B
:100EA000414536D9814205D0914203D0994201D0C3
:100EB000A94201D1102125E0B14205D0B94203D0A9
:100EC000614501D0494501D159461BE0DFF8D88082
:100ED00008F13008414511D0DFF8C880A8F11808A2
:100EE00041450BD0DFF8C08008F19008414505D09E
:100EF000DFF8B08008F14808414501D1714601E0B2
:100F00004FF08061DFF8A080A8F11008C8F80C103D
:100F100035E0814205D0914203D0994201D0A942E7
:100F200001D1102125E0B14205D0B94203D061457D
:100F300001D0494501D159461BE0DFF86C8008F12A
:100F40003008414511D0DFF85C80A8F11808414510
:100F50000BD0DFF8548008F19008414505D0DFF848
:100F6000448008F14808414501D1714601E04FF045
:100F70008061DFF83480A8F11008C8F80810DFF8A5
:100F8000248021684FF4007B4FF4002E414534D972
:100F9000814205D0914203D0994201D0A94205D1A6
:100FA000082125E05864024010600240B14205D09B
:100FB000B94203D0614501D0494501D1594617E0F6
:100FC000DFF8E08441450FD0DFF8DC8441450BD0E9
:100FD000DFF8D08408F16008414505D0DFF8C88407
:100FE00008F16008414501D1714601E04FF0007100
:100FF000DFF8B484A8F1340835E0DFF8A88408F1FC
:101000007808414532D9814205D0914203D09942B6
:1010100001D0A94201D1082121E0B14205D0B94255
:1010200003D0614501D0494501D1594617E0DFF8A9
:10103000748441450FD0DFF8708441450BD0DFF850
:10104000648408F16008414505D0DFF85C8408F14C
:101050006008414501D1714601E04FF00071DFF8B1
:101060004884A8F13808C8F800106AE0DFF8348432
:1010700008F11808414532D9814205D0914203D088
:10108000994201D0A94201D1082121E0B14205D005
:10109000B94203D0614501D0494501D1594617E015
:1010A000DFF8008441450FD0DFF8FC8341450BD0C9
:1010B000DFF8F08308F16008414505D0DFF8E883E8
:1010C00008F16008414501D1714601E04FF000711F
:1010D000DFF8D083A8F14008C8F80C1031E0814255
:1010E00005D0914203D0994201D0A94201D10821F3
:1010F00021E0B14205D0B94203D0614501D0494554
:1011000001D1594617E0DFF89C8341450FD0DFF845
:10111000988341450BD0DFF88C8308F16008414586
:1011200005D0DFF8848308F16008414501D171469C
:1011300001E04FF00071DFF86C83A8F14008C8F8B7
:101140000810DFF86483216808F118084FF4802B39
:101150004FF0807E41452FD9814205D0914203D086
:10116000994201D0A94201D1042120E0B14205D029
:10117000B94203D0614501D0494501D1514616E03D
:10118000DFF8208341450FD0DFF81C8341450BD0A9
:10119000DFF8108308F16008414505D0DFF80883C7
:1011A00008F16008414501D1594600E07146DFF879
:1011B000F882A8F1340834E0DFF8E88208F1780812
:1011C000414531D9814205D0914203D0994201D0A5
:1011D000A94201D1042120E0B14205D0B94203D097
:1011E000614501D0494501D1514616E0DFF8B4828E
:1011F00041450FD0DFF8B08241450BD0DFF8A48223
:1012000008F16008414505D0DFF89C8208F16008CC
:10121000414501D1594600E07146DFF88C82A8F1C2
:101220003808C8F8001068E0DFF8788208F118087C
:10123000414531D9814205D0914203D0994201D034
:10124000A94201D1042120E0B14205D0B94203D026
:10125000614501D0494501D1514616E0DFF844828D
:1012600041450FD0DFF8408241450BD0DFF8348292
:1012700008F16008414505D0DFF82C8208F16008CC
:10128000414501D1594600E07146DFF81882A8F1C6
:101290004008C8F80C1030E0814205D0914203D0DC
:1012A000994201D0A94201D1042120E0B14205D0E8
:1012B000B94203D0614501D0494501D1514616E0FC
:1012C000DFF8E08141450FD0DFF8DC8141450BD0EC
:1012D000DFF8D08108F16008414505D0DFF8C8810A
:1012E00008F16008414501D1594600E07146DFF838
:1012F000B481A8F14008C8F80810DFF8AC81216873
:1013000008F118084FF4803A4FF4800B414527D973
:10131000814205D0914203D0994201D0A94201D126
:1013200001201AE0B14205D0B94203D0614501D095
:10133000494501D1402010E05A4881420AD05A481C
:10134000814207D057486030814203D05648603010
:10135000814201D1504600E05846534934392CE0CF
:10136000DFF8408108F17808414528D9814205D04D
:10137000914203D0994201D0A94201D101201AE043
:10138000B14205D0B94203D0614501D0494501D1F0
:10139000402010E0434881420AD04348814207D0B0
:1013A00040486030814203D03F486030814201D1E3
:1013B000504600E058463C493839086056E0DFF8AE
:1013C000E48008F11808414528D9814205D09142AE
:1013D00003D0994201D0A94201D101201AE0B142C3
:1013E00005D0B94203D0614501D0494501D1402023
:1013F00010E02C4881420AD02B48814207D029486E
:101400006030814203D028486030814201D150468B
:1014100000E0584623494039C86027E0814205D0A2
:10142000914203D0994201D0A94201D101201AE092
:10143000B14205D0B94203D0614501D0494501D13F
:10144000402010E0174881420AD01748814207D057
:1014500014486030814203D013486030814201D18A
:10146000504600E058460F494039886020680168BE
:1014700041F0160101602068416941F0800141613D
:10148000206C08B9A06C20B12068016841F0080107
:1014900001602068016841F0010101600098BDE829
:1014A000F88F000040600240406402402DE9F041A6
:1014B0000446876D00F0DAFA064694F835000025F8
:1014C000022806D08020606584F834500120BDE8F1
:1014D000F0812068016821F01601016020684169EF
:1014E00021F080014161206C08B9A06C20B1206816
:1014F000016821F0080101602068016821F0010104
:1015000001600CE000F0B2FA801B052807D920200A
:101510006065032084F8350084F83450D7E72068EC
:101520000068C007EED194F85C103F208840B86096
:10153000012084F8350084F834500020C7E790F883
:101540003510022903D08021416501207047052113
:1015500080F835100068016821F001010160002069
:10156000704700002DE9F84304464FF00009CDF81C
:10157000009063484FF41651A56D0068B0FBF1F779
:101580002E6894F85C10082000FA01F131420FD067
:1015900021680A6852070BD50A6822F004020A6023
:1015A00094F85C108840A860606D40F001006065B0
:1015B00094F85C104FF0010808FA01F0304208D0AE
:1015C00021684969090604D5A860606D40F00200F1
:1015D000606594F85C1004208840304208D021688F
:1015E0000968890704D5A860606D40F00400606553
:1015F00094F85C1010208840304218D021680968A7
:10160000090714D5A86020680168490304D500685B
:10161000000308D5A16C07E00168C90503D401687F
:1016200021F008010160216C09B12046884794F837
:101630005C1020208840304231D021680968C906FA
:101640002DD5A86094F8350005282068016806D0DB
:10165000490347D5006800031DD4616C1CE021F0EC
:10166000160101602068416921F080014161206C10
:1016700008B9A06C20B12068016821F00801016060
:1016800094F85C103F208840A86084F8358084F886
:101690003490216D1FE0E16B09B120468847606DF1
:1016A00000282BD0606DC00714D0052084F83500C9
:1016B0002068016821F0010101600098401C009041
:1016C000B84203D820680068C007F6D184F8358096
:1016D00084F83490E16C002910D001B02046BDE8B8
:1016E000F04308470168C905D5D4016821F010010D
:1016F000016084F8358084F83490CCE7BDE8F88345
:10170000280000202DE9F041044600F0AFF906461C
:101710005CB1022084F83500002584F8345020683C
:10172000016821F0010101600DE00120BDE8F081B8
:1017300000F09CF9801B052805D920206065032056
:1017400084F83500F2E720680068C007F0D122680D
:10175000116820480140D4E901031843D4E9033655
:101760003343184363691843A3691843E369184373
:10177000236A18430843616A042903D1D4E90B138F
:1017800019430843106020684069666A20F0070129
:1017900030460E43012704280CD1A06A0643E06AB4
:1017A00040B12046FEF782FF20B14020606584F8FA
:1017B0003570BAE7206846612046FEF763FF94F86B
:1017C0005C203F2191408160656584F83570002080
:1017D000ACE700003F8010F02DE9F0410446866D33
:1017E00090F83400002501280DD0012084F8340041
:1017F00094F835700020012F07D084F834000225BA
:101800002846BDE8F0810220FBE7022784F8357006
:1018100060652046FEF783FF94F85C103F20884007
:10182000B0602068016841F016010160206C20B1B1
:101830002068016841F0080101602068016841F0FA
:1018400001010160DCE7000070B5044600F00EF90C
:101850000546601C02D004480078044400F006F9F4
:10186000401BA042FAD370BD1C0000202DE9F84FA8
:10187000DFF8ACA10022012403254FF00F090AF183
:10188000040BAAF1040E00BF0B6804FA02F6334001
:10189000B3426ED10F7907F00307012F01D0022F59
:1018A00016D187684FEA420805FA08FC27EA0C07B8
:1018B000D1F80CC00CFA08FC4CEA070CC0F808C0C0
:1018C0004768B7430E79C6F3001696403E4346601C
:1018D0000E79F643B6070AD0C6684FEA420C05FAFD
:1018E0000CF7BE438F6807FA0CF73743C7600E79D1
:1018F00006F00306022E10D1D60800EB8608D8F8B1
:10190000206057074FEAD76C09FA0CF7BE430F69FE
:1019100007FA0CF73743C8F8207006684FEA420C04
:1019200005FA0CF7BE430F7907F0030707FA0CF727
:10193000374307604E6816F4403F6BD0394E376826
:1019400047F480473760366822F0030706F4804684
:101950000096354E07EB060CDCF8086897074FEA4F
:10196000177809FA08F7BE43304FB84202D1002772
:101970001FE04FE02E4FB84201D1012719E02D4F53
:10198000B84201D1022714E02B4FB84201D10327FE
:101990000FE02A4FB84201D104270AE0284FB8428D
:1019A00001D1052705E0274FB84201D1062700E005
:1019B000072707FA08F73743CCF80878DAF8006009
:1019C0005746D1F804C09E435FEACC2C00D51E4395
:1019D0003E60DBF800605F46D1F804C09E435FEADA
:1019E0008C2C00D51E433E60DEF800607746D1F8AF
:1019F00004C09E435FEA8C3C00D51E433E60084F06
:101A0000083F3E68D1F804C09E435FEACC3C00D555
:101A10001E433E60521C102AFFF436AFBDE8F88F1B
:101A2000083C0140443802400030014000000240C0
:101A30000004024000080240000C02400010024076
:101A400000140240001802400069084000D0012044
:101A50007047426921EA02030A4043EA0241816178
:101A600070470AB1816170470904FBE7014880684B
:101A7000704700001C00002070B5040025D094F8C9
:101A80003D00002520B984F83C50204600F03EFA85
:101A9000242084F83D002068016821F001010160E4
:101AA0002068016841F4004101602068016821F468
:101AB0000041016000F0E4FB4D4A6168914201D8A9
:101AC0004C4900E04C49884201D2012070BD4B498D
:101AD0002368B0FBF1F15E6826F03F060E435E60BE
:101AE0006368934206D94FF4967359434FF47A735F
:101AF000B1FBF3F12368491C1E6A26F03F0631430F
:101B000019626168914210D84900401EB0FBF1F2A1
:101B1000521CC2F30B02042A01D2042022E0B0FBC3
:101B2000F1F0401CC0F30B001CE0A268F2B301EB23
:101B3000C10303EB0116431EB3FBF6F35B1C43F436
:101B400080431B0549D092B301EBC10202EB0111A6
:101B5000401EB0FBF1F0401CC0F30B0040F480408D
:101B600040F400402168CA694CF6FF739A43104361
:101B7000C861D4E9071001432068026822F0C0025E
:101B800011430160D4E9030101432068826848F2EF
:101B9000FF339A4311438160D4E90501084321686A
:101BA000CA6822F0FF021043C86001E00EE016E0B0
:101BB0002068016841F0010101602564202084F85B
:101BC0003D00256384F83E50002070BD01EB4106C6
:101BD000431EB3FBF6F35B1CB3E70120C2E701EB46
:101BE0004101401EB0FBF1F0401CC0F30B00B7E711
:101BF000A086010080841E0000093D0040420F00C5
:101C00002DE9F84F1F4690468A460446DDF8289095
:101C1000FFF72CFF054694F83D00202875D11923C5
:101C200001226C492046009501F088F80028F5D182
:101C300094F83C00012868D0012084F83C0020681A
:101C40000168C90703D1016841F001010160206802
:101C5000016821F400610160222084F83D00102019
:101C600084F83E0000262664C4F824806785608DD1
:101C700020855948E0622B464A465146204600F0EE
:101C800073FF002878D1208D544F68B1012814D0FB
:101C900002282068016816D041F480610160206844
:101CA00041698069009087E02068416981690091FD
:101CB000016841F4007101607EE02068016821F450
:101CC00080610160F0E721F48061016020680168B3
:101CD00041F40061E2E7032848D801280AD002282D
:101CE00014D04B46002239462046009501F026F8D4
:101CF000D8BB27E02A464946204601F09EF8A0BB03
:101D000020680069616A08704DE061E04B4600227E
:101D100039462046009501F011F830BB2068016873
:101D200041F40071016020680069616A0870606AAE
:101D3000401C6062218D491E2185618D491E61858F
:101D400021682EE02068016821F48061016020682C
:101D50000069616A0870606A401C6062208D401EE4
:101D60002085608D401E6085D0E705E02A46494603
:101D7000204601F062F810B10120BDE8F88F20681C
:101D80000069616A0870606A401C6062218D491EAA
:101D90002185618D491E618521684A69D2435207B8
:101DA0000AD409690170606A401C6062208D401E7F
:101DB0002085608D401E6085208D00288BD12020DD
:101DC00084F83D0084F83E6084F83C600020D4E74D
:101DD0000220D2E7020010000000FFFF0400010013
:101DE0002DE9F84F1F4690468A460446DDF82890B4
:101DF000FFF73CFE054694F83D0020287FD11923CB
:101E0000012240492046009500F098FF002876D135
:101E100094F83C00012872D0012084F83C0020682E
:101E20000168C90703D1016841F001010160206820
:101E3000016821F400610160212084F83D00102038
:101E400084F83E0000262664C4F824806785608DEF
:101E500020852D48E0622B464A465146204600F038
:101E6000F9FE90B9206841698069009036E02A4601
:101E70004946204601F014F850B1206C042804D1E2
:101E80002068016841F4007101600120BDE8F88F0D
:101E9000606A216800780861606A401C6062618D38
:101EA000491E6185218D491E89B2218522685369A9
:101EB000DB435B070BD451B100781061606A401CB2
:101EC0006062608D401E6085208D401E20852A4600
:101ED0004946204600F00CFF0028CED1208D002876
:101EE000C5D154F83D0B016841F400710160202018
:101EF00004F81E09E67766770020C7E7FFE70220AF
:101F0000C4E70000020010000000FFFFF0B587B03A
:101F1000044614216846FEF7F0FA1D4920688842FD
:101F200033D11C480024016841F0020101600168BE
:101F300001F002010591016841F0040101600068AF
:101F4000122500F0040005904FF48060CDE90005F3
:101F500002AA0326042782E8D00069460E48FFF74C
:101F600085FCB802CDE9000502AA694682E8D000E6
:101F70000A48FFF77BFC07481030016841F48001F4
:101F80000160006800F48000059007B0F0BD00001B
:101F9000005800403038024000040240000802406F
:101FA0000248816802781144816070471C0000205B
:101FB0000B4810B5016841F400710160016841F4FB
:101FC00080610160016841F480710160032000F0CC
:101FD00073F80F2000F006F800F024F8002010BD80
:101FE000003C024070B50D4D04464FF47A712878DC
:101FF000B1FBF0F00A490968B1FBF0F000F078FBA2
:1020000048B9102C07D200222146501E00F034F8A7
:1020100000206C6070BD012070BD00001C0000201D
:10202000280000200C4882B0016841F48041016022
:10203000006800F4804000900748001F016841F0EC
:10204000805101600068002200F0805000900F2154
:10205000901E02B000F010B844380240002809DB9E
:1020600000F01F02012191404009800000F1E020B2
:10207000C0F8001170470000F0B40E4B1B680C460E
:10208000C3F30223C3F10705042D00D90425191D4C
:10209000072901D2002300E0DB1E012606FA05F124
:1020A000491E214099409E40761E16403143F0BCA7
:1020B00001F0F1BA0CED00E0064900F007020868F3
:1020C0004FF6FF03184040EA0220034A104308601D
:1020D000704700000CED00E00000FA052DE9F84320
:1020E0001748016841F0805101600068154F00F009
:1020F0008050012600903E64FFF7B8FC05464FF47F
:102100007A78114C05E000BFFFF7B0FC401B40455A
:102110000DD86068C003F7D57E64FFF7A7FC0546BD
:10212000464607E0FFF7A2FC401BB04202D903205D
:10213000BDE8F88360688003F4D50020F8E700006C
:102140004038024000000E42007000402DE9F04788
:102150000E46050065D0DFF81481D8F80000F7B20C
:1021600000F00F00B04207D288F80070D8F80000E5
:1021700000F00F00B04254D128683D4C810712D5C1
:10218000400703D5206840F4E0502060287800071D
:1021900003D5206840F4604020602068A96820F0E2
:1021A000F000084320602878C0072DD030496868C7
:1021B0000839012812D0022813D0032811D0096849
:1021C000890700292DDA216821F0030101432160EC
:1021D000FFF74CFC814641F2883A0EE0096889031A
:1021E000EFE709688901ECE7FFF740FCA0EB090184
:1021F000514502D90320BDE8F0872068696800F0E6
:102200000C00B0EB810FEFD1D8F80010404601F080
:102210000F01B14207D90770006800F00F00B0420B
:1022200001D00120E7E72878400705D52068E96854
:1022300020F4E050084320602878000706D5206885
:10224000296920F4604040EAC100206000F038F8BD
:102250002168084AC1F30311515CC840064908606F
:1022600006480068FFF7BEFE0020C4E7003C0240BD
:10227000083802400C4800082800002020000020F8
:102280000448054900680968044AC1F38221515C89
:10229000C840704728000020083802401C48000849
:1022A0000448054900680968044AC1F34231515C99
:1022B000C840704728000020083802401C48000829
:1022C000224810B5006810F00C02214815D02149B1
:1022D000042A11D01D4C241F082A0FD00C2A0CD11F
:1022E0002268236802F03F025B0221D52068C0F318
:1022F0008810A0FB010120E0084610BD2268236879
:1023000002F03F025B0205D52068C0F38810A0FBF5
:10231000010104E02168C1F38811A1FB0001002341
:10232000FEF720F82168C1F30141491C49000AE089
:102330002168C1F38811A1FB00010023FEF712F808
:102340002168C1F30271B0FBF1F010BD0838024002
:102350000024F40040787D012DE9F84F04007DD081
:10236000DFF878B32078ABF10407C007A7F10405C4
:1023700050D0DBF800105846C1F3810101290FD07D
:102380000168C1F38101022902D13968490207D4E9
:102390000068C0F38100032809D13868400206D5DF
:1023A0002868800336D560680028D8D032E060689D
:1023B000B0F5803F10D0B0F5A02F286810D020F4E1
:1023C00080302860286820F4802028606068A0B1F0
:1023D000FFF74CFB06460CE0286840F48030F4E739
:1023E00040F480202860F7E7FFF740FB801B64285B
:1023F00076D828688003F7D50CE0FFF737FB064650
:1024000005E000BFFFF732FB801B6428F0D8286886
:102410008003F7D42078DFF8C89280074FF0000AD5
:1024200044D5DBF80010584611F00C0F0FD00168AE
:10243000C1F38101022902D13968490207D5006838
:10244000C0F3810003280AD13868400207D4286805
:10245000800715D5E068012800D111E03AE1E06875
:10246000B0B10120C9F80000FFF700FB064604E008
:10247000FFF7FCFA801B0228BAD828688007F7D536
:102480002868216920F0F80040EAC10028600DE0CA
:10249000C9F800A0FFF7EAFA064604E0FFF7E6FAFB
:1024A000801B02281CD828688007F7D420780007F2
:1024B00027D5DFF828828B48616908F16C0881B163
:1024C00001210160FFF7D2FA064604E0FFF7CEFAD9
:1024D000801B022804D8D8F800008007F6D510E049
:1024E00089E0C0F800A0FFF7C1FA064605E000BF8A
:1024F000FFF7BCFA801B02287DD8D8F800008007BF
:10250000F6D42078400769D574484FF00008383079
:102510000068C0000BD471483830016841F0805128
:10252000016000684FF0010800F0805000906E4E8E
:102530003068C00511D4306840F480703060FFF717
:1025400095FA009006E000BFFFF790FA0099401A54
:10255000022850D83068C005F6D5604EA0686836AD
:1025600001280FD00528306810D020F0010030601D
:10257000306820F004003060A068B8B1FFF776FA48
:1025800000900FE0306840F00100F4E740F00400F4
:102590003060F7E7FFF76AFA0099411A41F2883094
:1025A000814264D830688007F4D50EE0FFF75EFA08
:1025B000009007E0FFF75AFA0099411A41F288307B
:1025C000814254D830688007F4D4B8F1000F05D0A8
:1025D00042483830016821F080510160A069A8B3F9
:1025E000DBF80010C1F38101022947D00228C9F8A5
:1025F00060A005D000E03AE0FFF738FA044639E081
:10260000FFF734FA064604E0FFF730FA801B022891
:102610002DD828688001F7D4F4E907010843E16860
:10262000324A490802EB0141A26841EA821108439B
:10263000217C40EA0160217D40EA01703860012080
:10264000C9F86000FFF712FA044606E044E000BF54
:10265000FFF70CFA001B022809D828688001F7D57B
:102660003AE000BFFFF702FA001B022802D903205C
:10267000BDE8F88F28688001F4D42DE00128F7D058
:102680003868E26900F48001914223D1226A00F0A7
:102690003F0191421ED147F6C071626A0140B1EB21
:1026A000821F17D1A26A4FF0FF3300F4403103EBD1
:1026B0005202B1EB024F0DD194F82C2000F0706162
:1026C000B1EB026F06D194F8301000F0E040B0EBAF
:1026D000017F01D00120CBE70020C9E70838024084
:1026E00000004742800E4742007000400000FFFF9C
:1026F00010B5401EB0F1807F01D3012010BD4FF016
:10270000E02460610F21601700F0C5FF0020A06188
:1027100007202061002010BD70477047F8B50168A0
:1027200004460868CA684B6910F00F0F4FF00005A7
:1027300059D003F0010602F49077374365D0C10702
:1027400005D0D10503D5216C41F001012164410779
:1027500005D5D90703D0216C41F00201216481071E
:1027600005D5D90703D0216C41F00401216401078C
:1027700007D502F02001314303D0216C41F008015C
:102780002164216C00293AD0800604D5900602D538
:10279000204600F093FE20684069216CC0F3801051
:1027A000090700D460B3204600F053FE206840695A
:1027B000400621D52068143050E8001F21F0400168
:1027C00040E80012002AF5D1A06BA8B16C49016560
:1027D000A06BFEF7B4FE002811D0A06B016D01B014
:1027E000BDE8F040084783060FD593060DD5204677
:1027F000BDE8F84000F062BE2046FFF78EFFF8BD4E
:102800002046FFF78AFF2564F8BD266B2023012EA2
:1028100079D1C60677D5D60675D508684868009080
:102820004869400640D5A16B086840680004000C68
:10283000EAD0A28D8242E7D9E085C869B0F5807FF1
:102840002DD020680C3050E8001F21F4807140E842
:102850000012002AF5D12068143050E8001F21F042
:10286000010140E80012002AF5D12068143050E838
:10287000001F21F0400140E80012002AF5D184F841
:102880003E30256320680C3050E8001F21F0100115
:1028900040E80012002AF5D1A06BFEF707FEA08DDC
:1028A000E18D401A81B229E0A08DE18D401A81B2FC
:1028B000E08D0028A8D00029A6D020680C3050E870
:1028C000002F22F4907240E80026002EF5D12068F7
:1028D000143050E8002F22F0010240E80026002EBC
:1028E000F5D184F83E30256320680C3050E8002F85
:1028F00022F0100240E80023002BF5D12046FFF71C
:102900000BFFF8BDFFE705062BD5150629D594F872
:102910003D002128F5D1A068B0F5805F01D1206984
:10292000B0B1206A411C2162216800784860E08CC7
:10293000401E0004000CE084E3D12068C16821F04F
:102940008001C1602068C16841F04001C160D8E7E2
:10295000206A0088C0F308004860206A801C20625A
:10296000E5E74006CDD55006CBD5CA68204622F013
:102970004002CA6084F83D3000F0DCF8C1E7000096
:10298000AD33000870B5040004D094F83D00002574
:1029900010B106E0012070BD84F83C50204600F0E4
:1029A00023F8242084F83D002068C16821F40051F8
:1029B000C160204600F0E2FD2068016921F49041E9
:1029C00001612068416921F02A0141612068C168E4
:1029D00041F40051C1602564202084F83D0084F852
:1029E0003E00002070BD0000F0B587B006461421FF
:1029F0006846FDF782FD26493068884245D1254862
:102A00000025016841F480210160006800F4802005
:102A1000059020481038016841F004010160006809
:102A200001A900F0040005904FF48460009002209A
:102A3000032781E8A1000720049069461648FEF7A5
:102A400015FF174C154820604FF000606060402073
:102A5000C4E902050001C4E90405A5610420E5619B
:102A6000C4E90850C4E90A7520462563FEF74AFE0A
:102A700008B1FDF769FE7463002205212720A663D3
:102A8000FFF7FAFA2720FFF7E9FA07B0F0BD0000D8
:102A900000480040403802400008024058600240B0
:102AA000F00101207047000070B5044690F83D0029
:102AB000202836D191B38AB394F83C00012830D055
:102AC000012084F83C002162A284E2840025256470
:102AD000212084F83D00636B1348D863636B13486F
:102AE0001864636B1248D864606B134605652668EA
:102AF000606B321DFEF770FE21686FF040000860C9
:102B000084F83C502068143050E8001F41F08001E8
:102B100040E80012002AF5D1002070BDFFE7012037
:102B2000FBE70220F9E700000734000849340008F9
:102B3000BD33000870477047FEE701684A69D24319
:102B400052050FD46FF480624A61002140F8301FB3
:102B5000202242738173026942F004020261017310
:102B600001207047002070472DE9F84F0446C06AE5
:102B70001E4693460D4621680A6842F480620A6048
:102B8000082807D0012805D010F5803F02D0206B1F
:102B9000112804D12068016841F4807101604FF070
:102BA00001195B46002249462046009600F0C6F80F
:102BB0004FF4007840B120680068C00501D5C4F822
:102BC00040800320BDE8F88F2069DFF884A0B0F5CD
:102BD000804F0FD00620216800EAD51747F0F0009B
:102BE000086133465A460AF10601204600F0DAF839
:102BF00058BB03E0E8B240F001001CE02168E8B2F5
:102C0000086133465A465146204600F0CBF8E0B9F9
:102C10002068416981690091016841F48071016017
:102C20005B46002249462046009600F087F80028BF
:102C3000C1D147F0F1002168086133465A46514638
:102C4000204600F0AFF80028BCD00120BAE7000011
:102C500002000100F8B50446C06A1E460D4617463C
:102C6000082807D0012805D010F5803F02D0206B3E
:102C7000122804D12068016841F480710160134674
:102C800000224FF001112046009600F057F840B1A5
:102C900020680068C00502D54FF40070206403204E
:102CA000F8BD2069B0F5804F0ED00620216800EAFB
:102CB000D51040F0F000086133463A460B492046F3
:102CC00000F070F878B902E005F0FE0000E0E8B22C
:102CD00021680861054933463A46891F204600F0BD
:102CE00061F80028DCD00120F8BD000008000100D8
:102CF00070B516460D4604460DE02046FFF71DFF51
:102D000008B1012070BD681C05D0FEF7AFFE801B26
:102D1000A84207D835B120684069C0434007ECD4C9
:102D2000002070BD002044F8300F20216173A07393
:102D3000216941F0200121612073E2E72DE9F0478C
:102D40001E4690460D460446C1F30747DDF8209025
:102D500008E0701C06D0FEF789FEA0EB0900B04227
:102D60000FD876B12068012F18D0806925EA0000BD
:102D70000004000C14D000214145EAD00020BDE839
:102D8000F087002044F8300F20216173A07321697F
:102D900041F02001216120730120F0E74069E5E75F
:102DA0000121E9E72DE9F0479A4691460E4604468F
:102DB00000254FF02008C1F3074725E0206840694F
:102DC000C043400514D42068016841F400710160DB
:102DD00021686FF480604861256384F83D8084F841
:102DE0003E50206C40F00400206484F83C501FE00A
:102DF000B9F1FF3F08D0FEF739FEA0EB0A014945C3
:102E00000CD8B9F1000F09D02068012F13D08069C8
:102E100026EA00000004000C0BD0CFE744F8305F36
:102E200084F80D80A573206940F02000206125738F
:102E30000120BDE8F0874069EAE72DE9F04100256F
:102E400090460E460446202717E04069C043C0065E
:102E50000CD454F8301B6FF01000486144F810593E
:102E60006777A577206A2062257717E0FEF7FEFDD9
:102E7000A0EB0800B04208D83EB120684169C943C0
:102E80004906E2D40020BDE8F08144F8305F677362
:102E9000A573206940F02000206125730120F2E72E
:102EA00070B516460D4604460DE02046FFF745FE78
:102EB00008B1012070BD681C05D0FEF7D7FD801B4E
:102EC000A84207D835B120684069C0430006ECD459
:102ED000002070BD002044F8300F20216173A073E2
:102EE000216941F0200121612073E2E70D4810B50E
:102EF0000B49016000212022C0E90112C16001617B
:102F0000416108228161C0E908218162C1620163D7
:102F1000FDF76AFC002801D072B6FEE710BD000084
:102F20000000055094000120F8B51D4800250168F7
:102F300041F001010160016801F0010100910168A7
:102F400041F004010160016801F004010091016891
:102F500041F0020101600068124C00F00200009094
:102F6000202020600126C4E9016521460E48E56065
:102F7000FEF77CFC0C20C4E900060220C4E90260D4
:102F80000A4F21463846FEF771FC70032060C4E901
:102F9000016521463846E560BDE8F840FEF766BCAD
:102FA00030380240E40001200000024000080240E6
:102FB000FEE7FEE710B5094C0B46024602216068A9
:102FC000FDF7E0FC4FF4FA60FEF73EFC6068FDF7A9
:102FD0006FFD6068BDE81040FDF730BD00000020C7
:102FE000F8B507465FF0000407EB440017F81450EB
:102FF0004678FF2D01D1FF2E11D06946284600F0FA
:10300000CDF83146284600F0E9F80A20FEF71CFC0E
:103010006946284600F0C2F8641CA4B2E4E7F8BD93
:1030200010B5114A114CC2E90001002208212046C6
:10303000FEF717FD6420FEF707FC01220821204659
:10304000FEF70FFD6420FEF7FFFB0121FF2000F0DB
:10305000C5F88021122000F0C1F86420FEF7F4FBCF
:10306000BDE8104000F064B80000002000080240F5
:1030700010B504461948FFF7B3FF1948FFF7B0FF32
:1030800017481430FFF7ACFF0A20FEF7DDFB0121E3
:10309000FF2000F0A3F80A20FEF7D6FB0021152040
:1030A00000F09CF8062C07D2DFE804F00306090CB8
:1030B0000E110B4826300CE00948763009E008482C
:1030C000C63006E0074804E00648523001E00548F3
:1030D000A030BDE81040FFF783BF0000A242000807
:1030E000204400083845000846F2BF32811A904259
:1030F00016D009DC00F25330B0F5804015D001281D
:103100000CD002280AD110E0A1F56261B1F580412E
:1031100008D0A1F56261B1F5804F05D0012004E02F
:10312000032002E0042000E00520FFF7A1BF00001B
:10313000044810B54068FDF781FCBDE810400A2046
:10314000FEF782BB0000002010B596B01C2211498A
:103150006846FDF77EF90021684600F031FB0E4C11
:103160000C491C2220601C3107A8FDF772F90021D0
:1031700007A800F025FB074960601C2238310EA823
:10318000FDF767F900210EA800F01AFBA06016B049
:1031900010BD0000B047000810000020F3B581B05A
:1031A0000F46002472B664250B4E0095012301AA38
:1031B00060213068FEF714FE18B1022462B6204682
:1031C000FEBD009501233A4661213068FEF718FDE7
:1031D0000028F3D00124F1E7000000201CB50024F2
:1031E00001948DF804008DF8051072B664200090EB
:1031F0000548022301AA60210068FEF7F1FD00B92D
:10320000012462B620461CBD00000020044C202191
:103210002046FEF71EFC642000F0C6FAF7E7000027
:1032200000000240264DDFF89C80274C274E4FF4CB
:10323000005B4FF6FF794FF0000A012759462448FA
:10324000FEF702FCC8B330780128F7D149461C4884
:10325000FDF731F91F4801881948FFF7ABFE4146D9
:103260004A46087810B101280AD011E020882B5C6A
:10327000FF2B0DD128444078D82809D10F7007E0E2
:1032800020882B5CFF2B03D128444078D92805D017
:103290002088904207D2401C2080E2E72088801CD2
:1032A000208088F800A0228805490B48FFF7FCFB26
:1032B000A4F800A086F800A0C0E7FFE73770BDE7DC
:1032C000940000200E0000200C0000200A000020C6
:1032D00000080240080000204C010120642000F09A
:1032E00063FAFBE710B5FEF75BFE00F0FFFE012876
:1032F00003D0BDE8104000F08BBE10BD30B593B0D8
:1033000034216846FDF7F9F814210DA8FDF7F5F80A
:1033100020480025016841F080510160006800F0FC
:10332000805012901C48016841F4404101600068DF
:10333000022400F4404012900120039010200490D9
:10334000009406940820CDE90750B420CDE9090483
:103350000B9468460C94FEF7FFFF08B172B6FEE7C7
:10336000FEF7BCFE08B172B6FEE70DA90F2081E89A
:1033700031004FF4A05010904FF48050119005216F
:103380000DA8FEF7E3FE002801D072B6FEE713B0E9
:1033900030BD000040380240007000400248016823
:1033A00041F470010160704788ED00E010B5806B5A
:1033B0000021C185C184FFF7B0F910BD70B5846BE1
:1033C0002068406994F83D10C0F3C0100025212901
:1033D00004D118B1E584204600F062F82068406905
:1033E00094F83E10C0F38010222904D118B1E5856D
:1033F000204600F02EF8206C40F01000206420469B
:10340000FFF78BF970BD10B50146806B096809683C
:10341000C90516D40021C1840168143151E8002F78
:1034200022F0800241E80023002BF5D101680C3125
:1034300051E8002F42F0400241E80023002BF5D173
:1034400010BDFFF777FB10BD10B5806BFFF773FB66
:1034500010BD01680C3151E8002F22F4907241E850
:103460000023002BF5D10168143151E8002F22F020
:10347000010241E80023002BF5D1016B012909D19C
:1034800001680C3151E8002F22F0100241E80023BE
:10349000002BF5D1202180F83E10002101637047F8
:1034A00001680C3151E8002F22F0C00241E80023EE
:1034B000002BF5D1202180F83D10704708B590F819
:1034C0003E10222901D0022008BD82684FF48053AB
:1034D0009A4201D1016921B1816A9A421BD04AB155
:1034E0000AE00268816A5268C2F308020A80816AAF
:1034F000891C08E0026972B10268526802F07F021A
:103500000A70816A491C8162C18D491E0904090C37
:10351000C18503D019E002685268F1E70168CA6802
:1035200022F02002CA600168CA6822F48072CA6070
:1035300001684A6922F001024A61202180F83E10A8
:10354000016B012903D0FFF7ADFA002008BD00216F
:10355000016301680C3151E8002F22F0100241E8AC
:103560000023002BF5D101680A68D20602D50A684B
:1035700049680091818DFFF7CFF8E6E770B5044602
:1035800000680169E26821F4405111430161216939
:10359000A068E26908436169114308432168CA6869
:1035A00049F20C639A430243CA6020684169A269E8
:1035B00021F440711143416131492068884202D0B1
:1035C0003049884202D1FEF76BFE01E0FEF758FE5B
:1035D000E2690023192164253226B2F5004F6268A2
:1035E00028D0A0FB0101930F9200FCF7BBFE01461F
:1035F000B0FBF5F06FF01802504301EB800006EBD2
:103600000010B0FBF5F000F0F002B1FBF5F002EBBA
:103610000012B1FBF5F06FF01803584301EB800086
:1036200006EB0010B0FBF5F000F00F00216810442D
:10363000886070BDA0FB010192185B41FCF792FE0F
:103640000146B0FBF5F00201B1FBF5F06FF0180395
:10365000584301EB800006EBC000B0FBF5F000F032
:10366000F80002EB4002B1FBF5F0584301EB80009B
:1036700006EBC000B0FBF5F000F00700D6E7000055
:1036800000100140001401400148FFF747B8000056
:103690004C010120FEE70907090E002804DB00F1B8
:1036A000E02080F80014704700F00F0000F1E020E7
:1036B00080F8141D7047000008B5FEF779FCFFF78D
:1036C0001DFEFFF731FC2F480024016841F4800102
:1036D0000160016801F480010091016841F400116A
:1036E00001600068224600F40010009005210E20C1
:1036F000FEF7C2FC0E20FEF7B1FC002205213920A6
:10370000FEF7BAFC3920FEF7A9FCFFF7EFFB1F48D4
:103710001D4901601E49C0E901144FF48041C0E910
:10372000034144618461C4610462FEF7A5F908B1F4
:1037300072B6FEE715481749543001604FF4E13185
:10374000C0E901140C21C460C0E904418461C46172
:10375000FFF718F908B172B6FEE70C490B48643957
:10376000FFF75EFC0A20FEF76FF80B480088FFF7B2
:10377000BBFC0A20FEF768F8FFF7E6FC00F01BF838
:10378000FEE700003038024000580040F8000120F9
:10379000A0860100004800400800002001460020EB
:1037A000842900D0C81C704710B500B9012000F072
:1037B00023FB002010BD10B500F044FB002010BD1D
:1037C0007FB50D4604464169B0F9080081B1A16991
:1037D00071B1FFF7E3FFD4E905128DE80700D4E9E2
:1037E00000102B46226900F056FC039004B070BD17
:1037F000FFF7D4FF03A9CDE90001208A2B4682B24E
:10380000D4E9001000F01AFC012801D00020EDE7F7
:103810000398EBE72DE9F041184C0F460546E668A2
:103820002068001D00F020FA38B9206890F82C10AC
:1038300001208840216981432161681C07D137B18B
:103840002168BDE8F0410E48091D00F051BA20681A
:103850003544B5424560216805D2A06BBDE8F04112
:10386000091D00F02DBA606B091D00F029FAA06A4D
:10387000854200D2A562BDE8F08100002C00002046
:10388000800501202DE9F041054600F03DFA2E4C5F
:10389000A068401CA06020682C4F10B1606940B344
:1038A0002DE02560A068012829D1002606EB8600BE
:1038B00007EB800000F0F6F9761C072EF6D32348BC
:1038C0008C3000F0EFF92148A03000F0EBF91F48F0
:1038D000B43000F0E7F91D48C83000F0E3F91B48A8
:1038E000DC3000F0DFF919488C3060631430A063DD
:1038F00005E02068E96AC06A884200D82560606AED
:10390000401C6062E96A01202269884010432061FE
:1039100001EB810007EB8000291D00F0E9F900F0C0
:1039200013FA606900280CD02068E96AC06A8842EE
:1039300007D207494FF080500860BFF34F8FBFF3A5
:103940006F8FBDE8F08100002C000020A40401204E
:1039500004ED00E010B5044690F8510058B101287C
:103960000CD002280FD0502080F31188BFF34F8F66
:10397000BFF36F8FFEE7206B00F0FAF92046BDE839
:10398000104000F0F5B910BD10484FF470514207D7
:1039900006D0C01D0D4920F00700411AC1F5705135
:1039A0000B4A00230144C2E900030839183A21F008
:1039B000070111604B600B600B1AC0E900139360A4
:1039C0004FF00040536050617047000094050120A3
:1039D00080000020144E154CA6F1C8074FF0805807
:1039E000DFF84C9012E000BF00F08EF9F068C56877
:1039F000281D00F039F9A068401EA0606068401ED4
:103A0000606000F0A1F92846FFF7A4FF6068002875
:103A1000EAD138680128F9D9C9F80080BFF34F8F7F
:103A2000BFF36F8FF2E700006C0501202C0000202F
:103A300004ED00E02DE9F0479A46DDE9098481466E
:103A40006FF00303206B03EB82021044089E20F00A
:103A50000707780707D0502080F31188BFF34F8FF6
:103A6000BFF36F8FFEE7002561B1002023180A5CC9
:103A700083F834200A5C12B1401C1028F6D384F875
:103A8000435001E084F83450072E00D30626E66246
:103A9000C4E91165201D00F010F904F1180000F0D0
:103AA0000CF92461C6F107006462A061E56484F842
:103AB000505052464946384600F0C0F82060B8F1F0
:103AC000000F01D0C8F80040BDE8F08730B51149BB
:103AD00000E011460A688242FBD34B685C188442BE
:103AE00003D1406818444860084643681C18944253
:103AF00009D1084C183C2468A24209D052681A44E3
:103B000042600A6812680260814200D0086030BDDD
:103B10000460F9E7800000200648416B096829B17C
:103B2000416BC968C9684968816270474FF0FF31CD
:103B3000FAE700002C00002008484068401C4FF0C5
:103B4000500080F3118804D0BFF34F8FBFF36F8F05
:103B5000FEE7BFF34F8FBFF36F8FFEE788000020B3
:103B60002DE9F0410546002700F0A2F9324E3068F9
:103B700008B9FFF709FF706905424ED1C5B3083592
:103B800068070ED005F00700C0F10800054468077B
:103B900007D0502080F31188BFF34F8FBFF36F8F92
:103BA000FEE72DB37068854237D8234818300146A8
:103BB0000C6801E020460C466168A94202D22168E7
:103BC0000029F7D131688C4227D00768216801604D
:103BD00060680837411B10290FD96019420708D0C7
:103BE000502080F31188BFF34F8FBFF36F8FFEE734
:103BF00013E041606560FFF769FF61687068401A13
:103C00007060B268904200D2B060706901430020D9
:103C1000C4E90001F068401CF06000F0DBFA7807AE
:103C200007D0502080F31188BFF34F8FBFF36F8F01
:103C3000FEE73846BDE8F0816800002010B5031F9C
:103C40004FF080741C601B1F21F001011960191FC7
:103C5000044B0B6014390A60091F6FF002024438EC
:103C60000A6010BD393B0008D0E9013201699A6051
:103C7000D0E901235A604A68824201D182684A60D1
:103C8000002202610868401E086008687047000052
:103C9000034B036003F154000860802010607047FC
:103CA0005002012000F108014FF0FF32C0E901127B
:103CB000C16001610021016070470021016170470E
:103CC00030B50B685A1C02D000F1080202E002690C
:103CD00004E02246546825689D42FAD953684B6037
:103CE00099608A60516008610168491C016030BDBB
:103CF00042684A6093688B6093685960916008617C
:103D00000168491C01607047502080F31188BFF39F
:103D10004F8FBFF36F8F0A494868401C48600128E5
:103D20000CD10848006810F0FF0F07D0502080F336
:103D30001188BFF34F8FBFF36F8FFEE7704700000E
:103D40008800002004ED00E00849486828B1401EC2
:103D5000486001D180F311887047502080F31188AA
:103D6000BFF34F8FBFF36F8FFEE700008800002086
:103D700070B500282AD0164DA0F108046068696962
:103D8000084207D1502080F31188BFF34F8FBFF353
:103D90006F8FFEE722683AB1502080F31188BFF39D
:103DA0004F8FBFF36F8FFEE78843606000F080F8AD
:103DB00060686968084468602046FFF787FE2869E4
:103DC000401C2861BDE8704000F004BA70BD0000DE
:103DD000680000204FF0E020002101618161054969
:103DE0004FF47A720968B1FBF2F1491E4161072173
:103DF000016170472800002010B5020014D00F4860
:103E0000006B38B1502080F31188BFF34F8FBFF3A0
:103E10006F8FFEE700F04CF800211046FFF7FAFC28
:103E200000F0D8F9002807D105494FF0805008600C
:103E3000BFF34F8FBFF36F8F10BD00002C00002029
:103E400004ED00E010B586B00024039405AA04A98F
:103E500003A80494FFF71CFFDDE903010094CDE9FA
:103E6000011000230EA11048059A00F014F90F4923
:103E70000028C86211D0502080F31188BFF34F8F03
:103E8000BFF36F8F4FF0FF30886201204861CC6034
:103E900006B0BDE8104000F041B806B010BD00000B
:103EA00049444C4500000000D53900082C00002092
:103EB0000248016B491C0163704700002C00002080
:103EC0001448016B11B10121C16170470021C1612A
:103ED0000169B1FA81F1C1F11F0101EB81020E49C3
:103EE00051F822306BB101EB820101F108034A68FD
:103EF00052684A609A4201D152684A60D1680160B2
:103F00007047502080F31188BFF34F8FBFF36F8F3E
:103F1000FEE700002C000020A40401201CB5374857
:103F20000168374A914207D1502080F31188BFF3CE
:103F30004F8FBFF36F8FFEE700683149491E8842FB
:103F400007D1502080F31188BFF34F8FBFF36F8FDD
:103F5000FEE72C4908780190FF20087008788DF85A
:103F600000009DF800009DF8002000F0F000904255
:103F700007D0502080F31188BFF34F8FBFF36F8FAE
:103F8000FEE79DF80000204C00F050002070072054
:103F9000A06005E09DF8002052008DF80020401E32
:103FA0009DF800201206F5D4A060032807D0502009
:103FB00080F31188BFF34F8FBFF36F8FFEE74FF48D
:103FC0004070A060019808700C482030016841F4EE
:103FD00070010160016841F070410160FFF7FAFE75
:103FE00000206060FCF762F90848016841F0404138
:103FF0000160FCF747F900201CBD000000ED00E067
:1040000071C20F4100E400E08800002034EF00E0BE
:1040100010B5502080F31188BFF34F8FBFF36F8F1F
:1040200000F072F818B104494FF080500860002089
:1040300080F3118810BD000004ED00E02DE9FF5F62
:104040008346DDE90E87994616468A469000FFF7BB
:1040500087FD05001CD05420FFF782FD040014D01A
:104060000020256384F85100CDE90240CDE90087A6
:104070004B46324651465846FFF7DCFC2046FFF7D8
:1040800001FC012004B0BDE8F09F2846FFF770FE58
:104090004FF0FF30F6E7F0B585B0DDE90B640A9D1F
:1040A000A6B1DCB1542700972663022684F851603C
:1040B000002604AFCDE90246CDE90057FFF7BAFC70
:1040C0002046FFF7DFFB049805B0F0BD502080F3D9
:1040D0001188BFF34F8FBFF36F8FFEE7502080F33F
:1040E0001188BFF34F8FBFF36F8FFEE7054841691B
:1040F00019B1006B18B100207047012070470220F1
:10410000704700002C0000202DE9F0412F4C0026C4
:10411000206B28B1A069401CA0613046BDE8F08149
:10412000E5686D1CE56013D1606B006838B1502004
:1041300080F31188BFF34F8FBFF36F8FFEE7606B83
:10414000A16B6163A063206A401C2062FFF7E4FC5E
:10415000A06ADFF87C80854209D3606B0068A0B15B
:10416000606BC068C7687868854211D2A062206819
:10417000C06A00EB800158F82100012800D901260F
:10418000E0690028C9D00126C7E74FF0FF30EDE70E
:10419000381DFFF769FDB86A18B107F11800FFF77D
:1041A00063FDF96A0120226988401043206101EB18
:1041B000810108EB8100391DFFF79AFDF86A21683B
:1041C000C96A8842C9D30126C7E700002C00002035
:1041D000A40401202DE9F0472C4D00242746286B2C
:1041E00038B1FFF791FD286B401E2863286B40B162
:1041F00046E0502080F31188BFF34F8FBFF36F8FDD
:10420000FEE7A968224E0120D1B3A6F1B409804689
:104210003068E8B1F068C46804F11800FFF724FDC5
:10422000201DFFF721FDE06A2A6908FA00F1114319
:10423000296100EB800109EB8100211DFFF758FD8A
:10424000E06A2968C96A8842E2D3C5F81C80DFE7C2
:104250000CB1FFF761FCAC6944B14646FFF754FF6F
:1042600000B1EE61641EF9D10020A861E86938B19F
:104270000849012738070860BFF34F8FBFF36F8FDE
:10428000FFF762FD3846BDE8F08700002C000020F3
:104290005805012004ED00E04FF04070E1EE100AF7
:1042A0007047FF002CFF2EDFFF013C321100090296
:1042B000042813E514482C0C33783A333BFB3E00BA
:1042C00043111610399235DA221A37C3230034C04D
:1042D000361A068807C00D870E414C0048005B0067
:1042E00042034A8121992440253826825C006300DC
:1042F000617062807C05208028306C006D806E00CB
:104300007002719473C112401711184319001A4BAF
:10431000320937C04F6050A86D003D38463F4F60AE
:104320000C3CFF00E57FF9C04124E01476FF33A088
:10433000422043184C0087D5883FD703D910D38239
:10434000C808C9807C007D007C037D487D487C08CE
:104350007D207D107D0E9000910E911A9131915A21
:1043600091699175917E9188918F919691A391AF6A
:1043700091C491D791E891209200930693E393051D
:10438000930593009304930093009300930093008C
:10439000930093009600970897199702970C97241B
:1043A00097309728972697029798978097009700BD
:1043B000C3EDA400A800C511C651BF80C710B666E2
:1043C000B8A5B764B97CB3AFB497B5FFB0C5B19425
:1043D000B20FC45CC064C14B8C00863D500051C814
:1043E00052965300540055005AC85B965C00D300A7
:1043F000C3ED7F00DA00E51FE167E000DD7F050027
:104400001240D304C016C1128C00863D5000512CBE
:1044100052245300540055005A2C5B245C00FFFFCB
:10442000FF000500DA10D703DF0033803C40E1775E
:104430000000FFFFE014E177E51FD703DA10E0008A
:10444000FF010408FFFFFF01124017111843190074
:104450001A4B32094FCA50A85A236D00391235DA67
:10446000221A37C3230034C0361A068807C00D87C6
:104470000E414C00FF00E004C064C14B86355092F1
:1044800051C8529653005400550057005A2C5B24D3
:104490005C00E000FFFFFF011240171118431900F4
:1044A0001A4B32094FCA50A85A236D00391235DA17
:1044B000221A37C3230034C0361A068807C00D8776
:1044C0000E414C00FF00E004C064C14B86355089AA
:1044D00051C8529653005400550057005A505B3C47
:1044E0005C00E000FFFFFF011101120017111875B9
:1044F000323619011A97030F37404FBB509C5A5759
:104500006D803D3439023588220A374034A00602D6
:104510000DB70E01FF00E004C0C8C196863D50896A
:104520005190522C53005400558857005AA05B7884
:104530005C00D304E000FFFFFF011101120017111E
:104540001875323619011A97030F37404FBB509C2C
:104550005A576D803D3439023588220A374034A0DD
:1045600006020DB70E01FF00E004C0C8C1968635F3
:1045700050895190522C53005400558857005AC806
:104580005B965C00D302E000FFFFFF011101120007
:1045900017111875323619011A97030F37404FBBA0
:1045A000509C5A576D803D3439023588220A374075
:1045B00034A006020DB70E01FF00C0C8C1968C00E2
:1045C000863D50005190522C5300540055885A009B
:1045D0005BC05C01D302FFFFFF0111011200171144
:1045E0001875323619011A97030F37404FBB509C8C
:1045F0005A576D803D3439023588220A374034A03D
:1046000006020DB70E01FF00E004C0C8C196863D4A
:1046100050005190522C53005400558857005A4076
:104620005BF05C01D302E000FFFFFF007C007D0433
:104630007C077D207D287D0C7D06FFFFFF007C0030
:104640007D047C077D207D247D167D06FFFFFF0015
:104650007C007D047C077D207D207D207D06FFFF82
:10466000FF007C007D047C077D207D1C7D2A7D066B
:10467000FFFFFF007C007D047C077D207D187D34DA
:104680007D06FFFFFF007C007D027C037D687D6866
:10469000FFFFFF007C007D027C037D587D68FFFFEB
:1046A000FF007C007D027C037D487D48FFFFFF000A
:1046B0007C007D027C037D387D38FFFFFF007C009D
:1046C0007D027C037D287D28FFFFFF007C007D04A8
:1046D0007C097D407D00FFFFFF007C007D047C099C
:1046E0007D307D00FFFFFF007C007D047C097D2084
:1046F0007D00FFFFFF007C007D047C097D107D00B4
:10470000FFFFFF007C007D047C097D007D00FFFF32
:10471000FF007C007D007C057D807D80FFFFFF0029
:104720007C007D187C057D407DA6FFFFFF007C009E
:104730007D587C057D807D80FFFFFF007C007D181B
:104740007C057DA07D40FFFFFF007C007D187C057F
:104750007D807D80FFFFFF007C007D407C057D80AB
:104760007D80FFFFFF007C007D187C057D407D4043
:10477000FFFFFF007C007D187C057D407DC0FFFFB2
:10478000FF00C740CC5ECD41CE54FFFFFF00C740C5
:10479000CC65CD41CE4FFFFFFF00C740CC52CD418D
:1047A000CE66FFFFFF00C740CC42CD3FCE71FFFF7A
:1047B000244800080D32000800000000000000003E
:1047C00080000000000000000000000030480008E9
:1047D00025320008FDFF00000000000080000000FE
:1047E00000000000000000003C480008DD32000826
:1047F000FDFF00000000000080000000000000003D
:104800000000000000061016000610160000000050
:104810000000000001020304060708090000000070
:10482000010203046D795461736B303100000000A4
:104830006D795461736B3032000000006D79546102
:10484000736B30330000000068480008000000204F
:104850009400000000020008FC48000894000020BA
:10486000644701001C020008000000000000000076
:10487000FFFF00000000000000000000000000003A
:104880000000000001000000100000000000000017
:104890000024F40000000000000000000000000000
:1048A0000000000000000000000000000000000008
:1048B00000000000000000000000000000000000F8
:1048C00000000000000000000000000000000000E8
:1048D00000000000000000000000000000000000D8
:1048E00000000000000000000000000000000000C8
:0C48F00000000000AAAAAAAA0000000014
:04000005080001C529
:00000001FF
